{
  "_format": "hh-sol-artifact-1",
  "contractName": "NativeVault",
  "sourceName": "src/states/NativeVault.sol",
  "abi": [
    {
      "inputs": [
        {
          "internalType": "address",
          "name": "_asset",
          "type": "address"
        },
        {
          "internalType": "address",
          "name": "_verifier",
          "type": "address"
        }
      ],
      "stateMutability": "nonpayable",
      "type": "constructor"
    },
    {
      "inputs": [],
      "name": "AmountMismatch",
      "type": "error"
    },
    {
      "inputs": [],
      "name": "InvalidDepositAmount",
      "type": "error"
    },
    {
      "inputs": [],
      "name": "InvalidWithdrawalAmount",
      "type": "error"
    },
    {
      "inputs": [],
      "name": "InvalidZKProof",
      "type": "error"
    },
    {
      "inputs": [],
      "name": "NativeFundReceived",
      "type": "error"
    },
    {
      "inputs": [],
      "name": "NativeTransferFailed",
      "type": "error"
    },
    {
      "inputs": [],
      "name": "NullifierAlreadySpent",
      "type": "error"
    },
    {
      "anonymous": false,
      "inputs": [
        {
          "indexed": true,
          "internalType": "address",
          "name": "depositor",
          "type": "address"
        },
        {
          "indexed": false,
          "internalType": "uint256",
          "name": "amount",
          "type": "uint256"
        },
        {
          "indexed": false,
          "internalType": "uint256",
          "name": "commitment",
          "type": "uint256"
        },
        {
          "indexed": false,
          "internalType": "uint256",
          "name": "precommitment",
          "type": "uint256"
        }
      ],
      "name": "Deposited",
      "type": "event"
    },
    {
      "anonymous": false,
      "inputs": [
        {
          "indexed": true,
          "internalType": "address",
          "name": "recipient",
          "type": "address"
        },
        {
          "components": [
            {
              "internalType": "address",
              "name": "pool",
              "type": "address"
            },
            {
              "internalType": "address",
              "name": "srcToken",
              "type": "address"
            },
            {
              "internalType": "address",
              "name": "dstToken",
              "type": "address"
            },
            {
              "internalType": "address payable",
              "name": "recipient",
              "type": "address"
            },
            {
              "internalType": "uint256",
              "name": "amountIn",
              "type": "uint256"
            },
            {
              "internalType": "uint256",
              "name": "minAmountOut",
              "type": "uint256"
            },
            {
              "internalType": "uint24",
              "name": "fee",
              "type": "uint24"
            }
          ],
          "indexed": false,
          "internalType": "struct IVault.SwapParam",
          "name": "_param",
          "type": "tuple"
        },
        {
          "indexed": false,
          "internalType": "uint256",
          "name": "_spentNullifier",
          "type": "uint256"
        },
        {
          "indexed": false,
          "internalType": "uint256",
          "name": "_newCommitment",
          "type": "uint256"
        }
      ],
      "name": "Swapped",
      "type": "event"
    },
    {
      "anonymous": false,
      "inputs": [
        {
          "indexed": true,
          "internalType": "address",
          "name": "recipient",
          "type": "address"
        },
        {
          "indexed": false,
          "internalType": "uint256",
          "name": "amount",
          "type": "uint256"
        },
        {
          "indexed": false,
          "internalType": "uint256",
          "name": "nullifier",
          "type": "uint256"
        },
        {
          "indexed": false,
          "internalType": "uint256",
          "name": "newCommitment",
          "type": "uint256"
        }
      ],
      "name": "Withdrawn",
      "type": "event"
    },
    {
      "inputs": [],
      "name": "WETH",
      "outputs": [
        {
          "internalType": "address",
          "name": "",
          "type": "address"
        }
      ],
      "stateMutability": "view",
      "type": "function"
    },
    {
      "inputs": [],
      "name": "asset",
      "outputs": [
        {
          "internalType": "address",
          "name": "",
          "type": "address"
        }
      ],
      "stateMutability": "view",
      "type": "function"
    },
    {
      "inputs": [
        {
          "internalType": "uint256",
          "name": "_amount",
          "type": "uint256"
        },
        {
          "internalType": "uint256",
          "name": "_precommitment",
          "type": "uint256"
        }
      ],
      "name": "deposit",
      "outputs": [
        {
          "internalType": "uint256",
          "name": "_commitment",
          "type": "uint256"
        }
      ],
      "stateMutability": "payable",
      "type": "function"
    },
    {
      "inputs": [],
      "name": "getAsset",
      "outputs": [
        {
          "internalType": "address",
          "name": "_asset",
          "type": "address"
        }
      ],
      "stateMutability": "view",
      "type": "function"
    },
    {
      "inputs": [],
      "name": "merkleTree",
      "outputs": [
        {
          "internalType": "contract MerkleTree",
          "name": "",
          "type": "address"
        }
      ],
      "stateMutability": "view",
      "type": "function"
    },
    {
      "inputs": [],
      "name": "nonce",
      "outputs": [
        {
          "internalType": "uint256",
          "name": "",
          "type": "uint256"
        }
      ],
      "stateMutability": "view",
      "type": "function"
    },
    {
      "inputs": [
        {
          "internalType": "uint256",
          "name": "_nullifier",
          "type": "uint256"
        }
      ],
      "name": "nullifiers",
      "outputs": [
        {
          "internalType": "bool",
          "name": "_spent",
          "type": "bool"
        }
      ],
      "stateMutability": "view",
      "type": "function"
    },
    {
      "inputs": [
        {
          "components": [
            {
              "internalType": "address",
              "name": "pool",
              "type": "address"
            },
            {
              "internalType": "address",
              "name": "srcToken",
              "type": "address"
            },
            {
              "internalType": "address",
              "name": "dstToken",
              "type": "address"
            },
            {
              "internalType": "address payable",
              "name": "recipient",
              "type": "address"
            },
            {
              "internalType": "uint256",
              "name": "amountIn",
              "type": "uint256"
            },
            {
              "internalType": "uint256",
              "name": "minAmountOut",
              "type": "uint256"
            },
            {
              "internalType": "uint24",
              "name": "fee",
              "type": "uint24"
            }
          ],
          "internalType": "struct IVault.SwapParam",
          "name": "_param",
          "type": "tuple"
        },
        {
          "internalType": "address",
          "name": "_swapRouter",
          "type": "address"
        },
        {
          "components": [
            {
              "internalType": "uint256",
              "name": "stateRoot",
              "type": "uint256"
            },
            {
              "internalType": "uint256",
              "name": "nullifier",
              "type": "uint256"
            },
            {
              "internalType": "uint256",
              "name": "newCommitment",
              "type": "uint256"
            },
            {
              "internalType": "uint256[24]",
              "name": "proof",
              "type": "uint256[24]"
            }
          ],
          "internalType": "struct IVault.ZKProof",
          "name": "_zkProof",
          "type": "tuple"
        }
      ],
      "name": "swap",
      "outputs": [],
      "stateMutability": "nonpayable",
      "type": "function"
    },
    {
      "inputs": [
        {
          "internalType": "uint256",
          "name": "_amount",
          "type": "uint256"
        },
        {
          "internalType": "uint256",
          "name": "_stateRoot",
          "type": "uint256"
        },
        {
          "internalType": "uint256",
          "name": "_nullifier",
          "type": "uint256"
        },
        {
          "internalType": "uint256",
          "name": "_newCommitment",
          "type": "uint256"
        },
        {
          "internalType": "uint256[24]",
          "name": "_proof",
          "type": "uint256[24]"
        }
      ],
      "name": "verify",
      "outputs": [
        {
          "internalType": "bool",
          "name": "",
          "type": "bool"
        }
      ],
      "stateMutability": "view",
      "type": "function"
    },
    {
      "inputs": [
        {
          "internalType": "address",
          "name": "_recipient",
          "type": "address"
        },
        {
          "internalType": "uint256",
          "name": "_amount",
          "type": "uint256"
        },
        {
          "internalType": "uint256",
          "name": "_stateRoot",
          "type": "uint256"
        },
        {
          "internalType": "uint256",
          "name": "_nullifier",
          "type": "uint256"
        },
        {
          "internalType": "uint256",
          "name": "_newCommitment",
          "type": "uint256"
        },
        {
          "internalType": "uint256[24]",
          "name": "_proof",
          "type": "uint256[24]"
        }
      ],
      "name": "withdraw",
      "outputs": [],
      "stateMutability": "nonpayable",
      "type": "function"
    }
  ],
  "bytecode": "0x60c060405234801561001057600080fd5b5060405161164038038061164083398101604081905261002f916100bb565b6001600160a01b0382166080526040518290829061004c90610092565b604051809103906000f080158015610068573d6000803e3d6000fd5b50600080546001600160a01b0319166001600160a01b039283161790551660a052506100ee915050565b6106db80610f6583390190565b80516001600160a01b03811681146100b657600080fd5b919050565b600080604083850312156100ce57600080fd5b6100d78361009f565b91506100e56020840161009f565b90509250929050565b60805160a051610e3f61012660003960008181610271015281816104ba01526105780152600081816098015260e60152610e3f6000f3fe6080604052600436106100815760003560e01c806338d52e0f146100865780635c222bad146100d75780636208d9531461010a57806386ea04361461012c57806389b97d091461015c578063ad5c46481461017c578063affed0e0146101a4578063bb7df052146101c8578063d21e82ab146101e8578063e2bbb15814610218575b600080fd5b34801561009257600080fd5b506100ba7f000000000000000000000000000000000000000000000000000000000000000081565b6040516001600160a01b0390911681526020015b60405180910390f35b3480156100e357600080fd5b507f00000000000000000000000000000000000000000000000000000000000000006100ba565b34801561011657600080fd5b5061012a610125366004610aaf565b61022b565b005b34801561013857600080fd5b5061014c610147366004610baa565b61047e565b60405190151581526020016100ce565b34801561016857600080fd5b5061012a610177366004610bf5565b61053e565b34801561018857600080fd5b506100ba73fff9976782d46cc05630d1f6ebab18b2324d6b1481565b3480156101b057600080fd5b506101ba60025481565b6040519081526020016100ce565b3480156101d457600080fd5b506000546100ba906001600160a01b031681565b3480156101f457600080fd5b5061014c610203366004610c51565b60016020526000908152604090205460ff1681565b6101ba610226366004610c6a565b610721565b604080516080808201835285015181528235602080830182905283850135838501528401356060808401919091529251631860fdad60e21b815290926001600160a01b037f00000000000000000000000000000000000000000000000000000000000000001691636183f6b4916102aa91908701908590600401610c8c565b602060405180830381865afa1580156102c7573d6000803e3d6000fd5b505050506040513d601f19601f820116820180604052508101906102eb9190610cc9565b610308576040516303b2487b60e11b815260040160405180910390fd5b60208084013560009081526001909152604090205460ff161561033e5760405163b115d85760e01b815260040160405180910390fd5b60208381013560009081526001918290526040808220805460ff19169093179092555481516390b5561d60e01b81529185013560048301526001600160a01b0316906390b5561d906024016020604051808303816000875af11580156103a8573d6000803e3d6000fd5b505050506040513d601f19601f820116820180604052508101906103cc9190610cf2565b506103d78486610892565b606085810180516040805189516001600160a01b0390811682526020808c0151821681840152838c015182168385015294518116958201959095526080808b01519082015260a0808b01519082015260c0808b015162ffffff16908201529287013560e084015286810135610100840152519216917f77c79fadfed5458292460ed9525b3bd4ae17631324e690d2a6335bfa064c1400918190036101200190a25050505050565b6040805160808101825286815260208101869052808201849052606081018590529051631860fdad60e21b815260009186916001600160a01b037f00000000000000000000000000000000000000000000000000000000000000001690636183f6b4906104f19087908590600401610c8c565b602060405180830381865afa15801561050e573d6000803e3d6000fd5b505050506040513d601f19601f820116820180604052508101906105329190610cc9565b98975050505050505050565b6040805160808101825286815260208101869052808201849052606081018590529051631860fdad60e21b81528591906001600160a01b037f00000000000000000000000000000000000000000000000000000000000000001690636183f6b4906105af9086908590600401610c8c565b602060405180830381865afa1580156105cc573d6000803e3d6000fd5b505050506040513d601f19601f820116820180604052508101906105f09190610cc9565b61060d576040516303b2487b60e11b815260040160405180910390fd5b60008581526001602052604090205460ff161561063d5760405163b115d85760e01b815260040160405180910390fd5b6000858152600160208190526040808320805460ff1916909217909155905490516390b5561d60e01b8152600481018690526001600160a01b03909116906390b5561d906024016020604051808303816000875af11580156106a3573d6000803e3d6000fd5b505050506040513d601f19601f820116820180604052508101906106c79190610cf2565b506106d288886109b1565b876001600160a01b03167f75e161b3e824b114fc1a33274bd7091918dd4e639cede50b78b15a4eea956a2188878760405161070f93929190610d0b565b60405180910390a25050505050505050565b60008083116107435760405163fe9ba5cd60e01b815260040160405180910390fd5b604080518082018252848152602081018490529051632b0aac7f60e11b815273__$75f79a42d9bcbdbb69ad79ebd80f556f39$__9163561558fe9161078b9190600401610d21565b602060405180830381865af41580156107a8573d6000803e3d6000fd5b505050506040513d601f19601f820116820180604052508101906107cc9190610cf2565b6000546040516390b5561d60e01b8152600481018390529192506001600160a01b0316906390b5561d906024016020604051808303816000875af1158015610818573d6000803e3d6000fd5b505050506040513d601f19601f8201168201806040525081019061083c9190610cf2565b506108473384610a2a565b336001600160a01b03167f91ede45f04a37a7c170f5c1207df3b6bc748dc1e04ad5e917a241d0f52feada384838560405161088493929190610d0b565b60405180910390a292915050565b6000829050600060405180610100016040528084602001516001600160a01b0316815260200184604001516001600160a01b031681526020018460c0015162ffffff16815260200184606001516001600160a01b0316815260200142603c6108fa9190610d52565b8152608085018051602083015260a086015160408084019190915260006060909301929092525185519151632e53a76d60e01b81529293506001600160a01b03851692632e53a76d926109679173fff9976782d46cc05630d1f6ebab18b2324d6b14908790600401610d73565b60206040518083038185885af1158015610985573d6000803e3d6000fd5b50505050506040513d601f19601f820116820180604052508101906109aa9190610cf2565b5050505050565b6000826001600160a01b03168260405160006040518083038185875af1925050503d80600081146109fe576040519150601f19603f3d011682016040523d82523d6000602084013e610a03565b606091505b5050905080610a2557604051633d2cec6f60e21b815260040160405180910390fd5b505050565b803414610a4a576040516355e97b0d60e01b815260040160405180910390fd5b5050565b6001600160a01b03169052565b6001600160a01b0381168114610a7057600080fd5b50565b8035610a7e81610a5b565b919050565b803562ffffff81168114610a7e57600080fd5b60006103608284031215610aa957600080fd5b50919050565b6000806000838503610460811215610ac657600080fd5b60e0811215610ad457600080fd5b5060405160e081016001600160401b0381118282101715610b0557634e487b7160e01b600052604160045260246000fd5b604052610b1185610a73565b8152610b1f60208601610a73565b6020820152610b3060408601610a73565b6040820152610b4160608601610a73565b60608201526080858101359082015260a08086013590820152610b6660c08601610a83565b60c08201529250610b7960e08501610a73565b9150610b89856101008601610a96565b90509250925092565b806103008101831015610ba457600080fd5b92915050565b60008060008060006103808688031215610bc357600080fd5b85359450602086013593506040860135925060608601359150610be98760808801610b92565b90509295509295909350565b6000806000806000806103a08789031215610c0f57600080fd5b8635610c1a81610a5b565b955060208701359450604087013593506060870135925060808701359150610c458860a08901610b92565b90509295509295509295565b600060208284031215610c6357600080fd5b5035919050565b60008060408385031215610c7d57600080fd5b50508035926020909101359150565b610380810161030084833761030082018360005b6004811015610cbf578151835260209283019290910190600101610ca0565b5050509392505050565b600060208284031215610cdb57600080fd5b81518015158114610ceb57600080fd5b9392505050565b600060208284031215610d0457600080fd5b5051919050565b9283526020830191909152604082015260600190565b60408101818360005b6002811015610d49578151835260209283019290910190600101610d2a565b50505092915050565b80820180821115610ba457634e487b7160e01b600052601160045260246000fd5b6001600160a01b03848116825283811660208084019190915283518216604080850191909152908401519091166060808401919091529083015162ffffff166080830152820151610140820190610dcd60a0840182610a4e565b50608083015160c083015260a083015160e083015260c083015161010083015260e0830151610e00610120840182610a4e565b5094935050505056fea26469706673582212202e4e697f62a35836e102717c2f30ea8bba5e757c1fde61156c9c349520b6998f64736f6c634300081c00336080604052348015600f57600080fd5b506106bc8061001f6000396000f3fe608060405234801561001057600080fd5b50600436106100a45760003560e01c8063081dc681146100a9578063367506ef146100dc5780635ca1e165146100e357806376a5cef3146100eb57806390b5561d1461010e57806390eeb02b14610121578063949d225d14610146578063a27154ba1461014f578063cccf7a8e14610157578063cd87a3b41461016a578063d455a79d14610172578063de8fa43114610192575b600080fd5b6100c96100b7366004610510565b60026020526000908152604090205481565b6040519081526020015b60405180910390f35b60206100c9565b6100c961019a565b6100fe6100f936600461053d565b6101ac565b60405190151581526020016100d3565b6100c961011c36600461053d565b610221565b6003546101319063ffffffff1681565b60405163ffffffff90911681526020016100d3565b6100c960015481565b610131602081565b6100fe61016536600461053d565b610343565b610131606481565b6100c961018036600461053d565b60006020819052908152604090205481565b6001546100c9565b60006101a7600154610381565b905090565b6000816000036101be57506000919050565b60035463ffffffff1660005b606463ffffffff821610156102175763ffffffff8216600090815260026020526040902054849003610200575060019392505050565b60646063830163ffffffff160691506001016101ca565b5060009392505050565b600154600090600160201b1161024a57604051633977650160e01b815260040160405180910390fd5b6001805460009081526020819052604081208490558154919061026c83610582565b919050555061027c600154610381565b6003805491925063ffffffff9091169060006102978361059b565b91906101000a81548163ffffffff021916908363ffffffff1602179055505080600260006064600360009054906101000a900463ffffffff166102da91906105c0565b63ffffffff168152602081019190915260400160002055600180547fcb249c8292372bd11f567786635483fca9e635030baafca55ff1a8940141d22191610320916105e8565b6040805191825260208201859052810183905260600160405180910390a1919050565b6000805b600154811015610378576000818152602081905260409020548390036103705750600192915050565b600101610347565b50600092915050565b60008160000361039357506000919050565b60006103a06001846105e8565b6000818152602081905260408120549192505b602063ffffffff821610156105085760006103cf600285610601565b6000036103e8576103e1846001610615565b90506103f6565b6103f36001856105e8565b90505b6000868210610406576000610416565b6000828152602081905260409020545b9050600080610426600288610601565b60000361043757508490508161043d565b50819050845b604080518082018252838152602081018390529051632b0aac7f60e11b815273__$75f79a42d9bcbdbb69ad79ebd80f556f39$__9163561558fe916104859190600401610628565b602060405180830381865af41580156104a2573d6000803e3d6000fd5b505050506040513d601f19601f820116820180604052508101906104c69190610659565b95506104d3600288610672565b965060018911156104f85760026104eb8a6001610615565b6104f59190610672565b98505b5050600190920191506103b39050565b509392505050565b60006020828403121561052257600080fd5b813563ffffffff8116811461053657600080fd5b9392505050565b60006020828403121561054f57600080fd5b5035919050565b634e487b7160e01b600052601260045260246000fd5b634e487b7160e01b600052601160045260246000fd5b6000600182016105945761059461056c565b5060010190565b600063ffffffff821663ffffffff81036105b7576105b761056c565b60010192915050565b600063ffffffff8316806105d6576105d6610556565b8063ffffffff84160691505092915050565b818103818111156105fb576105fb61056c565b92915050565b60008261061057610610610556565b500690565b808201808211156105fb576105fb61056c565b60408101818360005b6002811015610650578151835260209283019290910190600101610631565b50505092915050565b60006020828403121561066b57600080fd5b5051919050565b60008261068157610681610556565b50049056fea26469706673582212203ed4f54b5c3ac97ec16932b851c3884fd4ebd0fd8ffb40f2214c8a681a48654064736f6c634300081c0033",
  "linkReferences": {
    "poseidon-solidity/PoseidonT3.sol": {
      "PoseidonT3": [
        {
          "length": 20,
          "start": 2186
        },
        {
          "length": 20,
          "start": 5090
        }
      ]
    }
  },
  "deployedLinkReferences": {
    "poseidon-solidity/PoseidonT3.sol": {
      "PoseidonT3": [
        {
          "length": 20,
          "start": 1892
        }
      ]
    }
  }
}