{
  "_format": "hh-sol-artifact-1",
  "contractName": "Entrypoint",
  "sourceName": "src/Entrypoint.sol",
  "abi": [
    {
      "inputs": [
        {
          "internalType": "address",
          "name": "_owner",
          "type": "address"
        },
        {
          "internalType": "address",
          "name": "_swapRouterAddress",
          "type": "address"
        }
      ],
      "stateMutability": "nonpayable",
      "type": "constructor"
    },
    {
      "inputs": [],
      "name": "InvalidDepositAmount",
      "type": "error"
    },
    {
      "inputs": [],
      "name": "InvalidFeeAmount",
      "type": "error"
    },
    {
      "inputs": [],
      "name": "InvalidSwapAmount",
      "type": "error"
    },
    {
      "inputs": [],
      "name": "InvalidWithdrawalAmount",
      "type": "error"
    },
    {
      "inputs": [],
      "name": "VaultAlreadyRegistered",
      "type": "error"
    },
    {
      "inputs": [],
      "name": "VaultNotFound",
      "type": "error"
    },
    {
      "inputs": [],
      "name": "ZeroAddress",
      "type": "error"
    },
    {
      "inputs": [],
      "name": "NATIVE_ASSET",
      "outputs": [
        {
          "internalType": "address",
          "name": "",
          "type": "address"
        }
      ],
      "stateMutability": "view",
      "type": "function"
    },
    {
      "inputs": [],
      "name": "WETH",
      "outputs": [
        {
          "internalType": "address",
          "name": "",
          "type": "address"
        }
      ],
      "stateMutability": "view",
      "type": "function"
    },
    {
      "inputs": [
        {
          "internalType": "address",
          "name": "_asset",
          "type": "address"
        },
        {
          "internalType": "uint256",
          "name": "_amount",
          "type": "uint256"
        },
        {
          "internalType": "uint256",
          "name": "_precommitment",
          "type": "uint256"
        }
      ],
      "name": "deposit",
      "outputs": [
        {
          "internalType": "uint256",
          "name": "_commitment",
          "type": "uint256"
        }
      ],
      "stateMutability": "payable",
      "type": "function"
    },
    {
      "inputs": [
        {
          "internalType": "address",
          "name": "asset",
          "type": "address"
        }
      ],
      "name": "getVault",
      "outputs": [
        {
          "internalType": "address",
          "name": "",
          "type": "address"
        }
      ],
      "stateMutability": "view",
      "type": "function"
    },
    {
      "inputs": [
        {
          "internalType": "address[]",
          "name": "assets",
          "type": "address[]"
        }
      ],
      "name": "initializeVaults",
      "outputs": [],
      "stateMutability": "nonpayable",
      "type": "function"
    },
    {
      "inputs": [],
      "name": "owner",
      "outputs": [
        {
          "internalType": "address",
          "name": "",
          "type": "address"
        }
      ],
      "stateMutability": "view",
      "type": "function"
    },
    {
      "inputs": [
        {
          "internalType": "address",
          "name": "_pool",
          "type": "address"
        },
        {
          "internalType": "address",
          "name": "_srcToken",
          "type": "address"
        },
        {
          "internalType": "address",
          "name": "_dstToken",
          "type": "address"
        },
        {
          "internalType": "address payable",
          "name": "_recipient",
          "type": "address"
        },
        {
          "internalType": "uint256",
          "name": "_amountIn",
          "type": "uint256"
        },
        {
          "internalType": "uint256",
          "name": "_minAmountOut",
          "type": "uint256"
        },
        {
          "internalType": "uint24",
          "name": "_fee",
          "type": "uint24"
        },
        {
          "components": [
            {
              "internalType": "uint256",
              "name": "stateRoot",
              "type": "uint256"
            },
            {
              "internalType": "uint256",
              "name": "nullifier",
              "type": "uint256"
            },
            {
              "internalType": "uint256",
              "name": "newCommitment",
              "type": "uint256"
            },
            {
              "internalType": "uint256[24]",
              "name": "proof",
              "type": "uint256[24]"
            }
          ],
          "internalType": "struct IVault.ZKProof",
          "name": "_zkProof",
          "type": "tuple"
        }
      ],
      "name": "swap",
      "outputs": [],
      "stateMutability": "nonpayable",
      "type": "function"
    },
    {
      "inputs": [],
      "name": "swapRouter",
      "outputs": [
        {
          "internalType": "address",
          "name": "",
          "type": "address"
        }
      ],
      "stateMutability": "view",
      "type": "function"
    },
    {
      "inputs": [
        {
          "internalType": "address",
          "name": "_asset",
          "type": "address"
        },
        {
          "internalType": "uint256",
          "name": "_amount",
          "type": "uint256"
        },
        {
          "internalType": "uint256",
          "name": "_stateRoot",
          "type": "uint256"
        },
        {
          "internalType": "uint256",
          "name": "_nullifier",
          "type": "uint256"
        },
        {
          "internalType": "uint256",
          "name": "_newCommitment",
          "type": "uint256"
        },
        {
          "internalType": "uint256[24]",
          "name": "_proof",
          "type": "uint256[24]"
        }
      ],
      "name": "verify",
      "outputs": [
        {
          "internalType": "bool",
          "name": "",
          "type": "bool"
        }
      ],
      "stateMutability": "view",
      "type": "function"
    },
    {
      "inputs": [
        {
          "internalType": "address",
          "name": "_asset",
          "type": "address"
        },
        {
          "internalType": "address",
          "name": "_recipient",
          "type": "address"
        },
        {
          "internalType": "uint256",
          "name": "_amount",
          "type": "uint256"
        },
        {
          "internalType": "uint256",
          "name": "_stateRoot",
          "type": "uint256"
        },
        {
          "internalType": "uint256",
          "name": "_nullifier",
          "type": "uint256"
        },
        {
          "internalType": "uint256",
          "name": "_newCommitment",
          "type": "uint256"
        },
        {
          "internalType": "uint256[24]",
          "name": "_proof",
          "type": "uint256[24]"
        }
      ],
      "name": "withdraw",
      "outputs": [],
      "stateMutability": "nonpayable",
      "type": "function"
    }
  ],
  "bytecode": "0x60c060405234801561001057600080fd5b506040516157ae3803806157ae83398101604081905261002f916100d0565b6001600160a01b038216156100445781610046565b335b600180546001600160a01b0319166001600160a01b0392909216919091179055604051610072906100a7565b604051809103906000f08015801561008e573d6000803e3d6000fd5b506001600160a01b039081166080521660a05250610103565b6117898061402583390190565b80516001600160a01b03811681146100cb57600080fd5b919050565b600080604083850312156100e357600080fd5b6100ec836100b4565b91506100fa602084016100b4565b90509250929050565b60805160a051613eef6101366000396000818161021101526107bc01526000818161053501526105900152613eef6000f3fe6080604052600436106100815760003560e01c80630eb9af38146100865780630efe6a8b146100dc5780633749a2ac146100fd578063380fc4ef1461011f5780635f6f59de1461013f5780638da5cb5b1461015f578063a1483b091461017f578063ad5c4648146101af578063bf53253b146101d7578063c31c9c07146101ff575b600080fd5b34801561009257600080fd5b506100bf6100a1366004610a0f565b6001600160a01b039081166000908152602081905260409020541690565b6040516001600160a01b0390911681526020015b60405180910390f35b6100ef6100ea366004610a33565b610233565b6040519081526020016100d3565b34801561010957600080fd5b5061011d610118366004610a7e565b6104db565b005b34801561012b57600080fd5b5061011d61013a366004610b4d565b61061c565b34801561014b57600080fd5b5061011d61015a366004610c0d565b610826565b34801561016b57600080fd5b506001546100bf906001600160a01b031681565b34801561018b57600080fd5b5061019f61019a366004610c7d565b6108f8565b60405190151581526020016100d3565b3480156101bb57600080fd5b506100bf73fff9976782d46cc05630d1f6ebab18b2324d6b1481565b3480156101e357600080fd5b506100bf73eeeeeeeeeeeeeeeeeeeeeeeeeeeeeeeeeeeeeeee81565b34801561020b57600080fd5b506100bf7f000000000000000000000000000000000000000000000000000000000000000081565b6001600160a01b038084166000908152602081905260408120549091859116806102705760405163dee790fb60e01b815260040160405180910390fd5b6001600160a01b038087166000818152602081905260409020549091169073eeeeeeeeeeeeeeeeeeeeeeeeeeeeeeeeeeeeeeed190161034557600034116102ca5760405163fe9ba5cd60e01b815260040160405180910390fd5b604051631c57762b60e31b81523460048201819052602482018790526001600160a01b0383169163e2bbb158919060440160206040518083038185885af1158015610319573d6000803e3d6000fd5b50505050506040513d601f19601f8201168201806040525081019061033e9190610cd9565b93506104d1565b8515806103525750600034115b156103705760405163fe9ba5cd60e01b815260040160405180910390fd5b6040516323b872dd60e01b8152336004820152306024820152604481018790526001600160a01b038816906323b872dd906064016020604051808303816000875af11580156103c3573d6000803e3d6000fd5b505050506040513d601f19601f820116820180604052508101906103e79190610cf2565b5060405163095ea7b360e01b81526001600160a01b0382811660048301526024820188905288169063095ea7b3906044016020604051808303816000875af1158015610437573d6000803e3d6000fd5b505050506040513d601f19601f8201168201806040525081019061045b9190610cf2565b50604051631c57762b60e31b815260048101879052602481018690526001600160a01b0382169063e2bbb158906044016020604051808303816000875af11580156104aa573d6000803e3d6000fd5b505050506040513d601f19601f820116820180604052508101906104ce9190610cd9565b93505b5050509392505050565b60005b81518110156106185760008282815181106104fb576104fb610d14565b6020026020010151905073eeeeeeeeeeeeeeeeeeeeeeeeeeeeeeeeeeeeeeee6001600160a01b0316816001600160a01b03161461058d57807f0000000000000000000000000000000000000000000000000000000000000000604051610560906109cd565b61056b929190610d2a565b604051809103906000f080158015610587573d6000803e3d6000fd5b506105e4565b807f00000000000000000000000000000000000000000000000000000000000000006040516105bb906109da565b6105c6929190610d2a565b604051809103906000f0801580156105e2573d6000803e3d6000fd5b505b6001600160a01b03918216600090815260208190526040902080546001600160a01b031916919092161790556001016104de565b5050565b6001600160a01b03808816600090815260208190526040902054889116806106575760405163dee790fb60e01b815260040160405180910390fd5b6001600160a01b03808a1660009081526020819052604090205416866106905760405163e346d81d60e01b815260040160405180910390fd5b60008562ffffff16116106b55760405162a4671960e71b815260040160405180910390fd5b6001600160a01b0388166106dc5760405163d92e233d60e01b815260040160405180910390fd5b73eeeeeeeeeeeeeeeeeeeeeeeeeeeeeeeeeeeeeeed196001600160a01b038b16016107195773fff9976782d46cc05630d1f6ebab18b2324d6b1499505b73eeeeeeeeeeeeeeeeeeeeeeeeeeeeeeeeeeeeeeed196001600160a01b038a16016107565773fff9976782d46cc05630d1f6ebab18b2324d6b1498505b6040805160e0810182526001600160a01b03808e1682528c811660208301528b8116828401528a81166060830152608082018a905260a0820189905262ffffff881660c08301529151636208d95360e01b81529091831690636208d953906107e69084907f0000000000000000000000000000000000000000000000000000000000000000908a90600401610d6c565b600060405180830381600087803b15801561080057600080fd5b505af1158015610814573d6000803e3d6000fd5b50505050505050505050505050505050565b6001600160a01b03808816600090815260208190526040902054168561085f57604051639abc749160e01b815260040160405180910390fd5b6001600160a01b0387166108865760405163d92e233d60e01b815260040160405180910390fd5b6040516389b97d0960e01b81526001600160a01b038216906389b97d09906108bc908a908a908a908a908a908a90600401610de4565b600060405180830381600087803b1580156108d657600080fd5b505af11580156108ea573d6000803e3d6000fd5b505050505050505050505050565b6001600160a01b038087166000908152602081905260408120549091889116806109355760405163dee790fb60e01b815260040160405180910390fd5b6001600160a01b03808a1660009081526020819052604090819020549051634375021b60e11b815291169081906386ea04369061097e908c908c908c908c908c90600401610e25565b602060405180830381865afa15801561099b573d6000803e3d6000fd5b505050506040513d601f19601f820116820180604052508101906109bf9190610cf2565b9a9950505050505050505050565b611a2380610e5783390190565b6116408061287a83390190565b6001600160a01b03811681146109fc57600080fd5b50565b8035610a0a816109e7565b919050565b600060208284031215610a2157600080fd5b8135610a2c816109e7565b9392505050565b600080600060608486031215610a4857600080fd5b8335610a53816109e7565b95602085013595506040909401359392505050565b634e487b7160e01b600052604160045260246000fd5b600060208284031215610a9057600080fd5b81356001600160401b03811115610aa657600080fd5b8201601f81018413610ab757600080fd5b80356001600160401b03811115610ad057610ad0610a68565b604051600582901b90603f8201601f191681016001600160401b0381118282101715610afe57610afe610a68565b604052918252602081840181019290810187841115610b1c57600080fd5b6020850194505b83851015610b4257610b34856109ff565b815260209485019401610b23565b509695505050505050565b600080600080600080600080888a03610440811215610b6b57600080fd5b8935610b76816109e7565b985060208a0135610b86816109e7565b975060408a0135610b96816109e7565b965060608a0135610ba6816109e7565b955060808a0135945060a08a0135935060c08a013562ffffff81168114610bcc57600080fd5b925061036060df1982011215610be157600080fd5b5060e0890190509295985092959890939650565b806103008101831015610c0757600080fd5b92915050565b60008060008060008060006103c0888a031215610c2957600080fd5b8735610c34816109e7565b96506020880135610c44816109e7565b955060408801359450606088013593506080880135925060a08801359150610c6f8960c08a01610bf5565b905092959891949750929550565b6000806000806000806103a08789031215610c9757600080fd5b8635610ca2816109e7565b955060208701359450604087013593506060870135925060808701359150610ccd8860a08901610bf5565b90509295509295509295565b600060208284031215610ceb57600080fd5b5051919050565b600060208284031215610d0457600080fd5b81518015158114610a2c57600080fd5b634e487b7160e01b600052603260045260246000fd5b6001600160a01b0392831681529116602082015260400190565b8035825260208082013590830152604080820135908301526103006060808301908401375050565b83516001600160a01b0390811682526020808601518216908301526040808601518216908301526060808601518216908301526080808601519083015260a0808601519083015260c08086015162ffffff1690830152831660e08201526104608101610ddc610100830184610d44565b949350505050565b6001600160a01b0387168152602081018690526040810185905260608101849052608081018390526103a081016103008360a0840137979650505050505050565b600061038082019050868252856020830152846040830152836060830152610300836080840137969550505050505056fe60c060405234801561001057600080fd5b50604051611a23380380611a2383398101604081905261002f916100bb565b6001600160a01b0382166080526040518290829061004c90610092565b604051809103906000f080158015610068573d6000803e3d6000fd5b50600080546001600160a01b0319166001600160a01b039283161790551660a052506100ee915050565b6106db8061134883390190565b80516001600160a01b03811681146100b657600080fd5b919050565b600080604083850312156100ce57600080fd5b6100d78361009f565b91506100e56020840161009f565b90509250929050565b60805160a0516112066101426000396000818161023e015281816104870152610545015260008181608d0152818160db0152818161087d0152818161090701528181610a220152610a7901526112066000f3fe6080604052600436106100765760003560e01c806338d52e0f1461007b5780635c222bad146100cc5780636208d953146100ff57806386ea04361461012157806389b97d0914610151578063affed0e014610171578063bb7df05214610195578063d21e82ab146101b5578063e2bbb158146101e5575b600080fd5b34801561008757600080fd5b506100af7f000000000000000000000000000000000000000000000000000000000000000081565b6040516001600160a01b0390911681526020015b60405180910390f35b3480156100d857600080fd5b507f00000000000000000000000000000000000000000000000000000000000000006100af565b34801561010b57600080fd5b5061011f61011a366004610e05565b6101f8565b005b34801561012d57600080fd5b5061014161013c366004610f00565b61044b565b60405190151581526020016100c3565b34801561015d57600080fd5b5061011f61016c366004610f4b565b61050b565b34801561017d57600080fd5b5061018760025481565b6040519081526020016100c3565b3480156101a157600080fd5b506000546100af906001600160a01b031681565b3480156101c157600080fd5b506101416101d0366004610fa7565b60016020526000908152604090205460ff1681565b6101876101f3366004610fc0565b6106ee565b604080516080808201835285015181528235602080830182905283850135838501528401356060808401919091529251631860fdad60e21b815290926001600160a01b037f00000000000000000000000000000000000000000000000000000000000000001691636183f6b49161027791908701908590600401610fe2565b602060405180830381865afa158015610294573d6000803e3d6000fd5b505050506040513d601f19601f820116820180604052508101906102b8919061101f565b6102d5576040516303b2487b60e11b815260040160405180910390fd5b60208084013560009081526001909152604090205460ff161561030b5760405163b115d85760e01b815260040160405180910390fd5b60208381013560009081526001918290526040808220805460ff19169093179092555481516390b5561d60e01b81529185013560048301526001600160a01b0316906390b5561d906024016020604051808303816000875af1158015610375573d6000803e3d6000fd5b505050506040513d601f19601f820116820180604052508101906103999190611048565b506103a4848661085f565b606085810180516040805189516001600160a01b0390811682526020808c0151821681840152838c015182168385015294518116958201959095526080808b01519082015260a0808b01519082015260c0808b015162ffffff16908201529287013560e084015286810135610100840152519216917f77c79fadfed5458292460ed9525b3bd4ae17631324e690d2a6335bfa064c1400918190036101200190a25050505050565b6040805160808101825286815260208101869052808201849052606081018590529051631860fdad60e21b815260009186916001600160a01b037f00000000000000000000000000000000000000000000000000000000000000001690636183f6b4906104be9087908590600401610fe2565b602060405180830381865afa1580156104db573d6000803e3d6000fd5b505050506040513d601f19601f820116820180604052508101906104ff919061101f565b98975050505050505050565b6040805160808101825286815260208101869052808201849052606081018590529051631860fdad60e21b81528591906001600160a01b037f00000000000000000000000000000000000000000000000000000000000000001690636183f6b49061057c9086908590600401610fe2565b602060405180830381865afa158015610599573d6000803e3d6000fd5b505050506040513d601f19601f820116820180604052508101906105bd919061101f565b6105da576040516303b2487b60e11b815260040160405180910390fd5b60008581526001602052604090205460ff161561060a5760405163b115d85760e01b815260040160405180910390fd5b6000858152600160208190526040808320805460ff1916909217909155905490516390b5561d60e01b8152600481018690526001600160a01b03909116906390b5561d906024016020604051808303816000875af1158015610670573d6000803e3d6000fd5b505050506040513d601f19601f820116820180604052508101906106949190611048565b5061069f8888610a15565b876001600160a01b03167f75e161b3e824b114fc1a33274bd7091918dd4e639cede50b78b15a4eea956a218887876040516106dc93929190611061565b60405180910390a25050505050505050565b60008083116107105760405163fe9ba5cd60e01b815260040160405180910390fd5b604080518082018252848152602081018490529051632b0aac7f60e11b815273__$75f79a42d9bcbdbb69ad79ebd80f556f39$__9163561558fe916107589190600401611077565b602060405180830381865af4158015610775573d6000803e3d6000fd5b505050506040513d601f19601f820116820180604052508101906107999190611048565b6000546040516390b5561d60e01b8152600481018390529192506001600160a01b0316906390b5561d906024016020604051808303816000875af11580156107e5573d6000803e3d6000fd5b505050506040513d601f19601f820116820180604052508101906108099190611048565b506108143384610a4d565b336001600160a01b03167f91ede45f04a37a7c170f5c1207df3b6bc748dc1e04ad5e917a241d0f52feada384838560405161085193929190611061565b60405180910390a292915050565b608081015160405163095ea7b360e01b815283916001600160a01b037f0000000000000000000000000000000000000000000000000000000000000000169163095ea7b3916108b3918591906004016110a8565b6020604051808303816000875af11580156108d2573d6000803e3d6000fd5b505050506040513d601f19601f820116820180604052508101906108f6919061101f565b5060006040518061010001604052807f00000000000000000000000000000000000000000000000000000000000000006001600160a01b0316815260200184604001516001600160a01b031681526020018460c0015162ffffff16815260200184606001516001600160a01b0316815260200142603c61097691906110c1565b8152602001846080015181526020018460a00151815260200160006001600160a01b03168152509050816001600160a01b031663414bf389826040518263ffffffff1660e01b81526004016109cb91906110e2565b6020604051808303816000875af11580156109ea573d6000803e3d6000fd5b505050506040513d601f19601f82011682018060405250810190610a0e9190611048565b5050505050565b610a496001600160a01b037f0000000000000000000000000000000000000000000000000000000000000000168383610aa1565b5050565b3415610a6c576040516323c6a28760e21b815260040160405180910390fd5b610a496001600160a01b037f000000000000000000000000000000000000000000000000000000000000000016833084610afc565b610af78363a9059cbb60e01b8484604051602401610ac09291906110a8565b60408051601f198184030181529190526020810180516001600160e01b03166001600160e01b031990931692909217909152610b3a565b505050565b6040516001600160a01b0380851660248301528316604482015260648101829052610b349085906323b872dd60e01b90608401610ac0565b50505050565b6000610b8f826040518060400160405280602081526020017f5361666545524332303a206c6f772d6c6576656c2063616c6c206661696c6564815250856001600160a01b0316610c149092919063ffffffff16565b9050805160001480610bb0575080806020019051810190610bb0919061101f565b610af75760405162461bcd60e51b815260206004820152602a60248201527f5361666545524332303a204552433230206f7065726174696f6e20646964206e6044820152691bdd081cdd58d8d9595960b21b60648201526084015b60405180910390fd5b6060610c238484600085610c2b565b949350505050565b606082471015610c8c5760405162461bcd60e51b815260206004820152602660248201527f416464726573733a20696e73756666696369656e742062616c616e636520666f6044820152651c8818d85b1b60d21b6064820152608401610c0b565b600080866001600160a01b03168587604051610ca89190611181565b60006040518083038185875af1925050503d8060008114610ce5576040519150601f19603f3d011682016040523d82523d6000602084013e610cea565b606091505b5091509150610cfb87838387610d06565b979650505050505050565b60608315610d75578251600003610d6e576001600160a01b0385163b610d6e5760405162461bcd60e51b815260206004820152601d60248201527f416464726573733a2063616c6c20746f206e6f6e2d636f6e74726163740000006044820152606401610c0b565b5081610c23565b610c238383815115610d8a5781518083602001fd5b8060405162461bcd60e51b8152600401610c0b919061119d565b6001600160a01b03169052565b6001600160a01b0381168114610dc657600080fd5b50565b8035610dd481610db1565b919050565b803562ffffff81168114610dd457600080fd5b60006103608284031215610dff57600080fd5b50919050565b6000806000838503610460811215610e1c57600080fd5b60e0811215610e2a57600080fd5b5060405160e081016001600160401b0381118282101715610e5b57634e487b7160e01b600052604160045260246000fd5b604052610e6785610dc9565b8152610e7560208601610dc9565b6020820152610e8660408601610dc9565b6040820152610e9760608601610dc9565b60608201526080858101359082015260a08086013590820152610ebc60c08601610dd9565b60c08201529250610ecf60e08501610dc9565b9150610edf856101008601610dec565b90509250925092565b806103008101831015610efa57600080fd5b92915050565b60008060008060006103808688031215610f1957600080fd5b85359450602086013593506040860135925060608601359150610f3f8760808801610ee8565b90509295509295909350565b6000806000806000806103a08789031215610f6557600080fd5b8635610f7081610db1565b955060208701359450604087013593506060870135925060808701359150610f9b8860a08901610ee8565b90509295509295509295565b600060208284031215610fb957600080fd5b5035919050565b60008060408385031215610fd357600080fd5b50508035926020909101359150565b610380810161030084833761030082018360005b6004811015611015578151835260209283019290910190600101610ff6565b5050509392505050565b60006020828403121561103157600080fd5b8151801515811461104157600080fd5b9392505050565b60006020828403121561105a57600080fd5b5051919050565b9283526020830191909152604082015260600190565b60408101818360005b600281101561109f578151835260209283019290910190600101611080565b50505092915050565b6001600160a01b03929092168252602082015260400190565b80820180821115610efa57634e487b7160e01b600052601160045260246000fd5b81516001600160a01b0390811682526020808401519091169082015260408083015162ffffff169082015260608083015161010083019161112590840182610da4565b506080830151608083015260a083015160a083015260c083015160c083015260e083015161115660e0840182610da4565b5092915050565b60005b83811015611178578181015183820152602001611160565b50506000910152565b6000825161119381846020870161115d565b9190910192915050565b60208152600082518060208401526111bc81604085016020870161115d565b601f01601f1916919091016040019291505056fea264697066735822122070b36a3fb567c1fed7abe95908752ef9b3606eee42dc281dec1fe6b1225ec9df64736f6c634300081c00336080604052348015600f57600080fd5b506106bc8061001f6000396000f3fe608060405234801561001057600080fd5b50600436106100a45760003560e01c8063081dc681146100a9578063367506ef146100dc5780635ca1e165146100e357806376a5cef3146100eb57806390b5561d1461010e57806390eeb02b14610121578063949d225d14610146578063a27154ba1461014f578063cccf7a8e14610157578063cd87a3b41461016a578063d455a79d14610172578063de8fa43114610192575b600080fd5b6100c96100b7366004610510565b60026020526000908152604090205481565b6040519081526020015b60405180910390f35b60206100c9565b6100c961019a565b6100fe6100f936600461053d565b6101ac565b60405190151581526020016100d3565b6100c961011c36600461053d565b610221565b6003546101319063ffffffff1681565b60405163ffffffff90911681526020016100d3565b6100c960015481565b610131602081565b6100fe61016536600461053d565b610343565b610131606481565b6100c961018036600461053d565b60006020819052908152604090205481565b6001546100c9565b60006101a7600154610381565b905090565b6000816000036101be57506000919050565b60035463ffffffff1660005b606463ffffffff821610156102175763ffffffff8216600090815260026020526040902054849003610200575060019392505050565b60646063830163ffffffff160691506001016101ca565b5060009392505050565b600154600090600160201b1161024a57604051633977650160e01b815260040160405180910390fd5b6001805460009081526020819052604081208490558154919061026c83610582565b919050555061027c600154610381565b6003805491925063ffffffff9091169060006102978361059b565b91906101000a81548163ffffffff021916908363ffffffff1602179055505080600260006064600360009054906101000a900463ffffffff166102da91906105c0565b63ffffffff168152602081019190915260400160002055600180547fcb249c8292372bd11f567786635483fca9e635030baafca55ff1a8940141d22191610320916105e8565b6040805191825260208201859052810183905260600160405180910390a1919050565b6000805b600154811015610378576000818152602081905260409020548390036103705750600192915050565b600101610347565b50600092915050565b60008160000361039357506000919050565b60006103a06001846105e8565b6000818152602081905260408120549192505b602063ffffffff821610156105085760006103cf600285610601565b6000036103e8576103e1846001610615565b90506103f6565b6103f36001856105e8565b90505b6000868210610406576000610416565b6000828152602081905260409020545b9050600080610426600288610601565b60000361043757508490508161043d565b50819050845b604080518082018252838152602081018390529051632b0aac7f60e11b815273__$75f79a42d9bcbdbb69ad79ebd80f556f39$__9163561558fe916104859190600401610628565b602060405180830381865af41580156104a2573d6000803e3d6000fd5b505050506040513d601f19601f820116820180604052508101906104c69190610659565b95506104d3600288610672565b965060018911156104f85760026104eb8a6001610615565b6104f59190610672565b98505b5050600190920191506103b39050565b509392505050565b60006020828403121561052257600080fd5b813563ffffffff8116811461053657600080fd5b9392505050565b60006020828403121561054f57600080fd5b5035919050565b634e487b7160e01b600052601260045260246000fd5b634e487b7160e01b600052601160045260246000fd5b6000600182016105945761059461056c565b5060010190565b600063ffffffff821663ffffffff81036105b7576105b761056c565b60010192915050565b600063ffffffff8316806105d6576105d6610556565b8063ffffffff84160691505092915050565b818103818111156105fb576105fb61056c565b92915050565b60008261061057610610610556565b500690565b808201808211156105fb576105fb61056c565b60408101818360005b6002811015610650578151835260209283019290910190600101610631565b50505092915050565b60006020828403121561066b57600080fd5b5051919050565b60008261068157610681610556565b50049056fea26469706673582212203ed4f54b5c3ac97ec16932b851c3884fd4ebd0fd8ffb40f2214c8a681a48654064736f6c634300081c003360c060405234801561001057600080fd5b5060405161164038038061164083398101604081905261002f916100bb565b6001600160a01b0382166080526040518290829061004c90610092565b604051809103906000f080158015610068573d6000803e3d6000fd5b50600080546001600160a01b0319166001600160a01b039283161790551660a052506100ee915050565b6106db80610f6583390190565b80516001600160a01b03811681146100b657600080fd5b919050565b600080604083850312156100ce57600080fd5b6100d78361009f565b91506100e56020840161009f565b90509250929050565b60805160a051610e3f61012660003960008181610271015281816104ba01526105780152600081816098015260e60152610e3f6000f3fe6080604052600436106100815760003560e01c806338d52e0f146100865780635c222bad146100d75780636208d9531461010a57806386ea04361461012c57806389b97d091461015c578063ad5c46481461017c578063affed0e0146101a4578063bb7df052146101c8578063d21e82ab146101e8578063e2bbb15814610218575b600080fd5b34801561009257600080fd5b506100ba7f000000000000000000000000000000000000000000000000000000000000000081565b6040516001600160a01b0390911681526020015b60405180910390f35b3480156100e357600080fd5b507f00000000000000000000000000000000000000000000000000000000000000006100ba565b34801561011657600080fd5b5061012a610125366004610aaf565b61022b565b005b34801561013857600080fd5b5061014c610147366004610baa565b61047e565b60405190151581526020016100ce565b34801561016857600080fd5b5061012a610177366004610bf5565b61053e565b34801561018857600080fd5b506100ba73fff9976782d46cc05630d1f6ebab18b2324d6b1481565b3480156101b057600080fd5b506101ba60025481565b6040519081526020016100ce565b3480156101d457600080fd5b506000546100ba906001600160a01b031681565b3480156101f457600080fd5b5061014c610203366004610c51565b60016020526000908152604090205460ff1681565b6101ba610226366004610c6a565b610721565b604080516080808201835285015181528235602080830182905283850135838501528401356060808401919091529251631860fdad60e21b815290926001600160a01b037f00000000000000000000000000000000000000000000000000000000000000001691636183f6b4916102aa91908701908590600401610c8c565b602060405180830381865afa1580156102c7573d6000803e3d6000fd5b505050506040513d601f19601f820116820180604052508101906102eb9190610cc9565b610308576040516303b2487b60e11b815260040160405180910390fd5b60208084013560009081526001909152604090205460ff161561033e5760405163b115d85760e01b815260040160405180910390fd5b60208381013560009081526001918290526040808220805460ff19169093179092555481516390b5561d60e01b81529185013560048301526001600160a01b0316906390b5561d906024016020604051808303816000875af11580156103a8573d6000803e3d6000fd5b505050506040513d601f19601f820116820180604052508101906103cc9190610cf2565b506103d78486610892565b606085810180516040805189516001600160a01b0390811682526020808c0151821681840152838c015182168385015294518116958201959095526080808b01519082015260a0808b01519082015260c0808b015162ffffff16908201529287013560e084015286810135610100840152519216917f77c79fadfed5458292460ed9525b3bd4ae17631324e690d2a6335bfa064c1400918190036101200190a25050505050565b6040805160808101825286815260208101869052808201849052606081018590529051631860fdad60e21b815260009186916001600160a01b037f00000000000000000000000000000000000000000000000000000000000000001690636183f6b4906104f19087908590600401610c8c565b602060405180830381865afa15801561050e573d6000803e3d6000fd5b505050506040513d601f19601f820116820180604052508101906105329190610cc9565b98975050505050505050565b6040805160808101825286815260208101869052808201849052606081018590529051631860fdad60e21b81528591906001600160a01b037f00000000000000000000000000000000000000000000000000000000000000001690636183f6b4906105af9086908590600401610c8c565b602060405180830381865afa1580156105cc573d6000803e3d6000fd5b505050506040513d601f19601f820116820180604052508101906105f09190610cc9565b61060d576040516303b2487b60e11b815260040160405180910390fd5b60008581526001602052604090205460ff161561063d5760405163b115d85760e01b815260040160405180910390fd5b6000858152600160208190526040808320805460ff1916909217909155905490516390b5561d60e01b8152600481018690526001600160a01b03909116906390b5561d906024016020604051808303816000875af11580156106a3573d6000803e3d6000fd5b505050506040513d601f19601f820116820180604052508101906106c79190610cf2565b506106d288886109b1565b876001600160a01b03167f75e161b3e824b114fc1a33274bd7091918dd4e639cede50b78b15a4eea956a2188878760405161070f93929190610d0b565b60405180910390a25050505050505050565b60008083116107435760405163fe9ba5cd60e01b815260040160405180910390fd5b604080518082018252848152602081018490529051632b0aac7f60e11b815273__$75f79a42d9bcbdbb69ad79ebd80f556f39$__9163561558fe9161078b9190600401610d21565b602060405180830381865af41580156107a8573d6000803e3d6000fd5b505050506040513d601f19601f820116820180604052508101906107cc9190610cf2565b6000546040516390b5561d60e01b8152600481018390529192506001600160a01b0316906390b5561d906024016020604051808303816000875af1158015610818573d6000803e3d6000fd5b505050506040513d601f19601f8201168201806040525081019061083c9190610cf2565b506108473384610a2a565b336001600160a01b03167f91ede45f04a37a7c170f5c1207df3b6bc748dc1e04ad5e917a241d0f52feada384838560405161088493929190610d0b565b60405180910390a292915050565b6000829050600060405180610100016040528084602001516001600160a01b0316815260200184604001516001600160a01b031681526020018460c0015162ffffff16815260200184606001516001600160a01b0316815260200142603c6108fa9190610d52565b8152608085018051602083015260a086015160408084019190915260006060909301929092525185519151632e53a76d60e01b81529293506001600160a01b03851692632e53a76d926109679173fff9976782d46cc05630d1f6ebab18b2324d6b14908790600401610d73565b60206040518083038185885af1158015610985573d6000803e3d6000fd5b50505050506040513d601f19601f820116820180604052508101906109aa9190610cf2565b5050505050565b6000826001600160a01b03168260405160006040518083038185875af1925050503d80600081146109fe576040519150601f19603f3d011682016040523d82523d6000602084013e610a03565b606091505b5050905080610a2557604051633d2cec6f60e21b815260040160405180910390fd5b505050565b803414610a4a576040516355e97b0d60e01b815260040160405180910390fd5b5050565b6001600160a01b03169052565b6001600160a01b0381168114610a7057600080fd5b50565b8035610a7e81610a5b565b919050565b803562ffffff81168114610a7e57600080fd5b60006103608284031215610aa957600080fd5b50919050565b6000806000838503610460811215610ac657600080fd5b60e0811215610ad457600080fd5b5060405160e081016001600160401b0381118282101715610b0557634e487b7160e01b600052604160045260246000fd5b604052610b1185610a73565b8152610b1f60208601610a73565b6020820152610b3060408601610a73565b6040820152610b4160608601610a73565b60608201526080858101359082015260a08086013590820152610b6660c08601610a83565b60c08201529250610b7960e08501610a73565b9150610b89856101008601610a96565b90509250925092565b806103008101831015610ba457600080fd5b92915050565b60008060008060006103808688031215610bc357600080fd5b85359450602086013593506040860135925060608601359150610be98760808801610b92565b90509295509295909350565b6000806000806000806103a08789031215610c0f57600080fd5b8635610c1a81610a5b565b955060208701359450604087013593506060870135925060808701359150610c458860a08901610b92565b90509295509295509295565b600060208284031215610c6357600080fd5b5035919050565b60008060408385031215610c7d57600080fd5b50508035926020909101359150565b610380810161030084833761030082018360005b6004811015610cbf578151835260209283019290910190600101610ca0565b5050509392505050565b600060208284031215610cdb57600080fd5b81518015158114610ceb57600080fd5b9392505050565b600060208284031215610d0457600080fd5b5051919050565b9283526020830191909152604082015260600190565b60408101818360005b6002811015610d49578151835260209283019290910190600101610d2a565b50505092915050565b80820180821115610ba457634e487b7160e01b600052601160045260246000fd5b6001600160a01b03848116825283811660208084019190915283518216604080850191909152908401519091166060808401919091529083015162ffffff166080830152820151610140820190610dcd60a0840182610a4e565b50608083015160c083015260a083015160e083015260c083015161010083015260e0830151610e00610120840182610a4e565b5094935050505056fea26469706673582212202e4e697f62a35836e102717c2f30ea8bba5e757c1fde61156c9c349520b6998f64736f6c634300081c00336080604052348015600f57600080fd5b506106bc8061001f6000396000f3fe608060405234801561001057600080fd5b50600436106100a45760003560e01c8063081dc681146100a9578063367506ef146100dc5780635ca1e165146100e357806376a5cef3146100eb57806390b5561d1461010e57806390eeb02b14610121578063949d225d14610146578063a27154ba1461014f578063cccf7a8e14610157578063cd87a3b41461016a578063d455a79d14610172578063de8fa43114610192575b600080fd5b6100c96100b7366004610510565b60026020526000908152604090205481565b6040519081526020015b60405180910390f35b60206100c9565b6100c961019a565b6100fe6100f936600461053d565b6101ac565b60405190151581526020016100d3565b6100c961011c36600461053d565b610221565b6003546101319063ffffffff1681565b60405163ffffffff90911681526020016100d3565b6100c960015481565b610131602081565b6100fe61016536600461053d565b610343565b610131606481565b6100c961018036600461053d565b60006020819052908152604090205481565b6001546100c9565b60006101a7600154610381565b905090565b6000816000036101be57506000919050565b60035463ffffffff1660005b606463ffffffff821610156102175763ffffffff8216600090815260026020526040902054849003610200575060019392505050565b60646063830163ffffffff160691506001016101ca565b5060009392505050565b600154600090600160201b1161024a57604051633977650160e01b815260040160405180910390fd5b6001805460009081526020819052604081208490558154919061026c83610582565b919050555061027c600154610381565b6003805491925063ffffffff9091169060006102978361059b565b91906101000a81548163ffffffff021916908363ffffffff1602179055505080600260006064600360009054906101000a900463ffffffff166102da91906105c0565b63ffffffff168152602081019190915260400160002055600180547fcb249c8292372bd11f567786635483fca9e635030baafca55ff1a8940141d22191610320916105e8565b6040805191825260208201859052810183905260600160405180910390a1919050565b6000805b600154811015610378576000818152602081905260409020548390036103705750600192915050565b600101610347565b50600092915050565b60008160000361039357506000919050565b60006103a06001846105e8565b6000818152602081905260408120549192505b602063ffffffff821610156105085760006103cf600285610601565b6000036103e8576103e1846001610615565b90506103f6565b6103f36001856105e8565b90505b6000868210610406576000610416565b6000828152602081905260409020545b9050600080610426600288610601565b60000361043757508490508161043d565b50819050845b604080518082018252838152602081018390529051632b0aac7f60e11b815273__$75f79a42d9bcbdbb69ad79ebd80f556f39$__9163561558fe916104859190600401610628565b602060405180830381865af41580156104a2573d6000803e3d6000fd5b505050506040513d601f19601f820116820180604052508101906104c69190610659565b95506104d3600288610672565b965060018911156104f85760026104eb8a6001610615565b6104f59190610672565b98505b5050600190920191506103b39050565b509392505050565b60006020828403121561052257600080fd5b813563ffffffff8116811461053657600080fd5b9392505050565b60006020828403121561054f57600080fd5b5035919050565b634e487b7160e01b600052601260045260246000fd5b634e487b7160e01b600052601160045260246000fd5b6000600182016105945761059461056c565b5060010190565b600063ffffffff821663ffffffff81036105b7576105b761056c565b60010192915050565b600063ffffffff8316806105d6576105d6610556565b8063ffffffff84160691505092915050565b818103818111156105fb576105fb61056c565b92915050565b60008261061057610610610556565b500690565b808201808211156105fb576105fb61056c565b60408101818360005b6002811015610650578151835260209283019290910190600101610631565b50505092915050565b60006020828403121561066b57600080fd5b5051919050565b60008261068157610681610556565b50049056fea26469706673582212203ed4f54b5c3ac97ec16932b851c3884fd4ebd0fd8ffb40f2214c8a681a48654064736f6c634300081c0033a2646970667358221220bf90e092f95ca0b12e056363fd7be22a7d254666e8987d8f379f2800df35051064736f6c634300081c00336080604052348015600f57600080fd5b5061176a8061001f6000396000f3fe608060405234801561001057600080fd5b506004361061002b5760003560e01c80636183f6b414610030575b600080fd5b61004361003e3660046114cf565b610057565b604051901515815260200160405180910390f35b6000611460565b600080600184846000805b821561008b575092938183058581029091039350909181830290039081610069565b505050600181111561009c57600080fd5b505060008112156100aa5783015b9392505050565b60405181602084028301815160208301925060005b828410156100f7578185526000805160206116558339815191528451830991506020850194506020840193506100c6565b61010f6000805160206116558339815191528361005e565b91506020850394506020840393508592505b828411156101665760008051602061165583398151915285518309905060008051602061165583398151915284518309818552601f1995860195909401939150610121565b5090915250505050565b600080516020611655833981519152811061018f576000805260206000f35b50565b61019e61024435610170565b6101aa61026435610170565b6101b661028435610170565b6101c26102a435610170565b6101ce6102c435610170565b6101da6102e435610170565b565b604080516000805160206116f58339815191528152600080516020611675833981519152602080830191825260008051602061163583398151915283850190815260008051602061159583398151915260608086019182527eb45d0d6a654335fbd3f18078228ed207ad29378ac8b9045de2f98b8c76386660808088019190915260008051602061153583398151915260a08801527e38bf4875e9326c9947dc7fe41ada55de0f4499a06e0b0c9503cb0ed3770e6160c088015260008051602061155583398151915260e08801526000805160206116b58339815191526101008801526000805160206115d58339815191526101208801526000805160206115f58339815191526101408801526000805160206115758339815191526101608801526000805160206116958339815191526101808801526000805160206116d58339815191526101a08801526000805160206117158339815191526101c08801526000805160206116158339815191526101e088015289356102008801528985013561022088015289880135610240880152908901356102608701526004356102808701526024356102a08701526044356102c08701526064356102e087015260843561030087015260a43561032087015261034086206000805160206116558339815191529081900689860181815295909520819006978901978852848752965190945260c43590915260e435905290822083900680855290929091908280096102c08501528181526101043560208201526020610104013560408201526101443560608201526020610144013560808201526101843560a08201526020610184013560c082015260008051602061165583398151915260e082200691508160608501528181526102443560208201526102643560408201526102843560608201526102a43560808201526102c43560a08201526102e43560c082015260008051602061165583398151915260e08220068060c086015260008051602061165583398151915283850960a0860152600080516020611655833981519152838409925060008051602061165583398151915283840992506000805160206116558339815191528384099250600080516020611655833981519152838409925060008051602061165583398151915283840992506000805160206116558339815191528384099250600080516020611655833981519152838409925060008051602061165583398151915283840992506000805160206116558339815191528384099250600080516020611655833981519152838409925060008051602061165583398151915283840992506000805160206116558339815191528384099250600080516020611655833981519152838409925060008051602061165583398151915283840992506000805160206116558339815191528384099250826080860152600080516020611655833981519152806001850301069250826102e08601528261030086015260008051602061165583398151915281820992508260e0860152600080516020611655833981519152818409925082610100860152600080516020611655833981519152818409925082610120860152600080516020611655833981519152818409610140860152506101c43581526101e435602082015261020435604082015261022435606082015260809020600080516020611655833981519152900661016090930192909252505050565b60016000805160206116558339815191528060008051602061165583398151915283606086015103010661800009610320830152600080516020611655833981519152600080516020611515833981519152820990506000805160206116558339815191528060008051602061165583398151915283606086015103010661800009610340830152600080516020611655833981519152600080516020611515833981519152820990506000805160206116558339815191528060008051602061165583398151915283606086015103010661800009610360830152600080516020611655833981519152600080516020611515833981519152820990506000805160206116558339815191528060008051602061165583398151915283606086015103010661800009610380830152610810600561030084016100b1565b6102e0820151600191506000805160206116558339815191528161032085015109610320840152600080516020611655833981519152600080516020611515833981519152830991506000805160206116558339815191528082610340860151098309610340840152600080516020611655833981519152600080516020611515833981519152830991506000805160206116558339815191528082610360860151098309610360840152600080516020611655833981519152600080516020611515833981519152830991506000805160206116558339815191528082610380860151098309610380840152505050565b60006000805160206116558339815191528060008051602061165583398151915260008601356103208601510983030106905060008051602061165583398151915280600080516020611655833981519152602086013561034086015109830301069050600080516020611655833981519152806000805160206116558339815191526040860135610360860151098303010690506000805160206116558339815191528060008051602061165583398151915260608601356103808601510983030106905080610180830152505050565b6101808101516000805160206116558339815191526102c083015161032084015109600080516020611655833981519152806102a4356020860151096102443508600080516020611655833981519152604085015182089050600080516020611655833981519152806102c4356020870151096102643508600080516020611655833981519152604086015182089050600080516020611655833981519152604086015161028435086000805160206116558339815191528160008051602061165583398151915284860909925050506000805160206116558339815191526102e43582099050600080516020611655833981519152600085015182099050600080516020611655833981519152808360008051602061165583398151915203068408925060008051602061165583398151915280826000805160206116558339815191520306840892505050806101a08301525050565b81358152602091820135910152565b6040518151815260208201516020820152825160408201526020830151606082015260408260808360066107d05a03fa905080610b7c576000805260206000f35b505050565b50505050565b600060405183815284602082015285604082015260408160608360076107d05a03fa915081610bba576000805260206000f35b825160408201526020830151606082015260408360808360066107d05a03fa91505080610beb576000805260206000f35b5050505050565b600060405183815284602082015285604082015260408360608360076107d05a03fa91505080610beb576000805260206000f35b610b7c836020840151845184610bf2565b6101c0810160408201516040516101008101604052610c776000805160206115d58339815191526000805160206116b58339815191528590815260200152565b610cb66000805160206116558339815191526102643561024435096000805160206116758339815191526000805160206116f583398151915286610b87565b610ce16102443560008051602061159583398151915260008051602061163583398151915286610b87565b610d1d610264356000805160206115358339815191527eb45d0d6a654335fbd3f18078228ed207ad29378ac8b9045de2f98b8c76386686610b87565b610d59610284356000805160206115558339815191527e38bf4875e9326c9947dc7fe41ada55de0f4499a06e0b0c9503cb0ed3770e6186610b87565b60a08401516000805160206116558339815191528360008051602061165583398151915283610244350808600080516020611655833981519152846000805160206116558339815191528060028609610264350808600080516020611655833981519152856000805160206116558339815191528060038709610284350808925060008051602061165583398151915260008801516000805160206116558339815191528560008051602061165583398151915285870909096000805160206116558339815191526102c08901516103208a015109610e3c60c460c08801610b2c565b610e716000805160206116558339815191526101608b01516000805160206116558339815191528486080860c0880188610c26565b505060008051602061165583398151915285600080516020611655833981519152806102a43560208c015109610244350808915060008051602061165583398151915285600080516020611655833981519152806102c43560208c01510961026435080890506000805160206116558339815191526102e43560008051602061165583398151915260208a015160008b015109099250610f54600080516020611655833981519152846000805160206116558339815191528486090960008051602061161583398151915260008051602061171583398151915260408801610bf2565b505050610f6661010460808301610b2c565b610f826080850151602061014401356101443560808501610b87565b60808401516000805160206116558339815191529080099150610fb0826101a4356101843560808501610b87565b610fcc6102e085015160a0830151608084015160808501610bf2565b6000805160206115b583398151915260206040830101516000805160206115b5833981519152030660206040830101526000805160206115b583398151915260a08201516000805160206115b5833981519152030660a08201526110308184610b3b565b61103d6040820184610b3b565b610b816080820184610b3b565b6101c081015161020082019081526101e082015161022083015260c08201516110799060243560043584610b87565b60e082015161108e9060643560443584610b87565b6101008201516110a49060a43560843584610b87565b6110d16101208301516000805160206115758339815191526000805160206115f583398151915284610b87565b6110fe6101408301516000805160206116d583398151915260008051602061169583398151915284610b87565b5050565b6000805160206116558339815191526101a082015160008051602061165583398151915203066000805160206116558339815191528060c08401516102443509820890506000805160206116558339815191528060e084015161026435098208905060008051602061165583398151915280610100840151610284350982089050600080516020611655833981519152806101208401516102a4350982089050600080516020611655833981519152806101408401516102c4350982089050600080516020611655833981519152806101608401516102e43509820890506110fe81600260016102408601610bf2565b6000604051610240810160405261018081016101c08201610200830161121a6101c484610b2c565b61122661020483610b2c565b6112366101608701518386610c26565b6112408385610b3b565b6000805160206115b583398151915260208501516000805160206115b5833981519152030660208501527f26186a2d65ee4d2f9c9a5b91f86597d35f192cd120caf7e935d8443d1938e23d60408501527f30441fd1b5d3370482c42152a8899027716989a6996c2535bc9f7fee8aaef79e60608501527f1970ea81dd6992adfbc571effb03503adbbb6a857f578403c6c40e22d65b3c0260808501527f054793348f12c0cf5622c340573cb277586319de359ab9389778f689786b1e4860a085015261131460608701518460c08701610c26565b60008051602061165583398151915260608701516101608801510992506000805160206116558339815191526000805160206115158339815191528409925061135e838383610c26565b61136b8160c08601610b3b565b50505061137f610200840160c08301610b3b565b610260830180516000805160206115b58339815191529081030690526113ac610240840160c08301610b3b565b7f198e9393920d483a7260bfb731fb5d25f1aa493335a9e71297e485b7aef312c26101008201527f1800deef121f1e76426a00665e5c4479674322d4f75edadd46debd5cd992f6ed6101208201527f090689d0585ff075ec9e99ad690c3395bc4b313370b38ef355acdadcd122975b6101408201527f12c85ea5db8c6deb4aab71808dcb408fe3d1e7690c43d37b4ce6cc0166fa7daa6101608201526020816101808360086107d05a03fa90511692915050565b6040516103a08101604052611473610192565b61147d83826101dc565b611486816106d1565b6114908382610902565b611499816109d4565b6114a281610c37565b6114ab8161104a565b6114b481611102565b6114bd816111f2565b6103a082036040528060005260206000f35b60008061038083850312156114e357600080fd5b6103008301848111156114f557600080fd5b839250846103808501111561150957600080fd5b80915050925092905056fe2d1ba66f5941dc91017171fa69ec2bd0022a2a2d4115a009a93458fd4e26ecfb1c3f0ab6aad2092981fe39d59f0138ad83c6ac564efebad5320eda6a06a7f977028f005be567407733fd4415261e102cb131ab4dfc9e130d7df4c82d47bd0b371095554aa398228ec11f6fe9e7a018ae498c72a73da43b443052281fc7432bc711ad887869746fc00f83d60ba1e7176bbd2048cd1ddeeba6639a02ee6e033acd30644e72e131a029b85045b68181585d97816a916871ca8d3c208c16d87cfd47095d12a23430ef4a64c329b9af841fa9933b68e9abf27c5dae570ebf59d23da01f61d8a9e01f214bbc77593207430a3ce6e979f18933b2410d2d5cb37f5ef89918276c02abe716973fd3aeef389ea67929302e586332e9b4c5c5b3d690d8f6962449b96a9db26c11c4efdde9128a1f6886def1262abcdb728793ba0d3c03d97330644e72e131a029b85045b68181585d2833e84879b9709143e1f593f0000001155035917b6435159b67f1005532735bc8380a00167522f6e85d37a354d696281aa4b781cfcbc95707d093cd0bdb02f670af59eb580e7cc59f6995763a9c0b1e2f4ee20fd1a6fba41bee70170910585c1c3f6cab200fd6895028395f4a3f9e19104f837128bfdadf2dca18fb80fa1479523702cf827469f2c405b2d0b916d29f199f94f086c6c045d379114eef2f7ffbaf5c92cab2b384f8752acbfa8971bedb0f24bc1b1c824d3e091458f600cd2b210bc7464ea77775ae02ec6b8da0dda664a2646970667358221220508465f1abe413b93f53aaf7b96db190b810622f5386b36d7e31c2765404353364736f6c634300081c0033",
  "linkReferences": {
    "poseidon-solidity/PoseidonT3.sol": {
      "PoseidonT3": [
        {
          "length": 20,
          "start": 6144
        },
        {
          "length": 20,
          "start": 10066
        },
        {
          "length": 20,
          "start": 12858
        },
        {
          "length": 20,
          "start": 15762
        }
      ]
    }
  },
  "deployedLinkReferences": {
    "poseidon-solidity/PoseidonT3.sol": {
      "PoseidonT3": [
        {
          "length": 20,
          "start": 5834
        },
        {
          "length": 20,
          "start": 9756
        },
        {
          "length": 20,
          "start": 12548
        },
        {
          "length": 20,
          "start": 15452
        }
      ]
    }
  }
}