{"src/states/MerkleTree.sol":{"MerkleTree":{"abi":[{"inputs":[],"name":"MaxDepthReached","type":"error"},{"anonymous":false,"inputs":[{"indexed":false,"internalType":"uint256","name":"_index","type":"uint256"},{"indexed":false,"internalType":"uint256","name":"_leaf","type":"uint256"},{"indexed":false,"internalType":"uint256","name":"_root","type":"uint256"}],"name":"LeafInserted","type":"event"},{"inputs":[],"name":"MAX_DEPTH","outputs":[{"internalType":"uint32","name":"","type":"uint32"}],"stateMutability":"view","type":"function"},{"inputs":[],"name":"ROOT_HISTORY_SIZE","outputs":[{"internalType":"uint32","name":"","type":"uint32"}],"stateMutability":"view","type":"function"},{"inputs":[],"name":"currentRootIndex","outputs":[{"internalType":"uint32","name":"","type":"uint32"}],"stateMutability":"view","type":"function"},{"inputs":[],"name":"getDepth","outputs":[{"internalType":"uint256","name":"","type":"uint256"}],"stateMutability":"view","type":"function"},{"inputs":[],"name":"getRoot","outputs":[{"internalType":"uint256","name":"","type":"uint256"}],"stateMutability":"view","type":"function"},{"inputs":[],"name":"getSize","outputs":[{"internalType":"uint256","name":"","type":"uint256"}],"stateMutability":"view","type":"function"},{"inputs":[{"internalType":"uint256","name":"_leaf","type":"uint256"}],"name":"has","outputs":[{"internalType":"bool","name":"","type":"bool"}],"stateMutability":"view","type":"function"},{"inputs":[{"internalType":"uint256","name":"_leaf","type":"uint256"}],"name":"insert","outputs":[{"internalType":"uint256","name":"_newRoot","type":"uint256"}],"stateMutability":"nonpayable","type":"function"},{"inputs":[{"internalType":"uint256","name":"_root","type":"uint256"}],"name":"rootExists","outputs":[{"internalType":"bool","name":"","type":"bool"}],"stateMutability":"view","type":"function"},{"inputs":[{"internalType":"uint32","name":"_index","type":"uint32"}],"name":"roots","outputs":[{"internalType":"uint256","name":"_root","type":"uint256"}],"stateMutability":"view","type":"function"}],"evm":{"bytecode":{"linkReferences":{"@zk-kit/lean-imt.sol/LeanIMT.sol":{"LeanIMT":[{"length":20,"start":404},{"length":20,"start":716},{"length":20,"start":1036}]}},"object":"6080604052348015600f57600080fd5b506105b58061001f6000396000f3fe608060405234801561001057600080fd5b506004361061008e5760003560e01c8063081dc68114610093578063367506ef146100c65780635ca1e165146100ce57806376a5cef3146100d657806390b5561d146100f957806390eeb02b1461010c578063a27154ba14610131578063cccf7a8e14610139578063cd87a3b41461014c578063de8fa43114610154575b600080fd5b6100b36100a1366004610451565b60046020526000908152604090205481565b6040519081526020015b60405180910390f35b6001546100b3565b6100b361015c565b6100e96100e436600461047e565b6101d8565b60405190151581526020016100bd565b6100b361010736600461047e565b61026a565b60055461011c9063ffffffff1681565b60405163ffffffff90911681526020016100bd565b61011c602081565b6100e961014736600461047e565b6103cd565b61011c606481565b6000546100b3565b604051637a3e5e1d60e11b81526000600482018190529073__$99c94127c8f73905b08f2d52133ba9abca$__9063f47cbc3a90602401602060405180830381865af41580156101af573d6000803e3d6000fd5b505050506040513d601f19601f820116820180604052508101906101d39190610497565b905090565b6000816000036101ea57506000919050565b60055463ffffffff1660015b606463ffffffff8216116102605763ffffffff8216600090815260046020526040902054840361022a575060019392505050565b606480610236846104c6565b935061024290846104e6565b61024c9190610502565b91508061025881610538565b9150506101f6565b5060009392505050565b60015460009060201161029057604051633977650160e01b815260040160405180910390fd5b604051632f85497160e01b8152600060048201526024810183905273__$99c94127c8f73905b08f2d52133ba9abca$__90632f85497190604401602060405180830381865af41580156102e7573d6000803e3d6000fd5b505050506040513d601f19601f8201168201806040525081019061030b9190610497565b6005805491925063ffffffff90911690600061032683610538565b91906101000a81548163ffffffff021916908363ffffffff1602179055505080600460006064600560009054906101000a900463ffffffff166103699190610502565b63ffffffff1681526020808201929092526040908101600090812093909355915482519081529081018490529081018290527fcb249c8292372bd11f567786635483fca9e635030baafca55ff1a8940141d2219060600160405180910390a1919050565b60405163bc167a3160e01b8152600060048201819052602482018390529073__$99c94127c8f73905b08f2d52133ba9abca$__9063bc167a3190604401602060405180830381865af4158015610427573d6000803e3d6000fd5b505050506040513d601f19601f8201168201806040525081019061044b919061055d565b92915050565b60006020828403121561046357600080fd5b813563ffffffff8116811461047757600080fd5b9392505050565b60006020828403121561049057600080fd5b5035919050565b6000602082840312156104a957600080fd5b5051919050565b634e487b7160e01b600052601160045260246000fd5b600063ffffffff8216806104dc576104dc6104b0565b6000190192915050565b63ffffffff818116838216019081111561044b5761044b6104b0565b600063ffffffff83168061052657634e487b7160e01b600052601260045260246000fd5b8063ffffffff84160691505092915050565b600063ffffffff821663ffffffff8103610554576105546104b0565b60010192915050565b60006020828403121561056f57600080fd5b8151801515811461047757600080fdfea2646970667358221220768d3396a1c30ddc4f1c46b80d696b524027e2f2e48c9567cd48fcece70a092064736f6c634300081c0033","opcodes":"PUSH1 0x80 PUSH1 0x40 MSTORE CALLVALUE DUP1 ISZERO PUSH1 0xF JUMPI PUSH1 0x0 DUP1 REVERT JUMPDEST POP PUSH2 0x5B5 DUP1 PUSH2 0x1F PUSH1 0x0 CODECOPY PUSH1 0x0 RETURN INVALID PUSH1 0x80 PUSH1 0x40 MSTORE CALLVALUE DUP1 ISZERO PUSH2 0x10 JUMPI PUSH1 0x0 DUP1 REVERT JUMPDEST POP PUSH1 0x4 CALLDATASIZE LT PUSH2 0x8E JUMPI PUSH1 0x0 CALLDATALOAD PUSH1 0xE0 SHR DUP1 PUSH4 0x81DC681 EQ PUSH2 0x93 JUMPI DUP1 PUSH4 0x367506EF EQ PUSH2 0xC6 JUMPI DUP1 PUSH4 0x5CA1E165 EQ PUSH2 0xCE JUMPI DUP1 PUSH4 0x76A5CEF3 EQ PUSH2 0xD6 JUMPI DUP1 PUSH4 0x90B5561D EQ PUSH2 0xF9 JUMPI DUP1 PUSH4 0x90EEB02B EQ PUSH2 0x10C JUMPI DUP1 PUSH4 0xA27154BA EQ PUSH2 0x131 JUMPI DUP1 PUSH4 0xCCCF7A8E EQ PUSH2 0x139 JUMPI DUP1 PUSH4 0xCD87A3B4 EQ PUSH2 0x14C JUMPI DUP1 PUSH4 0xDE8FA431 EQ PUSH2 0x154 JUMPI JUMPDEST PUSH1 0x0 DUP1 REVERT JUMPDEST PUSH2 0xB3 PUSH2 0xA1 CALLDATASIZE PUSH1 0x4 PUSH2 0x451 JUMP JUMPDEST PUSH1 0x4 PUSH1 0x20 MSTORE PUSH1 0x0 SWAP1 DUP2 MSTORE PUSH1 0x40 SWAP1 KECCAK256 SLOAD DUP2 JUMP JUMPDEST PUSH1 0x40 MLOAD SWAP1 DUP2 MSTORE PUSH1 0x20 ADD JUMPDEST PUSH1 0x40 MLOAD DUP1 SWAP2 SUB SWAP1 RETURN JUMPDEST PUSH1 0x1 SLOAD PUSH2 0xB3 JUMP JUMPDEST PUSH2 0xB3 PUSH2 0x15C JUMP JUMPDEST PUSH2 0xE9 PUSH2 0xE4 CALLDATASIZE PUSH1 0x4 PUSH2 0x47E JUMP JUMPDEST PUSH2 0x1D8 JUMP JUMPDEST PUSH1 0x40 MLOAD SWAP1 ISZERO ISZERO DUP2 MSTORE PUSH1 0x20 ADD PUSH2 0xBD JUMP JUMPDEST PUSH2 0xB3 PUSH2 0x107 CALLDATASIZE PUSH1 0x4 PUSH2 0x47E JUMP JUMPDEST PUSH2 0x26A JUMP JUMPDEST PUSH1 0x5 SLOAD PUSH2 0x11C SWAP1 PUSH4 0xFFFFFFFF AND DUP2 JUMP JUMPDEST PUSH1 0x40 MLOAD PUSH4 0xFFFFFFFF SWAP1 SWAP2 AND DUP2 MSTORE PUSH1 0x20 ADD PUSH2 0xBD JUMP JUMPDEST PUSH2 0x11C PUSH1 0x20 DUP2 JUMP JUMPDEST PUSH2 0xE9 PUSH2 0x147 CALLDATASIZE PUSH1 0x4 PUSH2 0x47E JUMP JUMPDEST PUSH2 0x3CD JUMP JUMPDEST PUSH2 0x11C PUSH1 0x64 DUP2 JUMP JUMPDEST PUSH1 0x0 SLOAD PUSH2 0xB3 JUMP JUMPDEST PUSH1 0x40 MLOAD PUSH4 0x7A3E5E1D PUSH1 0xE1 SHL DUP2 MSTORE PUSH1 0x0 PUSH1 0x4 DUP3 ADD DUP2 SWAP1 MSTORE SWAP1 PUSH20 0x0 SWAP1 PUSH4 0xF47CBC3A SWAP1 PUSH1 0x24 ADD PUSH1 0x20 PUSH1 0x40 MLOAD DUP1 DUP4 SUB DUP2 DUP7 GAS DELEGATECALL ISZERO DUP1 ISZERO PUSH2 0x1AF JUMPI RETURNDATASIZE PUSH1 0x0 DUP1 RETURNDATACOPY RETURNDATASIZE PUSH1 0x0 REVERT JUMPDEST POP POP POP POP PUSH1 0x40 MLOAD RETURNDATASIZE PUSH1 0x1F NOT PUSH1 0x1F DUP3 ADD AND DUP3 ADD DUP1 PUSH1 0x40 MSTORE POP DUP2 ADD SWAP1 PUSH2 0x1D3 SWAP2 SWAP1 PUSH2 0x497 JUMP JUMPDEST SWAP1 POP SWAP1 JUMP JUMPDEST PUSH1 0x0 DUP2 PUSH1 0x0 SUB PUSH2 0x1EA JUMPI POP PUSH1 0x0 SWAP2 SWAP1 POP JUMP JUMPDEST PUSH1 0x5 SLOAD PUSH4 0xFFFFFFFF AND PUSH1 0x1 JUMPDEST PUSH1 0x64 PUSH4 0xFFFFFFFF DUP3 AND GT PUSH2 0x260 JUMPI PUSH4 0xFFFFFFFF DUP3 AND PUSH1 0x0 SWAP1 DUP2 MSTORE PUSH1 0x4 PUSH1 0x20 MSTORE PUSH1 0x40 SWAP1 KECCAK256 SLOAD DUP5 SUB PUSH2 0x22A JUMPI POP PUSH1 0x1 SWAP4 SWAP3 POP POP POP JUMP JUMPDEST PUSH1 0x64 DUP1 PUSH2 0x236 DUP5 PUSH2 0x4C6 JUMP JUMPDEST SWAP4 POP PUSH2 0x242 SWAP1 DUP5 PUSH2 0x4E6 JUMP JUMPDEST PUSH2 0x24C SWAP2 SWAP1 PUSH2 0x502 JUMP JUMPDEST SWAP2 POP DUP1 PUSH2 0x258 DUP2 PUSH2 0x538 JUMP JUMPDEST SWAP2 POP POP PUSH2 0x1F6 JUMP JUMPDEST POP PUSH1 0x0 SWAP4 SWAP3 POP POP POP JUMP JUMPDEST PUSH1 0x1 SLOAD PUSH1 0x0 SWAP1 PUSH1 0x20 GT PUSH2 0x290 JUMPI PUSH1 0x40 MLOAD PUSH4 0x39776501 PUSH1 0xE0 SHL DUP2 MSTORE PUSH1 0x4 ADD PUSH1 0x40 MLOAD DUP1 SWAP2 SUB SWAP1 REVERT JUMPDEST PUSH1 0x40 MLOAD PUSH4 0x2F854971 PUSH1 0xE0 SHL DUP2 MSTORE PUSH1 0x0 PUSH1 0x4 DUP3 ADD MSTORE PUSH1 0x24 DUP2 ADD DUP4 SWAP1 MSTORE PUSH20 0x0 SWAP1 PUSH4 0x2F854971 SWAP1 PUSH1 0x44 ADD PUSH1 0x20 PUSH1 0x40 MLOAD DUP1 DUP4 SUB DUP2 DUP7 GAS DELEGATECALL ISZERO DUP1 ISZERO PUSH2 0x2E7 JUMPI RETURNDATASIZE PUSH1 0x0 DUP1 RETURNDATACOPY RETURNDATASIZE PUSH1 0x0 REVERT JUMPDEST POP POP POP POP PUSH1 0x40 MLOAD RETURNDATASIZE PUSH1 0x1F NOT PUSH1 0x1F DUP3 ADD AND DUP3 ADD DUP1 PUSH1 0x40 MSTORE POP DUP2 ADD SWAP1 PUSH2 0x30B SWAP2 SWAP1 PUSH2 0x497 JUMP JUMPDEST PUSH1 0x5 DUP1 SLOAD SWAP2 SWAP3 POP PUSH4 0xFFFFFFFF SWAP1 SWAP2 AND SWAP1 PUSH1 0x0 PUSH2 0x326 DUP4 PUSH2 0x538 JUMP JUMPDEST SWAP2 SWAP1 PUSH2 0x100 EXP DUP2 SLOAD DUP2 PUSH4 0xFFFFFFFF MUL NOT AND SWAP1 DUP4 PUSH4 0xFFFFFFFF AND MUL OR SWAP1 SSTORE POP POP DUP1 PUSH1 0x4 PUSH1 0x0 PUSH1 0x64 PUSH1 0x5 PUSH1 0x0 SWAP1 SLOAD SWAP1 PUSH2 0x100 EXP SWAP1 DIV PUSH4 0xFFFFFFFF AND PUSH2 0x369 SWAP2 SWAP1 PUSH2 0x502 JUMP JUMPDEST PUSH4 0xFFFFFFFF AND DUP2 MSTORE PUSH1 0x20 DUP1 DUP3 ADD SWAP3 SWAP1 SWAP3 MSTORE PUSH1 0x40 SWAP1 DUP2 ADD PUSH1 0x0 SWAP1 DUP2 KECCAK256 SWAP4 SWAP1 SWAP4 SSTORE SWAP2 SLOAD DUP3 MLOAD SWAP1 DUP2 MSTORE SWAP1 DUP2 ADD DUP5 SWAP1 MSTORE SWAP1 DUP2 ADD DUP3 SWAP1 MSTORE PUSH32 0xCB249C8292372BD11F567786635483FCA9E635030BAAFCA55FF1A8940141D221 SWAP1 PUSH1 0x60 ADD PUSH1 0x40 MLOAD DUP1 SWAP2 SUB SWAP1 LOG1 SWAP2 SWAP1 POP JUMP JUMPDEST PUSH1 0x40 MLOAD PUSH4 0xBC167A31 PUSH1 0xE0 SHL DUP2 MSTORE PUSH1 0x0 PUSH1 0x4 DUP3 ADD DUP2 SWAP1 MSTORE PUSH1 0x24 DUP3 ADD DUP4 SWAP1 MSTORE SWAP1 PUSH20 0x0 SWAP1 PUSH4 0xBC167A31 SWAP1 PUSH1 0x44 ADD PUSH1 0x20 PUSH1 0x40 MLOAD DUP1 DUP4 SUB DUP2 DUP7 GAS DELEGATECALL ISZERO DUP1 ISZERO PUSH2 0x427 JUMPI RETURNDATASIZE PUSH1 0x0 DUP1 RETURNDATACOPY RETURNDATASIZE PUSH1 0x0 REVERT JUMPDEST POP POP POP POP PUSH1 0x40 MLOAD RETURNDATASIZE PUSH1 0x1F NOT PUSH1 0x1F DUP3 ADD AND DUP3 ADD DUP1 PUSH1 0x40 MSTORE POP DUP2 ADD SWAP1 PUSH2 0x44B SWAP2 SWAP1 PUSH2 0x55D JUMP JUMPDEST SWAP3 SWAP2 POP POP JUMP JUMPDEST PUSH1 0x0 PUSH1 0x20 DUP3 DUP5 SUB SLT ISZERO PUSH2 0x463 JUMPI PUSH1 0x0 DUP1 REVERT JUMPDEST DUP2 CALLDATALOAD PUSH4 0xFFFFFFFF DUP2 AND DUP2 EQ PUSH2 0x477 JUMPI PUSH1 0x0 DUP1 REVERT JUMPDEST SWAP4 SWAP3 POP POP POP JUMP JUMPDEST PUSH1 0x0 PUSH1 0x20 DUP3 DUP5 SUB SLT ISZERO PUSH2 0x490 JUMPI PUSH1 0x0 DUP1 REVERT JUMPDEST POP CALLDATALOAD SWAP2 SWAP1 POP JUMP JUMPDEST PUSH1 0x0 PUSH1 0x20 DUP3 DUP5 SUB SLT ISZERO PUSH2 0x4A9 JUMPI PUSH1 0x0 DUP1 REVERT JUMPDEST POP MLOAD SWAP2 SWAP1 POP JUMP JUMPDEST PUSH4 0x4E487B71 PUSH1 0xE0 SHL PUSH1 0x0 MSTORE PUSH1 0x11 PUSH1 0x4 MSTORE PUSH1 0x24 PUSH1 0x0 REVERT JUMPDEST PUSH1 0x0 PUSH4 0xFFFFFFFF DUP3 AND DUP1 PUSH2 0x4DC JUMPI PUSH2 0x4DC PUSH2 0x4B0 JUMP JUMPDEST PUSH1 0x0 NOT ADD SWAP3 SWAP2 POP POP JUMP JUMPDEST PUSH4 0xFFFFFFFF DUP2 DUP2 AND DUP4 DUP3 AND ADD SWAP1 DUP2 GT ISZERO PUSH2 0x44B JUMPI PUSH2 0x44B PUSH2 0x4B0 JUMP JUMPDEST PUSH1 0x0 PUSH4 0xFFFFFFFF DUP4 AND DUP1 PUSH2 0x526 JUMPI PUSH4 0x4E487B71 PUSH1 0xE0 SHL PUSH1 0x0 MSTORE PUSH1 0x12 PUSH1 0x4 MSTORE PUSH1 0x24 PUSH1 0x0 REVERT JUMPDEST DUP1 PUSH4 0xFFFFFFFF DUP5 AND MOD SWAP2 POP POP SWAP3 SWAP2 POP POP JUMP JUMPDEST PUSH1 0x0 PUSH4 0xFFFFFFFF DUP3 AND PUSH4 0xFFFFFFFF DUP2 SUB PUSH2 0x554 JUMPI PUSH2 0x554 PUSH2 0x4B0 JUMP JUMPDEST PUSH1 0x1 ADD SWAP3 SWAP2 POP POP JUMP JUMPDEST PUSH1 0x0 PUSH1 0x20 DUP3 DUP5 SUB SLT ISZERO PUSH2 0x56F JUMPI PUSH1 0x0 DUP1 REVERT JUMPDEST DUP2 MLOAD DUP1 ISZERO ISZERO DUP2 EQ PUSH2 0x477 JUMPI PUSH1 0x0 DUP1 REVERT INVALID LOG2 PUSH5 0x6970667358 0x22 SLT KECCAK256 PUSH23 0x8D3396A1C30DDC4F1C46B80D696B524027E2F2E48C9567 0xCD BASEFEE 0xFC 0xEC 0xE7 EXP MULMOD KECCAK256 PUSH5 0x736F6C6343 STOP ADDMOD SHR STOP CALLER "},"methodIdentifiers":{"MAX_DEPTH()":"a27154ba","ROOT_HISTORY_SIZE()":"cd87a3b4","currentRootIndex()":"90eeb02b","getDepth()":"367506ef","getRoot()":"5ca1e165","getSize()":"de8fa431","has(uint256)":"cccf7a8e","insert(uint256)":"90b5561d","rootExists(uint256)":"76a5cef3","roots(uint32)":"081dc681"}}}}}