{"src/verifiers/WithdrawalVerifier.sol":{"PlonkVerifier":{"abi":[{"inputs":[{"internalType":"uint256[24]","name":"_proof","type":"uint256[24]"},{"internalType":"uint256[4]","name":"_pubSignals","type":"uint256[4]"}],"name":"verifyProof","outputs":[{"internalType":"bool","name":"","type":"bool"}],"stateMutability":"view","type":"function"}],"evm":{"bytecode":{"linkReferences":{},"object":"6080604052348015600f57600080fd5b5061176a8061001f6000396000f3fe608060405234801561001057600080fd5b506004361061002b5760003560e01c80636183f6b414610030575b600080fd5b61004361003e3660046114cf565b610057565b604051901515815260200160405180910390f35b6000611460565b600080600184846000805b821561008b575092938183058581029091039350909181830290039081610069565b505050600181111561009c57600080fd5b505060008112156100aa5783015b9392505050565b60405181602084028301815160208301925060005b828410156100f7578185526000805160206116558339815191528451830991506020850194506020840193506100c6565b61010f6000805160206116558339815191528361005e565b91506020850394506020840393508592505b828411156101665760008051602061165583398151915285518309905060008051602061165583398151915284518309818552601f1995860195909401939150610121565b5090915250505050565b600080516020611655833981519152811061018f576000805260206000f35b50565b61019e61024435610170565b6101aa61026435610170565b6101b661028435610170565b6101c26102a435610170565b6101ce6102c435610170565b6101da6102e435610170565b565b604080516000805160206116f58339815191528152600080516020611675833981519152602080830191825260008051602061163583398151915283850190815260008051602061159583398151915260608086019182527eb45d0d6a654335fbd3f18078228ed207ad29378ac8b9045de2f98b8c76386660808088019190915260008051602061153583398151915260a08801527e38bf4875e9326c9947dc7fe41ada55de0f4499a06e0b0c9503cb0ed3770e6160c088015260008051602061155583398151915260e08801526000805160206116b58339815191526101008801526000805160206115d58339815191526101208801526000805160206115f58339815191526101408801526000805160206115758339815191526101608801526000805160206116958339815191526101808801526000805160206116d58339815191526101a08801526000805160206117158339815191526101c08801526000805160206116158339815191526101e088015289356102008801528985013561022088015289880135610240880152908901356102608701526004356102808701526024356102a08701526044356102c08701526064356102e087015260843561030087015260a43561032087015261034086206000805160206116558339815191529081900689860181815295909520819006978901978852848752965190945260c43590915260e435905290822083900680855290929091908280096102c08501528181526101043560208201526020610104013560408201526101443560608201526020610144013560808201526101843560a08201526020610184013560c082015260008051602061165583398151915260e082200691508160608501528181526102443560208201526102643560408201526102843560608201526102a43560808201526102c43560a08201526102e43560c082015260008051602061165583398151915260e08220068060c086015260008051602061165583398151915283850960a0860152600080516020611655833981519152838409925060008051602061165583398151915283840992506000805160206116558339815191528384099250600080516020611655833981519152838409925060008051602061165583398151915283840992506000805160206116558339815191528384099250600080516020611655833981519152838409925060008051602061165583398151915283840992506000805160206116558339815191528384099250600080516020611655833981519152838409925060008051602061165583398151915283840992506000805160206116558339815191528384099250600080516020611655833981519152838409925060008051602061165583398151915283840992506000805160206116558339815191528384099250826080860152600080516020611655833981519152806001850301069250826102e08601528261030086015260008051602061165583398151915281820992508260e0860152600080516020611655833981519152818409925082610100860152600080516020611655833981519152818409925082610120860152600080516020611655833981519152818409610140860152506101c43581526101e435602082015261020435604082015261022435606082015260809020600080516020611655833981519152900661016090930192909252505050565b60016000805160206116558339815191528060008051602061165583398151915283606086015103010661800009610320830152600080516020611655833981519152600080516020611515833981519152820990506000805160206116558339815191528060008051602061165583398151915283606086015103010661800009610340830152600080516020611655833981519152600080516020611515833981519152820990506000805160206116558339815191528060008051602061165583398151915283606086015103010661800009610360830152600080516020611655833981519152600080516020611515833981519152820990506000805160206116558339815191528060008051602061165583398151915283606086015103010661800009610380830152610810600561030084016100b1565b6102e0820151600191506000805160206116558339815191528161032085015109610320840152600080516020611655833981519152600080516020611515833981519152830991506000805160206116558339815191528082610340860151098309610340840152600080516020611655833981519152600080516020611515833981519152830991506000805160206116558339815191528082610360860151098309610360840152600080516020611655833981519152600080516020611515833981519152830991506000805160206116558339815191528082610380860151098309610380840152505050565b60006000805160206116558339815191528060008051602061165583398151915260008601356103208601510983030106905060008051602061165583398151915280600080516020611655833981519152602086013561034086015109830301069050600080516020611655833981519152806000805160206116558339815191526040860135610360860151098303010690506000805160206116558339815191528060008051602061165583398151915260608601356103808601510983030106905080610180830152505050565b6101808101516000805160206116558339815191526102c083015161032084015109600080516020611655833981519152806102a4356020860151096102443508600080516020611655833981519152604085015182089050600080516020611655833981519152806102c4356020870151096102643508600080516020611655833981519152604086015182089050600080516020611655833981519152604086015161028435086000805160206116558339815191528160008051602061165583398151915284860909925050506000805160206116558339815191526102e43582099050600080516020611655833981519152600085015182099050600080516020611655833981519152808360008051602061165583398151915203068408925060008051602061165583398151915280826000805160206116558339815191520306840892505050806101a08301525050565b81358152602091820135910152565b6040518151815260208201516020820152825160408201526020830151606082015260408260808360066107d05a03fa905080610b7c576000805260206000f35b505050565b50505050565b600060405183815284602082015285604082015260408160608360076107d05a03fa915081610bba576000805260206000f35b825160408201526020830151606082015260408360808360066107d05a03fa91505080610beb576000805260206000f35b5050505050565b600060405183815284602082015285604082015260408360608360076107d05a03fa91505080610beb576000805260206000f35b610b7c836020840151845184610bf2565b6101c0810160408201516040516101008101604052610c776000805160206115d58339815191526000805160206116b58339815191528590815260200152565b610cb66000805160206116558339815191526102643561024435096000805160206116758339815191526000805160206116f583398151915286610b87565b610ce16102443560008051602061159583398151915260008051602061163583398151915286610b87565b610d1d610264356000805160206115358339815191527eb45d0d6a654335fbd3f18078228ed207ad29378ac8b9045de2f98b8c76386686610b87565b610d59610284356000805160206115558339815191527e38bf4875e9326c9947dc7fe41ada55de0f4499a06e0b0c9503cb0ed3770e6186610b87565b60a08401516000805160206116558339815191528360008051602061165583398151915283610244350808600080516020611655833981519152846000805160206116558339815191528060028609610264350808600080516020611655833981519152856000805160206116558339815191528060038709610284350808925060008051602061165583398151915260008801516000805160206116558339815191528560008051602061165583398151915285870909096000805160206116558339815191526102c08901516103208a015109610e3c60c460c08801610b2c565b610e716000805160206116558339815191526101608b01516000805160206116558339815191528486080860c0880188610c26565b505060008051602061165583398151915285600080516020611655833981519152806102a43560208c015109610244350808915060008051602061165583398151915285600080516020611655833981519152806102c43560208c01510961026435080890506000805160206116558339815191526102e43560008051602061165583398151915260208a015160008b015109099250610f54600080516020611655833981519152846000805160206116558339815191528486090960008051602061161583398151915260008051602061171583398151915260408801610bf2565b505050610f6661010460808301610b2c565b610f826080850151602061014401356101443560808501610b87565b60808401516000805160206116558339815191529080099150610fb0826101a4356101843560808501610b87565b610fcc6102e085015160a0830151608084015160808501610bf2565b6000805160206115b583398151915260206040830101516000805160206115b5833981519152030660206040830101526000805160206115b583398151915260a08201516000805160206115b5833981519152030660a08201526110308184610b3b565b61103d6040820184610b3b565b610b816080820184610b3b565b6101c081015161020082019081526101e082015161022083015260c08201516110799060243560043584610b87565b60e082015161108e9060643560443584610b87565b6101008201516110a49060a43560843584610b87565b6110d16101208301516000805160206115758339815191526000805160206115f583398151915284610b87565b6110fe6101408301516000805160206116d583398151915260008051602061169583398151915284610b87565b5050565b6000805160206116558339815191526101a082015160008051602061165583398151915203066000805160206116558339815191528060c08401516102443509820890506000805160206116558339815191528060e084015161026435098208905060008051602061165583398151915280610100840151610284350982089050600080516020611655833981519152806101208401516102a4350982089050600080516020611655833981519152806101408401516102c4350982089050600080516020611655833981519152806101608401516102e43509820890506110fe81600260016102408601610bf2565b6000604051610240810160405261018081016101c08201610200830161121a6101c484610b2c565b61122661020483610b2c565b6112366101608701518386610c26565b6112408385610b3b565b6000805160206115b583398151915260208501516000805160206115b5833981519152030660208501527f26186a2d65ee4d2f9c9a5b91f86597d35f192cd120caf7e935d8443d1938e23d60408501527f30441fd1b5d3370482c42152a8899027716989a6996c2535bc9f7fee8aaef79e60608501527f1970ea81dd6992adfbc571effb03503adbbb6a857f578403c6c40e22d65b3c0260808501527f054793348f12c0cf5622c340573cb277586319de359ab9389778f689786b1e4860a085015261131460608701518460c08701610c26565b60008051602061165583398151915260608701516101608801510992506000805160206116558339815191526000805160206115158339815191528409925061135e838383610c26565b61136b8160c08601610b3b565b50505061137f610200840160c08301610b3b565b610260830180516000805160206115b58339815191529081030690526113ac610240840160c08301610b3b565b7f198e9393920d483a7260bfb731fb5d25f1aa493335a9e71297e485b7aef312c26101008201527f1800deef121f1e76426a00665e5c4479674322d4f75edadd46debd5cd992f6ed6101208201527f090689d0585ff075ec9e99ad690c3395bc4b313370b38ef355acdadcd122975b6101408201527f12c85ea5db8c6deb4aab71808dcb408fe3d1e7690c43d37b4ce6cc0166fa7daa6101608201526020816101808360086107d05a03fa90511692915050565b6040516103a08101604052611473610192565b61147d83826101dc565b611486816106d1565b6114908382610902565b611499816109d4565b6114a281610c37565b6114ab8161104a565b6114b481611102565b6114bd816111f2565b6103a082036040528060005260206000f35b60008061038083850312156114e357600080fd5b6103008301848111156114f557600080fd5b839250846103808501111561150957600080fd5b80915050925092905056fe2d1ba66f5941dc91017171fa69ec2bd0022a2a2d4115a009a93458fd4e26ecfb1c3f0ab6aad2092981fe39d59f0138ad83c6ac564efebad5320eda6a06a7f977028f005be567407733fd4415261e102cb131ab4dfc9e130d7df4c82d47bd0b371095554aa398228ec11f6fe9e7a018ae498c72a73da43b443052281fc7432bc711ad887869746fc00f83d60ba1e7176bbd2048cd1ddeeba6639a02ee6e033acd30644e72e131a029b85045b68181585d97816a916871ca8d3c208c16d87cfd47095d12a23430ef4a64c329b9af841fa9933b68e9abf27c5dae570ebf59d23da01f61d8a9e01f214bbc77593207430a3ce6e979f18933b2410d2d5cb37f5ef89918276c02abe716973fd3aeef389ea67929302e586332e9b4c5c5b3d690d8f6962449b96a9db26c11c4efdde9128a1f6886def1262abcdb728793ba0d3c03d97330644e72e131a029b85045b68181585d2833e84879b9709143e1f593f0000001155035917b6435159b67f1005532735bc8380a00167522f6e85d37a354d696281aa4b781cfcbc95707d093cd0bdb02f670af59eb580e7cc59f6995763a9c0b1e2f4ee20fd1a6fba41bee70170910585c1c3f6cab200fd6895028395f4a3f9e19104f837128bfdadf2dca18fb80fa1479523702cf827469f2c405b2d0b916d29f199f94f086c6c045d379114eef2f7ffbaf5c92cab2b384f8752acbfa8971bedb0f24bc1b1c824d3e091458f600cd2b210bc7464ea77775ae02ec6b8da0dda664a26469706673582212202dcef0680da56d3c5790d6afb38ee8b8848340baf2938ea18d187d866338af9d64736f6c634300081c0033","opcodes":"PUSH1 0x80 PUSH1 0x40 MSTORE CALLVALUE DUP1 ISZERO PUSH1 0xF JUMPI PUSH1 0x0 DUP1 REVERT JUMPDEST POP PUSH2 0x176A DUP1 PUSH2 0x1F PUSH1 0x0 CODECOPY PUSH1 0x0 RETURN INVALID PUSH1 0x80 PUSH1 0x40 MSTORE CALLVALUE DUP1 ISZERO PUSH2 0x10 JUMPI PUSH1 0x0 DUP1 REVERT JUMPDEST POP PUSH1 0x4 CALLDATASIZE LT PUSH2 0x2B JUMPI PUSH1 0x0 CALLDATALOAD PUSH1 0xE0 SHR DUP1 PUSH4 0x6183F6B4 EQ PUSH2 0x30 JUMPI JUMPDEST PUSH1 0x0 DUP1 REVERT JUMPDEST PUSH2 0x43 PUSH2 0x3E CALLDATASIZE PUSH1 0x4 PUSH2 0x14CF JUMP JUMPDEST PUSH2 0x57 JUMP JUMPDEST PUSH1 0x40 MLOAD SWAP1 ISZERO ISZERO DUP2 MSTORE PUSH1 0x20 ADD PUSH1 0x40 MLOAD DUP1 SWAP2 SUB SWAP1 RETURN JUMPDEST PUSH1 0x0 PUSH2 0x1460 JUMP JUMPDEST PUSH1 0x0 DUP1 PUSH1 0x1 DUP5 DUP5 PUSH1 0x0 DUP1 JUMPDEST DUP3 ISZERO PUSH2 0x8B JUMPI POP SWAP3 SWAP4 DUP2 DUP4 SDIV DUP6 DUP2 MUL SWAP1 SWAP2 SUB SWAP4 POP SWAP1 SWAP2 DUP2 DUP4 MUL SWAP1 SUB SWAP1 DUP2 PUSH2 0x69 JUMP JUMPDEST POP POP POP PUSH1 0x1 DUP2 GT ISZERO PUSH2 0x9C JUMPI PUSH1 0x0 DUP1 REVERT JUMPDEST POP POP PUSH1 0x0 DUP2 SLT ISZERO PUSH2 0xAA JUMPI DUP4 ADD JUMPDEST SWAP4 SWAP3 POP POP POP JUMP JUMPDEST PUSH1 0x40 MLOAD DUP2 PUSH1 0x20 DUP5 MUL DUP4 ADD DUP2 MLOAD PUSH1 0x20 DUP4 ADD SWAP3 POP PUSH1 0x0 JUMPDEST DUP3 DUP5 LT ISZERO PUSH2 0xF7 JUMPI DUP2 DUP6 MSTORE PUSH1 0x0 DUP1 MLOAD PUSH1 0x20 PUSH2 0x1655 DUP4 CODECOPY DUP2 MLOAD SWAP2 MSTORE DUP5 MLOAD DUP4 MULMOD SWAP2 POP PUSH1 0x20 DUP6 ADD SWAP5 POP PUSH1 0x20 DUP5 ADD SWAP4 POP PUSH2 0xC6 JUMP JUMPDEST PUSH2 0x10F PUSH1 0x0 DUP1 MLOAD PUSH1 0x20 PUSH2 0x1655 DUP4 CODECOPY DUP2 MLOAD SWAP2 MSTORE DUP4 PUSH2 0x5E JUMP JUMPDEST SWAP2 POP PUSH1 0x20 DUP6 SUB SWAP5 POP PUSH1 0x20 DUP5 SUB SWAP4 POP DUP6 SWAP3 POP JUMPDEST DUP3 DUP5 GT ISZERO PUSH2 0x166 JUMPI PUSH1 0x0 DUP1 MLOAD PUSH1 0x20 PUSH2 0x1655 DUP4 CODECOPY DUP2 MLOAD SWAP2 MSTORE DUP6 MLOAD DUP4 MULMOD SWAP1 POP PUSH1 0x0 DUP1 MLOAD PUSH1 0x20 PUSH2 0x1655 DUP4 CODECOPY DUP2 MLOAD SWAP2 MSTORE DUP5 MLOAD DUP4 MULMOD DUP2 DUP6 MSTORE PUSH1 0x1F NOT SWAP6 DUP7 ADD SWAP6 SWAP1 SWAP5 ADD SWAP4 SWAP2 POP PUSH2 0x121 JUMP JUMPDEST POP SWAP1 SWAP2 MSTORE POP POP POP POP JUMP JUMPDEST PUSH1 0x0 DUP1 MLOAD PUSH1 0x20 PUSH2 0x1655 DUP4 CODECOPY DUP2 MLOAD SWAP2 MSTORE DUP2 LT PUSH2 0x18F JUMPI PUSH1 0x0 DUP1 MSTORE PUSH1 0x20 PUSH1 0x0 RETURN JUMPDEST POP JUMP JUMPDEST PUSH2 0x19E PUSH2 0x244 CALLDATALOAD PUSH2 0x170 JUMP JUMPDEST PUSH2 0x1AA PUSH2 0x264 CALLDATALOAD PUSH2 0x170 JUMP JUMPDEST PUSH2 0x1B6 PUSH2 0x284 CALLDATALOAD PUSH2 0x170 JUMP JUMPDEST PUSH2 0x1C2 PUSH2 0x2A4 CALLDATALOAD PUSH2 0x170 JUMP JUMPDEST PUSH2 0x1CE PUSH2 0x2C4 CALLDATALOAD PUSH2 0x170 JUMP JUMPDEST PUSH2 0x1DA PUSH2 0x2E4 CALLDATALOAD PUSH2 0x170 JUMP JUMPDEST JUMP JUMPDEST PUSH1 0x40 DUP1 MLOAD PUSH1 0x0 DUP1 MLOAD PUSH1 0x20 PUSH2 0x16F5 DUP4 CODECOPY DUP2 MLOAD SWAP2 MSTORE DUP2 MSTORE PUSH1 0x0 DUP1 MLOAD PUSH1 0x20 PUSH2 0x1675 DUP4 CODECOPY DUP2 MLOAD SWAP2 MSTORE PUSH1 0x20 DUP1 DUP4 ADD SWAP2 DUP3 MSTORE PUSH1 0x0 DUP1 MLOAD PUSH1 0x20 PUSH2 0x1635 DUP4 CODECOPY DUP2 MLOAD SWAP2 MSTORE DUP4 DUP6 ADD SWAP1 DUP2 MSTORE PUSH1 0x0 DUP1 MLOAD PUSH1 0x20 PUSH2 0x1595 DUP4 CODECOPY DUP2 MLOAD SWAP2 MSTORE PUSH1 0x60 DUP1 DUP7 ADD SWAP2 DUP3 MSTORE PUSH31 0xB45D0D6A654335FBD3F18078228ED207AD29378AC8B9045DE2F98B8C763866 PUSH1 0x80 DUP1 DUP9 ADD SWAP2 SWAP1 SWAP2 MSTORE PUSH1 0x0 DUP1 MLOAD PUSH1 0x20 PUSH2 0x1535 DUP4 CODECOPY DUP2 MLOAD SWAP2 MSTORE PUSH1 0xA0 DUP9 ADD MSTORE PUSH31 0x38BF4875E9326C9947DC7FE41ADA55DE0F4499A06E0B0C9503CB0ED3770E61 PUSH1 0xC0 DUP9 ADD MSTORE PUSH1 0x0 DUP1 MLOAD PUSH1 0x20 PUSH2 0x1555 DUP4 CODECOPY DUP2 MLOAD SWAP2 MSTORE PUSH1 0xE0 DUP9 ADD MSTORE PUSH1 0x0 DUP1 MLOAD PUSH1 0x20 PUSH2 0x16B5 DUP4 CODECOPY DUP2 MLOAD SWAP2 MSTORE PUSH2 0x100 DUP9 ADD MSTORE PUSH1 0x0 DUP1 MLOAD PUSH1 0x20 PUSH2 0x15D5 DUP4 CODECOPY DUP2 MLOAD SWAP2 MSTORE PUSH2 0x120 DUP9 ADD MSTORE PUSH1 0x0 DUP1 MLOAD PUSH1 0x20 PUSH2 0x15F5 DUP4 CODECOPY DUP2 MLOAD SWAP2 MSTORE PUSH2 0x140 DUP9 ADD MSTORE PUSH1 0x0 DUP1 MLOAD PUSH1 0x20 PUSH2 0x1575 DUP4 CODECOPY DUP2 MLOAD SWAP2 MSTORE PUSH2 0x160 DUP9 ADD MSTORE PUSH1 0x0 DUP1 MLOAD PUSH1 0x20 PUSH2 0x1695 DUP4 CODECOPY DUP2 MLOAD SWAP2 MSTORE PUSH2 0x180 DUP9 ADD MSTORE PUSH1 0x0 DUP1 MLOAD PUSH1 0x20 PUSH2 0x16D5 DUP4 CODECOPY DUP2 MLOAD SWAP2 MSTORE PUSH2 0x1A0 DUP9 ADD MSTORE PUSH1 0x0 DUP1 MLOAD PUSH1 0x20 PUSH2 0x1715 DUP4 CODECOPY DUP2 MLOAD SWAP2 MSTORE PUSH2 0x1C0 DUP9 ADD MSTORE PUSH1 0x0 DUP1 MLOAD PUSH1 0x20 PUSH2 0x1615 DUP4 CODECOPY DUP2 MLOAD SWAP2 MSTORE PUSH2 0x1E0 DUP9 ADD MSTORE DUP10 CALLDATALOAD PUSH2 0x200 DUP9 ADD MSTORE DUP10 DUP6 ADD CALLDATALOAD PUSH2 0x220 DUP9 ADD MSTORE DUP10 DUP9 ADD CALLDATALOAD PUSH2 0x240 DUP9 ADD MSTORE SWAP1 DUP10 ADD CALLDATALOAD PUSH2 0x260 DUP8 ADD MSTORE PUSH1 0x4 CALLDATALOAD PUSH2 0x280 DUP8 ADD MSTORE PUSH1 0x24 CALLDATALOAD PUSH2 0x2A0 DUP8 ADD MSTORE PUSH1 0x44 CALLDATALOAD PUSH2 0x2C0 DUP8 ADD MSTORE PUSH1 0x64 CALLDATALOAD PUSH2 0x2E0 DUP8 ADD MSTORE PUSH1 0x84 CALLDATALOAD PUSH2 0x300 DUP8 ADD MSTORE PUSH1 0xA4 CALLDATALOAD PUSH2 0x320 DUP8 ADD MSTORE PUSH2 0x340 DUP7 KECCAK256 PUSH1 0x0 DUP1 MLOAD PUSH1 0x20 PUSH2 0x1655 DUP4 CODECOPY DUP2 MLOAD SWAP2 MSTORE SWAP1 DUP2 SWAP1 MOD DUP10 DUP7 ADD DUP2 DUP2 MSTORE SWAP6 SWAP1 SWAP6 KECCAK256 DUP2 SWAP1 MOD SWAP8 DUP10 ADD SWAP8 DUP9 MSTORE DUP5 DUP8 MSTORE SWAP7 MLOAD SWAP1 SWAP5 MSTORE PUSH1 0xC4 CALLDATALOAD SWAP1 SWAP2 MSTORE PUSH1 0xE4 CALLDATALOAD SWAP1 MSTORE SWAP1 DUP3 KECCAK256 DUP4 SWAP1 MOD DUP1 DUP6 MSTORE SWAP1 SWAP3 SWAP1 SWAP2 SWAP1 DUP3 DUP1 MULMOD PUSH2 0x2C0 DUP6 ADD MSTORE DUP2 DUP2 MSTORE PUSH2 0x104 CALLDATALOAD PUSH1 0x20 DUP3 ADD MSTORE PUSH1 0x20 PUSH2 0x104 ADD CALLDATALOAD PUSH1 0x40 DUP3 ADD MSTORE PUSH2 0x144 CALLDATALOAD PUSH1 0x60 DUP3 ADD MSTORE PUSH1 0x20 PUSH2 0x144 ADD CALLDATALOAD PUSH1 0x80 DUP3 ADD MSTORE PUSH2 0x184 CALLDATALOAD PUSH1 0xA0 DUP3 ADD MSTORE PUSH1 0x20 PUSH2 0x184 ADD CALLDATALOAD PUSH1 0xC0 DUP3 ADD MSTORE PUSH1 0x0 DUP1 MLOAD PUSH1 0x20 PUSH2 0x1655 DUP4 CODECOPY DUP2 MLOAD SWAP2 MSTORE PUSH1 0xE0 DUP3 KECCAK256 MOD SWAP2 POP DUP2 PUSH1 0x60 DUP6 ADD MSTORE DUP2 DUP2 MSTORE PUSH2 0x244 CALLDATALOAD PUSH1 0x20 DUP3 ADD MSTORE PUSH2 0x264 CALLDATALOAD PUSH1 0x40 DUP3 ADD MSTORE PUSH2 0x284 CALLDATALOAD PUSH1 0x60 DUP3 ADD MSTORE PUSH2 0x2A4 CALLDATALOAD PUSH1 0x80 DUP3 ADD MSTORE PUSH2 0x2C4 CALLDATALOAD PUSH1 0xA0 DUP3 ADD MSTORE PUSH2 0x2E4 CALLDATALOAD PUSH1 0xC0 DUP3 ADD MSTORE PUSH1 0x0 DUP1 MLOAD PUSH1 0x20 PUSH2 0x1655 DUP4 CODECOPY DUP2 MLOAD SWAP2 MSTORE PUSH1 0xE0 DUP3 KECCAK256 MOD DUP1 PUSH1 0xC0 DUP7 ADD MSTORE PUSH1 0x0 DUP1 MLOAD PUSH1 0x20 PUSH2 0x1655 DUP4 CODECOPY DUP2 MLOAD SWAP2 MSTORE DUP4 DUP6 MULMOD PUSH1 0xA0 DUP7 ADD MSTORE PUSH1 0x0 DUP1 MLOAD PUSH1 0x20 PUSH2 0x1655 DUP4 CODECOPY DUP2 MLOAD SWAP2 MSTORE DUP4 DUP5 MULMOD SWAP3 POP PUSH1 0x0 DUP1 MLOAD PUSH1 0x20 PUSH2 0x1655 DUP4 CODECOPY DUP2 MLOAD SWAP2 MSTORE DUP4 DUP5 MULMOD SWAP3 POP PUSH1 0x0 DUP1 MLOAD PUSH1 0x20 PUSH2 0x1655 DUP4 CODECOPY DUP2 MLOAD SWAP2 MSTORE DUP4 DUP5 MULMOD SWAP3 POP PUSH1 0x0 DUP1 MLOAD PUSH1 0x20 PUSH2 0x1655 DUP4 CODECOPY DUP2 MLOAD SWAP2 MSTORE DUP4 DUP5 MULMOD SWAP3 POP PUSH1 0x0 DUP1 MLOAD PUSH1 0x20 PUSH2 0x1655 DUP4 CODECOPY DUP2 MLOAD SWAP2 MSTORE DUP4 DUP5 MULMOD SWAP3 POP PUSH1 0x0 DUP1 MLOAD PUSH1 0x20 PUSH2 0x1655 DUP4 CODECOPY DUP2 MLOAD SWAP2 MSTORE DUP4 DUP5 MULMOD SWAP3 POP PUSH1 0x0 DUP1 MLOAD PUSH1 0x20 PUSH2 0x1655 DUP4 CODECOPY DUP2 MLOAD SWAP2 MSTORE DUP4 DUP5 MULMOD SWAP3 POP PUSH1 0x0 DUP1 MLOAD PUSH1 0x20 PUSH2 0x1655 DUP4 CODECOPY DUP2 MLOAD SWAP2 MSTORE DUP4 DUP5 MULMOD SWAP3 POP PUSH1 0x0 DUP1 MLOAD PUSH1 0x20 PUSH2 0x1655 DUP4 CODECOPY DUP2 MLOAD SWAP2 MSTORE DUP4 DUP5 MULMOD SWAP3 POP PUSH1 0x0 DUP1 MLOAD PUSH1 0x20 PUSH2 0x1655 DUP4 CODECOPY DUP2 MLOAD SWAP2 MSTORE DUP4 DUP5 MULMOD SWAP3 POP PUSH1 0x0 DUP1 MLOAD PUSH1 0x20 PUSH2 0x1655 DUP4 CODECOPY DUP2 MLOAD SWAP2 MSTORE DUP4 DUP5 MULMOD SWAP3 POP PUSH1 0x0 DUP1 MLOAD PUSH1 0x20 PUSH2 0x1655 DUP4 CODECOPY DUP2 MLOAD SWAP2 MSTORE DUP4 DUP5 MULMOD SWAP3 POP PUSH1 0x0 DUP1 MLOAD PUSH1 0x20 PUSH2 0x1655 DUP4 CODECOPY DUP2 MLOAD SWAP2 MSTORE DUP4 DUP5 MULMOD SWAP3 POP PUSH1 0x0 DUP1 MLOAD PUSH1 0x20 PUSH2 0x1655 DUP4 CODECOPY DUP2 MLOAD SWAP2 MSTORE DUP4 DUP5 MULMOD SWAP3 POP PUSH1 0x0 DUP1 MLOAD PUSH1 0x20 PUSH2 0x1655 DUP4 CODECOPY DUP2 MLOAD SWAP2 MSTORE DUP4 DUP5 MULMOD SWAP3 POP DUP3 PUSH1 0x80 DUP7 ADD MSTORE PUSH1 0x0 DUP1 MLOAD PUSH1 0x20 PUSH2 0x1655 DUP4 CODECOPY DUP2 MLOAD SWAP2 MSTORE DUP1 PUSH1 0x1 DUP6 SUB ADD MOD SWAP3 POP DUP3 PUSH2 0x2E0 DUP7 ADD MSTORE DUP3 PUSH2 0x300 DUP7 ADD MSTORE PUSH1 0x0 DUP1 MLOAD PUSH1 0x20 PUSH2 0x1655 DUP4 CODECOPY DUP2 MLOAD SWAP2 MSTORE DUP2 DUP3 MULMOD SWAP3 POP DUP3 PUSH1 0xE0 DUP7 ADD MSTORE PUSH1 0x0 DUP1 MLOAD PUSH1 0x20 PUSH2 0x1655 DUP4 CODECOPY DUP2 MLOAD SWAP2 MSTORE DUP2 DUP5 MULMOD SWAP3 POP DUP3 PUSH2 0x100 DUP7 ADD MSTORE PUSH1 0x0 DUP1 MLOAD PUSH1 0x20 PUSH2 0x1655 DUP4 CODECOPY DUP2 MLOAD SWAP2 MSTORE DUP2 DUP5 MULMOD SWAP3 POP DUP3 PUSH2 0x120 DUP7 ADD MSTORE PUSH1 0x0 DUP1 MLOAD PUSH1 0x20 PUSH2 0x1655 DUP4 CODECOPY DUP2 MLOAD SWAP2 MSTORE DUP2 DUP5 MULMOD PUSH2 0x140 DUP7 ADD MSTORE POP PUSH2 0x1C4 CALLDATALOAD DUP2 MSTORE PUSH2 0x1E4 CALLDATALOAD PUSH1 0x20 DUP3 ADD MSTORE PUSH2 0x204 CALLDATALOAD PUSH1 0x40 DUP3 ADD MSTORE PUSH2 0x224 CALLDATALOAD PUSH1 0x60 DUP3 ADD MSTORE PUSH1 0x80 SWAP1 KECCAK256 PUSH1 0x0 DUP1 MLOAD PUSH1 0x20 PUSH2 0x1655 DUP4 CODECOPY DUP2 MLOAD SWAP2 MSTORE SWAP1 MOD PUSH2 0x160 SWAP1 SWAP4 ADD SWAP3 SWAP1 SWAP3 MSTORE POP POP POP JUMP JUMPDEST PUSH1 0x1 PUSH1 0x0 DUP1 MLOAD PUSH1 0x20 PUSH2 0x1655 DUP4 CODECOPY DUP2 MLOAD SWAP2 MSTORE DUP1 PUSH1 0x0 DUP1 MLOAD PUSH1 0x20 PUSH2 0x1655 DUP4 CODECOPY DUP2 MLOAD SWAP2 MSTORE DUP4 PUSH1 0x60 DUP7 ADD MLOAD SUB ADD MOD PUSH2 0x8000 MULMOD PUSH2 0x320 DUP4 ADD MSTORE PUSH1 0x0 DUP1 MLOAD PUSH1 0x20 PUSH2 0x1655 DUP4 CODECOPY DUP2 MLOAD SWAP2 MSTORE PUSH1 0x0 DUP1 MLOAD PUSH1 0x20 PUSH2 0x1515 DUP4 CODECOPY DUP2 MLOAD SWAP2 MSTORE DUP3 MULMOD SWAP1 POP PUSH1 0x0 DUP1 MLOAD PUSH1 0x20 PUSH2 0x1655 DUP4 CODECOPY DUP2 MLOAD SWAP2 MSTORE DUP1 PUSH1 0x0 DUP1 MLOAD PUSH1 0x20 PUSH2 0x1655 DUP4 CODECOPY DUP2 MLOAD SWAP2 MSTORE DUP4 PUSH1 0x60 DUP7 ADD MLOAD SUB ADD MOD PUSH2 0x8000 MULMOD PUSH2 0x340 DUP4 ADD MSTORE PUSH1 0x0 DUP1 MLOAD PUSH1 0x20 PUSH2 0x1655 DUP4 CODECOPY DUP2 MLOAD SWAP2 MSTORE PUSH1 0x0 DUP1 MLOAD PUSH1 0x20 PUSH2 0x1515 DUP4 CODECOPY DUP2 MLOAD SWAP2 MSTORE DUP3 MULMOD SWAP1 POP PUSH1 0x0 DUP1 MLOAD PUSH1 0x20 PUSH2 0x1655 DUP4 CODECOPY DUP2 MLOAD SWAP2 MSTORE DUP1 PUSH1 0x0 DUP1 MLOAD PUSH1 0x20 PUSH2 0x1655 DUP4 CODECOPY DUP2 MLOAD SWAP2 MSTORE DUP4 PUSH1 0x60 DUP7 ADD MLOAD SUB ADD MOD PUSH2 0x8000 MULMOD PUSH2 0x360 DUP4 ADD MSTORE PUSH1 0x0 DUP1 MLOAD PUSH1 0x20 PUSH2 0x1655 DUP4 CODECOPY DUP2 MLOAD SWAP2 MSTORE PUSH1 0x0 DUP1 MLOAD PUSH1 0x20 PUSH2 0x1515 DUP4 CODECOPY DUP2 MLOAD SWAP2 MSTORE DUP3 MULMOD SWAP1 POP PUSH1 0x0 DUP1 MLOAD PUSH1 0x20 PUSH2 0x1655 DUP4 CODECOPY DUP2 MLOAD SWAP2 MSTORE DUP1 PUSH1 0x0 DUP1 MLOAD PUSH1 0x20 PUSH2 0x1655 DUP4 CODECOPY DUP2 MLOAD SWAP2 MSTORE DUP4 PUSH1 0x60 DUP7 ADD MLOAD SUB ADD MOD PUSH2 0x8000 MULMOD PUSH2 0x380 DUP4 ADD MSTORE PUSH2 0x810 PUSH1 0x5 PUSH2 0x300 DUP5 ADD PUSH2 0xB1 JUMP JUMPDEST PUSH2 0x2E0 DUP3 ADD MLOAD PUSH1 0x1 SWAP2 POP PUSH1 0x0 DUP1 MLOAD PUSH1 0x20 PUSH2 0x1655 DUP4 CODECOPY DUP2 MLOAD SWAP2 MSTORE DUP2 PUSH2 0x320 DUP6 ADD MLOAD MULMOD PUSH2 0x320 DUP5 ADD MSTORE PUSH1 0x0 DUP1 MLOAD PUSH1 0x20 PUSH2 0x1655 DUP4 CODECOPY DUP2 MLOAD SWAP2 MSTORE PUSH1 0x0 DUP1 MLOAD PUSH1 0x20 PUSH2 0x1515 DUP4 CODECOPY DUP2 MLOAD SWAP2 MSTORE DUP4 MULMOD SWAP2 POP PUSH1 0x0 DUP1 MLOAD PUSH1 0x20 PUSH2 0x1655 DUP4 CODECOPY DUP2 MLOAD SWAP2 MSTORE DUP1 DUP3 PUSH2 0x340 DUP7 ADD MLOAD MULMOD DUP4 MULMOD PUSH2 0x340 DUP5 ADD MSTORE PUSH1 0x0 DUP1 MLOAD PUSH1 0x20 PUSH2 0x1655 DUP4 CODECOPY DUP2 MLOAD SWAP2 MSTORE PUSH1 0x0 DUP1 MLOAD PUSH1 0x20 PUSH2 0x1515 DUP4 CODECOPY DUP2 MLOAD SWAP2 MSTORE DUP4 MULMOD SWAP2 POP PUSH1 0x0 DUP1 MLOAD PUSH1 0x20 PUSH2 0x1655 DUP4 CODECOPY DUP2 MLOAD SWAP2 MSTORE DUP1 DUP3 PUSH2 0x360 DUP7 ADD MLOAD MULMOD DUP4 MULMOD PUSH2 0x360 DUP5 ADD MSTORE PUSH1 0x0 DUP1 MLOAD PUSH1 0x20 PUSH2 0x1655 DUP4 CODECOPY DUP2 MLOAD SWAP2 MSTORE PUSH1 0x0 DUP1 MLOAD PUSH1 0x20 PUSH2 0x1515 DUP4 CODECOPY DUP2 MLOAD SWAP2 MSTORE DUP4 MULMOD SWAP2 POP PUSH1 0x0 DUP1 MLOAD PUSH1 0x20 PUSH2 0x1655 DUP4 CODECOPY DUP2 MLOAD SWAP2 MSTORE DUP1 DUP3 PUSH2 0x380 DUP7 ADD MLOAD MULMOD DUP4 MULMOD PUSH2 0x380 DUP5 ADD MSTORE POP POP POP JUMP JUMPDEST PUSH1 0x0 PUSH1 0x0 DUP1 MLOAD PUSH1 0x20 PUSH2 0x1655 DUP4 CODECOPY DUP2 MLOAD SWAP2 MSTORE DUP1 PUSH1 0x0 DUP1 MLOAD PUSH1 0x20 PUSH2 0x1655 DUP4 CODECOPY DUP2 MLOAD SWAP2 MSTORE PUSH1 0x0 DUP7 ADD CALLDATALOAD PUSH2 0x320 DUP7 ADD MLOAD MULMOD DUP4 SUB ADD MOD SWAP1 POP PUSH1 0x0 DUP1 MLOAD PUSH1 0x20 PUSH2 0x1655 DUP4 CODECOPY DUP2 MLOAD SWAP2 MSTORE DUP1 PUSH1 0x0 DUP1 MLOAD PUSH1 0x20 PUSH2 0x1655 DUP4 CODECOPY DUP2 MLOAD SWAP2 MSTORE PUSH1 0x20 DUP7 ADD CALLDATALOAD PUSH2 0x340 DUP7 ADD MLOAD MULMOD DUP4 SUB ADD MOD SWAP1 POP PUSH1 0x0 DUP1 MLOAD PUSH1 0x20 PUSH2 0x1655 DUP4 CODECOPY DUP2 MLOAD SWAP2 MSTORE DUP1 PUSH1 0x0 DUP1 MLOAD PUSH1 0x20 PUSH2 0x1655 DUP4 CODECOPY DUP2 MLOAD SWAP2 MSTORE PUSH1 0x40 DUP7 ADD CALLDATALOAD PUSH2 0x360 DUP7 ADD MLOAD MULMOD DUP4 SUB ADD MOD SWAP1 POP PUSH1 0x0 DUP1 MLOAD PUSH1 0x20 PUSH2 0x1655 DUP4 CODECOPY DUP2 MLOAD SWAP2 MSTORE DUP1 PUSH1 0x0 DUP1 MLOAD PUSH1 0x20 PUSH2 0x1655 DUP4 CODECOPY DUP2 MLOAD SWAP2 MSTORE PUSH1 0x60 DUP7 ADD CALLDATALOAD PUSH2 0x380 DUP7 ADD MLOAD MULMOD DUP4 SUB ADD MOD SWAP1 POP DUP1 PUSH2 0x180 DUP4 ADD MSTORE POP POP POP JUMP JUMPDEST PUSH2 0x180 DUP2 ADD MLOAD PUSH1 0x0 DUP1 MLOAD PUSH1 0x20 PUSH2 0x1655 DUP4 CODECOPY DUP2 MLOAD SWAP2 MSTORE PUSH2 0x2C0 DUP4 ADD MLOAD PUSH2 0x320 DUP5 ADD MLOAD MULMOD PUSH1 0x0 DUP1 MLOAD PUSH1 0x20 PUSH2 0x1655 DUP4 CODECOPY DUP2 MLOAD SWAP2 MSTORE DUP1 PUSH2 0x2A4 CALLDATALOAD PUSH1 0x20 DUP7 ADD MLOAD MULMOD PUSH2 0x244 CALLDATALOAD ADDMOD PUSH1 0x0 DUP1 MLOAD PUSH1 0x20 PUSH2 0x1655 DUP4 CODECOPY DUP2 MLOAD SWAP2 MSTORE PUSH1 0x40 DUP6 ADD MLOAD DUP3 ADDMOD SWAP1 POP PUSH1 0x0 DUP1 MLOAD PUSH1 0x20 PUSH2 0x1655 DUP4 CODECOPY DUP2 MLOAD SWAP2 MSTORE DUP1 PUSH2 0x2C4 CALLDATALOAD PUSH1 0x20 DUP8 ADD MLOAD MULMOD PUSH2 0x264 CALLDATALOAD ADDMOD PUSH1 0x0 DUP1 MLOAD PUSH1 0x20 PUSH2 0x1655 DUP4 CODECOPY DUP2 MLOAD SWAP2 MSTORE PUSH1 0x40 DUP7 ADD MLOAD DUP3 ADDMOD SWAP1 POP PUSH1 0x0 DUP1 MLOAD PUSH1 0x20 PUSH2 0x1655 DUP4 CODECOPY DUP2 MLOAD SWAP2 MSTORE PUSH1 0x40 DUP7 ADD MLOAD PUSH2 0x284 CALLDATALOAD ADDMOD PUSH1 0x0 DUP1 MLOAD PUSH1 0x20 PUSH2 0x1655 DUP4 CODECOPY DUP2 MLOAD SWAP2 MSTORE DUP2 PUSH1 0x0 DUP1 MLOAD PUSH1 0x20 PUSH2 0x1655 DUP4 CODECOPY DUP2 MLOAD SWAP2 MSTORE DUP5 DUP7 MULMOD MULMOD SWAP3 POP POP POP PUSH1 0x0 DUP1 MLOAD PUSH1 0x20 PUSH2 0x1655 DUP4 CODECOPY DUP2 MLOAD SWAP2 MSTORE PUSH2 0x2E4 CALLDATALOAD DUP3 MULMOD SWAP1 POP PUSH1 0x0 DUP1 MLOAD PUSH1 0x20 PUSH2 0x1655 DUP4 CODECOPY DUP2 MLOAD SWAP2 MSTORE PUSH1 0x0 DUP6 ADD MLOAD DUP3 MULMOD SWAP1 POP PUSH1 0x0 DUP1 MLOAD PUSH1 0x20 PUSH2 0x1655 DUP4 CODECOPY DUP2 MLOAD SWAP2 MSTORE DUP1 DUP4 PUSH1 0x0 DUP1 MLOAD PUSH1 0x20 PUSH2 0x1655 DUP4 CODECOPY DUP2 MLOAD SWAP2 MSTORE SUB MOD DUP5 ADDMOD SWAP3 POP PUSH1 0x0 DUP1 MLOAD PUSH1 0x20 PUSH2 0x1655 DUP4 CODECOPY DUP2 MLOAD SWAP2 MSTORE DUP1 DUP3 PUSH1 0x0 DUP1 MLOAD PUSH1 0x20 PUSH2 0x1655 DUP4 CODECOPY DUP2 MLOAD SWAP2 MSTORE SUB MOD DUP5 ADDMOD SWAP3 POP POP POP DUP1 PUSH2 0x1A0 DUP4 ADD MSTORE POP POP JUMP JUMPDEST DUP2 CALLDATALOAD DUP2 MSTORE PUSH1 0x20 SWAP2 DUP3 ADD CALLDATALOAD SWAP2 ADD MSTORE JUMP JUMPDEST PUSH1 0x40 MLOAD DUP2 MLOAD DUP2 MSTORE PUSH1 0x20 DUP3 ADD MLOAD PUSH1 0x20 DUP3 ADD MSTORE DUP3 MLOAD PUSH1 0x40 DUP3 ADD MSTORE PUSH1 0x20 DUP4 ADD MLOAD PUSH1 0x60 DUP3 ADD MSTORE PUSH1 0x40 DUP3 PUSH1 0x80 DUP4 PUSH1 0x6 PUSH2 0x7D0 GAS SUB STATICCALL SWAP1 POP DUP1 PUSH2 0xB7C JUMPI PUSH1 0x0 DUP1 MSTORE PUSH1 0x20 PUSH1 0x0 RETURN JUMPDEST POP POP POP JUMP JUMPDEST POP POP POP POP JUMP JUMPDEST PUSH1 0x0 PUSH1 0x40 MLOAD DUP4 DUP2 MSTORE DUP5 PUSH1 0x20 DUP3 ADD MSTORE DUP6 PUSH1 0x40 DUP3 ADD MSTORE PUSH1 0x40 DUP2 PUSH1 0x60 DUP4 PUSH1 0x7 PUSH2 0x7D0 GAS SUB STATICCALL SWAP2 POP DUP2 PUSH2 0xBBA JUMPI PUSH1 0x0 DUP1 MSTORE PUSH1 0x20 PUSH1 0x0 RETURN JUMPDEST DUP3 MLOAD PUSH1 0x40 DUP3 ADD MSTORE PUSH1 0x20 DUP4 ADD MLOAD PUSH1 0x60 DUP3 ADD MSTORE PUSH1 0x40 DUP4 PUSH1 0x80 DUP4 PUSH1 0x6 PUSH2 0x7D0 GAS SUB STATICCALL SWAP2 POP POP DUP1 PUSH2 0xBEB JUMPI PUSH1 0x0 DUP1 MSTORE PUSH1 0x20 PUSH1 0x0 RETURN JUMPDEST POP POP POP POP POP JUMP JUMPDEST PUSH1 0x0 PUSH1 0x40 MLOAD DUP4 DUP2 MSTORE DUP5 PUSH1 0x20 DUP3 ADD MSTORE DUP6 PUSH1 0x40 DUP3 ADD MSTORE PUSH1 0x40 DUP4 PUSH1 0x60 DUP4 PUSH1 0x7 PUSH2 0x7D0 GAS SUB STATICCALL SWAP2 POP POP DUP1 PUSH2 0xBEB JUMPI PUSH1 0x0 DUP1 MSTORE PUSH1 0x20 PUSH1 0x0 RETURN JUMPDEST PUSH2 0xB7C DUP4 PUSH1 0x20 DUP5 ADD MLOAD DUP5 MLOAD DUP5 PUSH2 0xBF2 JUMP JUMPDEST PUSH2 0x1C0 DUP2 ADD PUSH1 0x40 DUP3 ADD MLOAD PUSH1 0x40 MLOAD PUSH2 0x100 DUP2 ADD PUSH1 0x40 MSTORE PUSH2 0xC77 PUSH1 0x0 DUP1 MLOAD PUSH1 0x20 PUSH2 0x15D5 DUP4 CODECOPY DUP2 MLOAD SWAP2 MSTORE PUSH1 0x0 DUP1 MLOAD PUSH1 0x20 PUSH2 0x16B5 DUP4 CODECOPY DUP2 MLOAD SWAP2 MSTORE DUP6 SWAP1 DUP2 MSTORE PUSH1 0x20 ADD MSTORE JUMP JUMPDEST PUSH2 0xCB6 PUSH1 0x0 DUP1 MLOAD PUSH1 0x20 PUSH2 0x1655 DUP4 CODECOPY DUP2 MLOAD SWAP2 MSTORE PUSH2 0x264 CALLDATALOAD PUSH2 0x244 CALLDATALOAD MULMOD PUSH1 0x0 DUP1 MLOAD PUSH1 0x20 PUSH2 0x1675 DUP4 CODECOPY DUP2 MLOAD SWAP2 MSTORE PUSH1 0x0 DUP1 MLOAD PUSH1 0x20 PUSH2 0x16F5 DUP4 CODECOPY DUP2 MLOAD SWAP2 MSTORE DUP7 PUSH2 0xB87 JUMP JUMPDEST PUSH2 0xCE1 PUSH2 0x244 CALLDATALOAD PUSH1 0x0 DUP1 MLOAD PUSH1 0x20 PUSH2 0x1595 DUP4 CODECOPY DUP2 MLOAD SWAP2 MSTORE PUSH1 0x0 DUP1 MLOAD PUSH1 0x20 PUSH2 0x1635 DUP4 CODECOPY DUP2 MLOAD SWAP2 MSTORE DUP7 PUSH2 0xB87 JUMP JUMPDEST PUSH2 0xD1D PUSH2 0x264 CALLDATALOAD PUSH1 0x0 DUP1 MLOAD PUSH1 0x20 PUSH2 0x1535 DUP4 CODECOPY DUP2 MLOAD SWAP2 MSTORE PUSH31 0xB45D0D6A654335FBD3F18078228ED207AD29378AC8B9045DE2F98B8C763866 DUP7 PUSH2 0xB87 JUMP JUMPDEST PUSH2 0xD59 PUSH2 0x284 CALLDATALOAD PUSH1 0x0 DUP1 MLOAD PUSH1 0x20 PUSH2 0x1555 DUP4 CODECOPY DUP2 MLOAD SWAP2 MSTORE PUSH31 0x38BF4875E9326C9947DC7FE41ADA55DE0F4499A06E0B0C9503CB0ED3770E61 DUP7 PUSH2 0xB87 JUMP JUMPDEST PUSH1 0xA0 DUP5 ADD MLOAD PUSH1 0x0 DUP1 MLOAD PUSH1 0x20 PUSH2 0x1655 DUP4 CODECOPY DUP2 MLOAD SWAP2 MSTORE DUP4 PUSH1 0x0 DUP1 MLOAD PUSH1 0x20 PUSH2 0x1655 DUP4 CODECOPY DUP2 MLOAD SWAP2 MSTORE DUP4 PUSH2 0x244 CALLDATALOAD ADDMOD ADDMOD PUSH1 0x0 DUP1 MLOAD PUSH1 0x20 PUSH2 0x1655 DUP4 CODECOPY DUP2 MLOAD SWAP2 MSTORE DUP5 PUSH1 0x0 DUP1 MLOAD PUSH1 0x20 PUSH2 0x1655 DUP4 CODECOPY DUP2 MLOAD SWAP2 MSTORE DUP1 PUSH1 0x2 DUP7 MULMOD PUSH2 0x264 CALLDATALOAD ADDMOD ADDMOD PUSH1 0x0 DUP1 MLOAD PUSH1 0x20 PUSH2 0x1655 DUP4 CODECOPY DUP2 MLOAD SWAP2 MSTORE DUP6 PUSH1 0x0 DUP1 MLOAD PUSH1 0x20 PUSH2 0x1655 DUP4 CODECOPY DUP2 MLOAD SWAP2 MSTORE DUP1 PUSH1 0x3 DUP8 MULMOD PUSH2 0x284 CALLDATALOAD ADDMOD ADDMOD SWAP3 POP PUSH1 0x0 DUP1 MLOAD PUSH1 0x20 PUSH2 0x1655 DUP4 CODECOPY DUP2 MLOAD SWAP2 MSTORE PUSH1 0x0 DUP9 ADD MLOAD PUSH1 0x0 DUP1 MLOAD PUSH1 0x20 PUSH2 0x1655 DUP4 CODECOPY DUP2 MLOAD SWAP2 MSTORE DUP6 PUSH1 0x0 DUP1 MLOAD PUSH1 0x20 PUSH2 0x1655 DUP4 CODECOPY DUP2 MLOAD SWAP2 MSTORE DUP6 DUP8 MULMOD MULMOD MULMOD PUSH1 0x0 DUP1 MLOAD PUSH1 0x20 PUSH2 0x1655 DUP4 CODECOPY DUP2 MLOAD SWAP2 MSTORE PUSH2 0x2C0 DUP10 ADD MLOAD PUSH2 0x320 DUP11 ADD MLOAD MULMOD PUSH2 0xE3C PUSH1 0xC4 PUSH1 0xC0 DUP9 ADD PUSH2 0xB2C JUMP JUMPDEST PUSH2 0xE71 PUSH1 0x0 DUP1 MLOAD PUSH1 0x20 PUSH2 0x1655 DUP4 CODECOPY DUP2 MLOAD SWAP2 MSTORE PUSH2 0x160 DUP12 ADD MLOAD PUSH1 0x0 DUP1 MLOAD PUSH1 0x20 PUSH2 0x1655 DUP4 CODECOPY DUP2 MLOAD SWAP2 MSTORE DUP5 DUP7 ADDMOD ADDMOD PUSH1 0xC0 DUP9 ADD DUP9 PUSH2 0xC26 JUMP JUMPDEST POP POP PUSH1 0x0 DUP1 MLOAD PUSH1 0x20 PUSH2 0x1655 DUP4 CODECOPY DUP2 MLOAD SWAP2 MSTORE DUP6 PUSH1 0x0 DUP1 MLOAD PUSH1 0x20 PUSH2 0x1655 DUP4 CODECOPY DUP2 MLOAD SWAP2 MSTORE DUP1 PUSH2 0x2A4 CALLDATALOAD PUSH1 0x20 DUP13 ADD MLOAD MULMOD PUSH2 0x244 CALLDATALOAD ADDMOD ADDMOD SWAP2 POP PUSH1 0x0 DUP1 MLOAD PUSH1 0x20 PUSH2 0x1655 DUP4 CODECOPY DUP2 MLOAD SWAP2 MSTORE DUP6 PUSH1 0x0 DUP1 MLOAD PUSH1 0x20 PUSH2 0x1655 DUP4 CODECOPY DUP2 MLOAD SWAP2 MSTORE DUP1 PUSH2 0x2C4 CALLDATALOAD PUSH1 0x20 DUP13 ADD MLOAD MULMOD PUSH2 0x264 CALLDATALOAD ADDMOD ADDMOD SWAP1 POP PUSH1 0x0 DUP1 MLOAD PUSH1 0x20 PUSH2 0x1655 DUP4 CODECOPY DUP2 MLOAD SWAP2 MSTORE PUSH2 0x2E4 CALLDATALOAD PUSH1 0x0 DUP1 MLOAD PUSH1 0x20 PUSH2 0x1655 DUP4 CODECOPY DUP2 MLOAD SWAP2 MSTORE PUSH1 0x20 DUP11 ADD MLOAD PUSH1 0x0 DUP12 ADD MLOAD MULMOD MULMOD SWAP3 POP PUSH2 0xF54 PUSH1 0x0 DUP1 MLOAD PUSH1 0x20 PUSH2 0x1655 DUP4 CODECOPY DUP2 MLOAD SWAP2 MSTORE DUP5 PUSH1 0x0 DUP1 MLOAD PUSH1 0x20 PUSH2 0x1655 DUP4 CODECOPY DUP2 MLOAD SWAP2 MSTORE DUP5 DUP7 MULMOD MULMOD PUSH1 0x0 DUP1 MLOAD PUSH1 0x20 PUSH2 0x1615 DUP4 CODECOPY DUP2 MLOAD SWAP2 MSTORE PUSH1 0x0 DUP1 MLOAD PUSH1 0x20 PUSH2 0x1715 DUP4 CODECOPY DUP2 MLOAD SWAP2 MSTORE PUSH1 0x40 DUP9 ADD PUSH2 0xBF2 JUMP JUMPDEST POP POP POP PUSH2 0xF66 PUSH2 0x104 PUSH1 0x80 DUP4 ADD PUSH2 0xB2C JUMP JUMPDEST PUSH2 0xF82 PUSH1 0x80 DUP6 ADD MLOAD PUSH1 0x20 PUSH2 0x144 ADD CALLDATALOAD PUSH2 0x144 CALLDATALOAD PUSH1 0x80 DUP6 ADD PUSH2 0xB87 JUMP JUMPDEST PUSH1 0x80 DUP5 ADD MLOAD PUSH1 0x0 DUP1 MLOAD PUSH1 0x20 PUSH2 0x1655 DUP4 CODECOPY DUP2 MLOAD SWAP2 MSTORE SWAP1 DUP1 MULMOD SWAP2 POP PUSH2 0xFB0 DUP3 PUSH2 0x1A4 CALLDATALOAD PUSH2 0x184 CALLDATALOAD PUSH1 0x80 DUP6 ADD PUSH2 0xB87 JUMP JUMPDEST PUSH2 0xFCC PUSH2 0x2E0 DUP6 ADD MLOAD PUSH1 0xA0 DUP4 ADD MLOAD PUSH1 0x80 DUP5 ADD MLOAD PUSH1 0x80 DUP6 ADD PUSH2 0xBF2 JUMP JUMPDEST PUSH1 0x0 DUP1 MLOAD PUSH1 0x20 PUSH2 0x15B5 DUP4 CODECOPY DUP2 MLOAD SWAP2 MSTORE PUSH1 0x20 PUSH1 0x40 DUP4 ADD ADD MLOAD PUSH1 0x0 DUP1 MLOAD PUSH1 0x20 PUSH2 0x15B5 DUP4 CODECOPY DUP2 MLOAD SWAP2 MSTORE SUB MOD PUSH1 0x20 PUSH1 0x40 DUP4 ADD ADD MSTORE PUSH1 0x0 DUP1 MLOAD PUSH1 0x20 PUSH2 0x15B5 DUP4 CODECOPY DUP2 MLOAD SWAP2 MSTORE PUSH1 0xA0 DUP3 ADD MLOAD PUSH1 0x0 DUP1 MLOAD PUSH1 0x20 PUSH2 0x15B5 DUP4 CODECOPY DUP2 MLOAD SWAP2 MSTORE SUB MOD PUSH1 0xA0 DUP3 ADD MSTORE PUSH2 0x1030 DUP2 DUP5 PUSH2 0xB3B JUMP JUMPDEST PUSH2 0x103D PUSH1 0x40 DUP3 ADD DUP5 PUSH2 0xB3B JUMP JUMPDEST PUSH2 0xB81 PUSH1 0x80 DUP3 ADD DUP5 PUSH2 0xB3B JUMP JUMPDEST PUSH2 0x1C0 DUP2 ADD MLOAD PUSH2 0x200 DUP3 ADD SWAP1 DUP2 MSTORE PUSH2 0x1E0 DUP3 ADD MLOAD PUSH2 0x220 DUP4 ADD MSTORE PUSH1 0xC0 DUP3 ADD MLOAD PUSH2 0x1079 SWAP1 PUSH1 0x24 CALLDATALOAD PUSH1 0x4 CALLDATALOAD DUP5 PUSH2 0xB87 JUMP JUMPDEST PUSH1 0xE0 DUP3 ADD MLOAD PUSH2 0x108E SWAP1 PUSH1 0x64 CALLDATALOAD PUSH1 0x44 CALLDATALOAD DUP5 PUSH2 0xB87 JUMP JUMPDEST PUSH2 0x100 DUP3 ADD MLOAD PUSH2 0x10A4 SWAP1 PUSH1 0xA4 CALLDATALOAD PUSH1 0x84 CALLDATALOAD DUP5 PUSH2 0xB87 JUMP JUMPDEST PUSH2 0x10D1 PUSH2 0x120 DUP4 ADD MLOAD PUSH1 0x0 DUP1 MLOAD PUSH1 0x20 PUSH2 0x1575 DUP4 CODECOPY DUP2 MLOAD SWAP2 MSTORE PUSH1 0x0 DUP1 MLOAD PUSH1 0x20 PUSH2 0x15F5 DUP4 CODECOPY DUP2 MLOAD SWAP2 MSTORE DUP5 PUSH2 0xB87 JUMP JUMPDEST PUSH2 0x10FE PUSH2 0x140 DUP4 ADD MLOAD PUSH1 0x0 DUP1 MLOAD PUSH1 0x20 PUSH2 0x16D5 DUP4 CODECOPY DUP2 MLOAD SWAP2 MSTORE PUSH1 0x0 DUP1 MLOAD PUSH1 0x20 PUSH2 0x1695 DUP4 CODECOPY DUP2 MLOAD SWAP2 MSTORE DUP5 PUSH2 0xB87 JUMP JUMPDEST POP POP JUMP JUMPDEST PUSH1 0x0 DUP1 MLOAD PUSH1 0x20 PUSH2 0x1655 DUP4 CODECOPY DUP2 MLOAD SWAP2 MSTORE PUSH2 0x1A0 DUP3 ADD MLOAD PUSH1 0x0 DUP1 MLOAD PUSH1 0x20 PUSH2 0x1655 DUP4 CODECOPY DUP2 MLOAD SWAP2 MSTORE SUB MOD PUSH1 0x0 DUP1 MLOAD PUSH1 0x20 PUSH2 0x1655 DUP4 CODECOPY DUP2 MLOAD SWAP2 MSTORE DUP1 PUSH1 0xC0 DUP5 ADD MLOAD PUSH2 0x244 CALLDATALOAD MULMOD DUP3 ADDMOD SWAP1 POP PUSH1 0x0 DUP1 MLOAD PUSH1 0x20 PUSH2 0x1655 DUP4 CODECOPY DUP2 MLOAD SWAP2 MSTORE DUP1 PUSH1 0xE0 DUP5 ADD MLOAD PUSH2 0x264 CALLDATALOAD MULMOD DUP3 ADDMOD SWAP1 POP PUSH1 0x0 DUP1 MLOAD PUSH1 0x20 PUSH2 0x1655 DUP4 CODECOPY DUP2 MLOAD SWAP2 MSTORE DUP1 PUSH2 0x100 DUP5 ADD MLOAD PUSH2 0x284 CALLDATALOAD MULMOD DUP3 ADDMOD SWAP1 POP PUSH1 0x0 DUP1 MLOAD PUSH1 0x20 PUSH2 0x1655 DUP4 CODECOPY DUP2 MLOAD SWAP2 MSTORE DUP1 PUSH2 0x120 DUP5 ADD MLOAD PUSH2 0x2A4 CALLDATALOAD MULMOD DUP3 ADDMOD SWAP1 POP PUSH1 0x0 DUP1 MLOAD PUSH1 0x20 PUSH2 0x1655 DUP4 CODECOPY DUP2 MLOAD SWAP2 MSTORE DUP1 PUSH2 0x140 DUP5 ADD MLOAD PUSH2 0x2C4 CALLDATALOAD MULMOD DUP3 ADDMOD SWAP1 POP PUSH1 0x0 DUP1 MLOAD PUSH1 0x20 PUSH2 0x1655 DUP4 CODECOPY DUP2 MLOAD SWAP2 MSTORE DUP1 PUSH2 0x160 DUP5 ADD MLOAD PUSH2 0x2E4 CALLDATALOAD MULMOD DUP3 ADDMOD SWAP1 POP PUSH2 0x10FE DUP2 PUSH1 0x2 PUSH1 0x1 PUSH2 0x240 DUP7 ADD PUSH2 0xBF2 JUMP JUMPDEST PUSH1 0x0 PUSH1 0x40 MLOAD PUSH2 0x240 DUP2 ADD PUSH1 0x40 MSTORE PUSH2 0x180 DUP2 ADD PUSH2 0x1C0 DUP3 ADD PUSH2 0x200 DUP4 ADD PUSH2 0x121A PUSH2 0x1C4 DUP5 PUSH2 0xB2C JUMP JUMPDEST PUSH2 0x1226 PUSH2 0x204 DUP4 PUSH2 0xB2C JUMP JUMPDEST PUSH2 0x1236 PUSH2 0x160 DUP8 ADD MLOAD DUP4 DUP7 PUSH2 0xC26 JUMP JUMPDEST PUSH2 0x1240 DUP4 DUP6 PUSH2 0xB3B JUMP JUMPDEST PUSH1 0x0 DUP1 MLOAD PUSH1 0x20 PUSH2 0x15B5 DUP4 CODECOPY DUP2 MLOAD SWAP2 MSTORE PUSH1 0x20 DUP6 ADD MLOAD PUSH1 0x0 DUP1 MLOAD PUSH1 0x20 PUSH2 0x15B5 DUP4 CODECOPY DUP2 MLOAD SWAP2 MSTORE SUB MOD PUSH1 0x20 DUP6 ADD MSTORE PUSH32 0x26186A2D65EE4D2F9C9A5B91F86597D35F192CD120CAF7E935D8443D1938E23D PUSH1 0x40 DUP6 ADD MSTORE PUSH32 0x30441FD1B5D3370482C42152A8899027716989A6996C2535BC9F7FEE8AAEF79E PUSH1 0x60 DUP6 ADD MSTORE PUSH32 0x1970EA81DD6992ADFBC571EFFB03503ADBBB6A857F578403C6C40E22D65B3C02 PUSH1 0x80 DUP6 ADD MSTORE PUSH32 0x54793348F12C0CF5622C340573CB277586319DE359AB9389778F689786B1E48 PUSH1 0xA0 DUP6 ADD MSTORE PUSH2 0x1314 PUSH1 0x60 DUP8 ADD MLOAD DUP5 PUSH1 0xC0 DUP8 ADD PUSH2 0xC26 JUMP JUMPDEST PUSH1 0x0 DUP1 MLOAD PUSH1 0x20 PUSH2 0x1655 DUP4 CODECOPY DUP2 MLOAD SWAP2 MSTORE PUSH1 0x60 DUP8 ADD MLOAD PUSH2 0x160 DUP9 ADD MLOAD MULMOD SWAP3 POP PUSH1 0x0 DUP1 MLOAD PUSH1 0x20 PUSH2 0x1655 DUP4 CODECOPY DUP2 MLOAD SWAP2 MSTORE PUSH1 0x0 DUP1 MLOAD PUSH1 0x20 PUSH2 0x1515 DUP4 CODECOPY DUP2 MLOAD SWAP2 MSTORE DUP5 MULMOD SWAP3 POP PUSH2 0x135E DUP4 DUP4 DUP4 PUSH2 0xC26 JUMP JUMPDEST PUSH2 0x136B DUP2 PUSH1 0xC0 DUP7 ADD PUSH2 0xB3B JUMP JUMPDEST POP POP POP PUSH2 0x137F PUSH2 0x200 DUP5 ADD PUSH1 0xC0 DUP4 ADD PUSH2 0xB3B JUMP JUMPDEST PUSH2 0x260 DUP4 ADD DUP1 MLOAD PUSH1 0x0 DUP1 MLOAD PUSH1 0x20 PUSH2 0x15B5 DUP4 CODECOPY DUP2 MLOAD SWAP2 MSTORE SWAP1 DUP2 SUB MOD SWAP1 MSTORE PUSH2 0x13AC PUSH2 0x240 DUP5 ADD PUSH1 0xC0 DUP4 ADD PUSH2 0xB3B JUMP JUMPDEST PUSH32 0x198E9393920D483A7260BFB731FB5D25F1AA493335A9E71297E485B7AEF312C2 PUSH2 0x100 DUP3 ADD MSTORE PUSH32 0x1800DEEF121F1E76426A00665E5C4479674322D4F75EDADD46DEBD5CD992F6ED PUSH2 0x120 DUP3 ADD MSTORE PUSH32 0x90689D0585FF075EC9E99AD690C3395BC4B313370B38EF355ACDADCD122975B PUSH2 0x140 DUP3 ADD MSTORE PUSH32 0x12C85EA5DB8C6DEB4AAB71808DCB408FE3D1E7690C43D37B4CE6CC0166FA7DAA PUSH2 0x160 DUP3 ADD MSTORE PUSH1 0x20 DUP2 PUSH2 0x180 DUP4 PUSH1 0x8 PUSH2 0x7D0 GAS SUB STATICCALL SWAP1 MLOAD AND SWAP3 SWAP2 POP POP JUMP JUMPDEST PUSH1 0x40 MLOAD PUSH2 0x3A0 DUP2 ADD PUSH1 0x40 MSTORE PUSH2 0x1473 PUSH2 0x192 JUMP JUMPDEST PUSH2 0x147D DUP4 DUP3 PUSH2 0x1DC JUMP JUMPDEST PUSH2 0x1486 DUP2 PUSH2 0x6D1 JUMP JUMPDEST PUSH2 0x1490 DUP4 DUP3 PUSH2 0x902 JUMP JUMPDEST PUSH2 0x1499 DUP2 PUSH2 0x9D4 JUMP JUMPDEST PUSH2 0x14A2 DUP2 PUSH2 0xC37 JUMP JUMPDEST PUSH2 0x14AB DUP2 PUSH2 0x104A JUMP JUMPDEST PUSH2 0x14B4 DUP2 PUSH2 0x1102 JUMP JUMPDEST PUSH2 0x14BD DUP2 PUSH2 0x11F2 JUMP JUMPDEST PUSH2 0x3A0 DUP3 SUB PUSH1 0x40 MSTORE DUP1 PUSH1 0x0 MSTORE PUSH1 0x20 PUSH1 0x0 RETURN JUMPDEST PUSH1 0x0 DUP1 PUSH2 0x380 DUP4 DUP6 SUB SLT ISZERO PUSH2 0x14E3 JUMPI PUSH1 0x0 DUP1 REVERT JUMPDEST PUSH2 0x300 DUP4 ADD DUP5 DUP2 GT ISZERO PUSH2 0x14F5 JUMPI PUSH1 0x0 DUP1 REVERT JUMPDEST DUP4 SWAP3 POP DUP5 PUSH2 0x380 DUP6 ADD GT ISZERO PUSH2 0x1509 JUMPI PUSH1 0x0 DUP1 REVERT JUMPDEST DUP1 SWAP2 POP POP SWAP3 POP SWAP3 SWAP1 POP JUMP INVALID 0x2D SHL 0xA6 PUSH16 0x5941DC91017171FA69EC2BD0022A2A2D COINBASE ISZERO LOG0 MULMOD 0xA9 CALLVALUE PC REVERT 0x4E 0x26 0xEC 0xFB SHR EXTCODEHASH EXP 0xB6 0xAA 0xD2 MULMOD 0x29 DUP2 INVALID CODECOPY 0xD5 SWAP16 ADD CODESIZE 0xAD DUP4 0xC6 0xAC JUMP 0x4E INVALID 0xBA 0xD5 ORIGIN 0xE 0xDA PUSH11 0x6A7F977028F005BE56740 PUSH24 0x33FD4415261E102CB131AB4DFC9E130D7DF4C82D47BD0B37 LT SWAP6 SSTORE BLOBBASEFEE LOG3 SWAP9 0x22 DUP15 0xC1 0x1F PUSH16 0xE9E7A018AE498C72A73DA43B44305228 0x1F 0xC7 NUMBER 0x2B 0xC7 GT 0xAD DUP9 PUSH25 0x69746FC00F83D60BA1E7176BBD2048CD1DDEEBA6639A02EE6E SUB GASPRICE 0xCD ADDRESS PUSH5 0x4E72E131A0 0x29 0xB8 POP GASLIMIT 0xB6 DUP2 DUP2 PC TSTORE SWAP8 DUP2 PUSH11 0x916871CA8D3C208C16D87C REVERT SELFBALANCE MULMOD TSTORE SLT LOG2 CALLVALUE ADDRESS 0xEF BLOBBASEFEE PUSH5 0xC329B9AF84 0x1F 0xA9 SWAP4 EXTCODESIZE PUSH9 0xE9ABF27C5DAE570EBF MSIZE 0xD2 RETURNDATASIZE LOG0 0x1F PUSH2 0xD8A9 0xE0 0x1F 0x21 0x4B 0xBC PUSH24 0x593207430A3CE6E979F18933B2410D2D5CB37F5EF8991827 PUSH13 0x2ABE716973FD3AEEF389EA679 0x29 ADDRESS 0x2E PC PUSH4 0x32E9B4C5 0xC5 0xB3 0xD6 SWAP1 0xD8 0xF6 SWAP7 0x24 BLOBHASH 0xB9 PUSH11 0x9DB26C11C4EFDDE9128A1F PUSH9 0x86DEF1262ABCDB7287 SWAP4 0xBA 0xD EXTCODECOPY SUB 0xD9 PUSH20 0x30644E72E131A029B85045B68181585D2833E848 PUSH26 0xB9709143E1F593F0000001155035917B6435159B67F100553273 JUMPDEST 0xC8 CODESIZE EXP STOP AND PUSH22 0x22F6E85D37A354D696281AA4B781CFCBC95707D093CD SIGNEXTEND 0xDB MUL 0xF6 PUSH17 0xAF59EB580E7CC59F6995763A9C0B1E2F4E 0xE2 0xF 0xD1 0xA6 0xFB LOG4 SHL 0xEE PUSH17 0x170910585C1C3F6CAB200FD6895028395F BLOBBASEFEE EXTCODEHASH SWAP15 NOT LT 0x4F DUP4 PUSH18 0x28BFDADF2DCA18FB80FA1479523702CF8274 PUSH10 0xF2C405B2D0B916D29F19 SWAP16 SWAP5 CREATE DUP7 0xC6 0xC0 GASLIMIT 0xD3 PUSH26 0x114EEF2F7FFBAF5C92CAB2B384F8752ACBFA8971BEDB0F24BC1B SHR DUP3 0x4D RETURNDATACOPY MULMOD EQ PC 0xF6 STOP 0xCD 0x2B 0x21 SIGNEXTEND 0xC7 CHAINID 0x4E 0xA7 PUSH24 0x75AE02EC6B8DA0DDA664A26469706673582212202DCEF068 0xD 0xA5 PUSH14 0x3C5790D6AFB38EE8B8848340BAF2 SWAP4 DUP15 LOG1 DUP14 XOR PUSH30 0x866338AF9D64736F6C634300081C00330000000000000000000000000000 "},"methodIdentifiers":{"verifyProof(uint256[24],uint256[4])":"6183f6b4"}}}}}