{"src/states/NativeVault.sol":{"NativeVault":{"abi":[{"inputs":[{"internalType":"address","name":"_asset","type":"address"},{"internalType":"address","name":"_verifier","type":"address"}],"stateMutability":"nonpayable","type":"constructor"},{"inputs":[],"name":"AmountMismatch","type":"error"},{"inputs":[],"name":"InvalidDepositAmount","type":"error"},{"inputs":[],"name":"InvalidWithdrawalAmount","type":"error"},{"inputs":[],"name":"InvalidZKProof","type":"error"},{"inputs":[],"name":"NativeFundReceived","type":"error"},{"inputs":[],"name":"NativeTransferFailed","type":"error"},{"inputs":[],"name":"NullifierAlreadySpent","type":"error"},{"anonymous":false,"inputs":[{"indexed":true,"internalType":"address","name":"depositor","type":"address"},{"indexed":false,"internalType":"uint256","name":"amount","type":"uint256"},{"indexed":false,"internalType":"uint256","name":"commitment","type":"uint256"},{"indexed":false,"internalType":"uint256","name":"precommitment","type":"uint256"}],"name":"Deposited","type":"event"},{"anonymous":false,"inputs":[{"indexed":true,"internalType":"address","name":"recipient","type":"address"},{"components":[{"internalType":"address","name":"srcToken","type":"address"},{"internalType":"address","name":"dstToken","type":"address"},{"internalType":"address payable","name":"recipient","type":"address"},{"internalType":"uint256","name":"amountIn","type":"uint256"},{"internalType":"uint256","name":"minAmountOut","type":"uint256"},{"internalType":"uint24","name":"fee","type":"uint24"}],"indexed":false,"internalType":"struct IVault.SwapParam","name":"_param","type":"tuple"},{"indexed":false,"internalType":"uint256","name":"_spentNullifier","type":"uint256"},{"indexed":false,"internalType":"uint256","name":"_newCommitment","type":"uint256"}],"name":"Swapped","type":"event"},{"anonymous":false,"inputs":[{"indexed":true,"internalType":"address","name":"recipient","type":"address"},{"indexed":false,"internalType":"uint256","name":"amount","type":"uint256"},{"indexed":false,"internalType":"uint256","name":"nullifier","type":"uint256"},{"indexed":false,"internalType":"uint256","name":"newCommitment","type":"uint256"}],"name":"Withdrawn","type":"event"},{"inputs":[],"name":"asset","outputs":[{"internalType":"address","name":"","type":"address"}],"stateMutability":"view","type":"function"},{"inputs":[{"internalType":"uint256","name":"_amount","type":"uint256"},{"internalType":"uint256","name":"_precommitment","type":"uint256"}],"name":"deposit","outputs":[{"internalType":"uint256","name":"_commitment","type":"uint256"}],"stateMutability":"payable","type":"function"},{"inputs":[],"name":"getAsset","outputs":[{"internalType":"address","name":"_asset","type":"address"}],"stateMutability":"view","type":"function"},{"inputs":[],"name":"merkleTree","outputs":[{"internalType":"contract MerkleTree","name":"","type":"address"}],"stateMutability":"view","type":"function"},{"inputs":[],"name":"nonce","outputs":[{"internalType":"uint256","name":"","type":"uint256"}],"stateMutability":"view","type":"function"},{"inputs":[{"internalType":"uint256","name":"_nullifier","type":"uint256"}],"name":"nullifiers","outputs":[{"internalType":"bool","name":"_spent","type":"bool"}],"stateMutability":"view","type":"function"},{"inputs":[{"components":[{"internalType":"address","name":"srcToken","type":"address"},{"internalType":"address","name":"dstToken","type":"address"},{"internalType":"address payable","name":"recipient","type":"address"},{"internalType":"uint256","name":"amountIn","type":"uint256"},{"internalType":"uint256","name":"minAmountOut","type":"uint256"},{"internalType":"uint24","name":"fee","type":"uint24"}],"internalType":"struct IVault.SwapParam","name":"_param","type":"tuple"},{"internalType":"address","name":"_swapRouter","type":"address"},{"internalType":"uint256","name":"_stateRoot","type":"uint256"},{"internalType":"uint256","name":"_nullifier","type":"uint256"},{"internalType":"uint256","name":"_newCommitment","type":"uint256"},{"internalType":"uint256[24]","name":"_proof","type":"uint256[24]"}],"name":"swap","outputs":[],"stateMutability":"nonpayable","type":"function"},{"inputs":[{"internalType":"uint256","name":"_amount","type":"uint256"},{"internalType":"uint256","name":"_stateRoot","type":"uint256"},{"internalType":"uint256","name":"_nullifier","type":"uint256"},{"internalType":"uint256","name":"_newCommitment","type":"uint256"},{"internalType":"uint256[24]","name":"_proof","type":"uint256[24]"}],"name":"verify","outputs":[{"internalType":"bool","name":"","type":"bool"}],"stateMutability":"view","type":"function"},{"inputs":[{"internalType":"address","name":"_recipient","type":"address"},{"internalType":"uint256","name":"_amount","type":"uint256"},{"internalType":"uint256","name":"_stateRoot","type":"uint256"},{"internalType":"uint256","name":"_nullifier","type":"uint256"},{"internalType":"uint256","name":"_newCommitment","type":"uint256"},{"internalType":"uint256[24]","name":"_proof","type":"uint256[24]"}],"name":"withdraw","outputs":[],"stateMutability":"nonpayable","type":"function"}],"evm":{"bytecode":{"linkReferences":{"poseidon-solidity/PoseidonT3.sol":{"PoseidonT3":[{"length":20,"start":2084},{"length":20,"start":4918}]}},"object":"60c060405234801561001057600080fd5b5060405161159438038061159483398101604081905261002f916100bb565b6001600160a01b0382166080526040518290829061004c90610092565b604051809103906000f080158015610068573d6000803e3d6000fd5b50600080546001600160a01b0319166001600160a01b039283161790551660a052506100ee915050565b6106db80610eb983390190565b80516001600160a01b03811681146100b657600080fd5b919050565b600080604083850312156100ce57600080fd5b6100d78361009f565b91506100e56020840161009f565b90509250929050565b60805160a051610d936101266000396000818161023501528181610466015261052401526000818160af015260fd0152610d936000f3fe6080604052600436106100765760003560e01c8063192a27921461007b57806338d52e0f1461009d5780635c222bad146100ee57806386ea04361461012157806389b97d0914610151578063affed0e014610171578063bb7df05214610195578063d21e82ab146101b5578063e2bbb158146101e5575b600080fd5b34801561008757600080fd5b5061009b610096366004610a28565b6101f8565b005b3480156100a957600080fd5b506100d17f000000000000000000000000000000000000000000000000000000000000000081565b6040516001600160a01b0390911681526020015b60405180910390f35b3480156100fa57600080fd5b507f00000000000000000000000000000000000000000000000000000000000000006100d1565b34801561012d57600080fd5b5061014161013c366004610b25565b61042a565b60405190151581526020016100e5565b34801561015d57600080fd5b5061009b61016c366004610b70565b6104ea565b34801561017d57600080fd5b5061018760025481565b6040519081526020016100e5565b3480156101a157600080fd5b506000546100d1906001600160a01b031681565b3480156101c157600080fd5b506101416101d0366004610bc0565b60016020526000908152604090205460ff1681565b6101876101f3366004610bd9565b6106bb565b6040805160808101825260608089015182526020820187905281830185905281018590529051631860fdad60e21b81528591906001600160a01b037f00000000000000000000000000000000000000000000000000000000000000001690636183f6b49061026c9086908590600401610bfb565b602060405180830381865afa158015610289573d6000803e3d6000fd5b505050506040513d601f19601f820116820180604052508101906102ad9190610c38565b6102ca576040516303b2487b60e11b815260040160405180910390fd5b60008581526001602052604090205460ff16156102fa5760405163b115d85760e01b815260040160405180910390fd5b6000858152600160208190526040808320805460ff1916909217909155905490516390b5561d60e01b8152600481018690526001600160a01b03909116906390b5561d906024016020604051808303816000875af1158015610360573d6000803e3d6000fd5b505050506040513d601f19601f820116820180604052508101906103849190610c61565b5061038f878961082c565b6040808901805182518b516001600160a01b0390811682526020808e015182169083015292518316938101939093526060808c0151908401526080808c01519084015260a0808c015162ffffff169084015260c0830188905260e0830187905216907f5f34b7b0cb0357f860b3c2cd2bbde1cb9a514a52041d215e0a4ef3c398012a8290610100015b60405180910390a25050505050505050565b6040805160808101825286815260208101869052808201849052606081018590529051631860fdad60e21b815260009186916001600160a01b037f00000000000000000000000000000000000000000000000000000000000000001690636183f6b49061049d9087908590600401610bfb565b602060405180830381865afa1580156104ba573d6000803e3d6000fd5b505050506040513d601f19601f820116820180604052508101906104de9190610c38565b98975050505050505050565b6040805160808101825286815260208101869052808201849052606081018590529051631860fdad60e21b81528591906001600160a01b037f00000000000000000000000000000000000000000000000000000000000000001690636183f6b49061055b9086908590600401610bfb565b602060405180830381865afa158015610578573d6000803e3d6000fd5b505050506040513d601f19601f8201168201806040525081019061059c9190610c38565b6105b9576040516303b2487b60e11b815260040160405180910390fd5b60008581526001602052604090205460ff16156105e95760405163b115d85760e01b815260040160405180910390fd5b6000858152600160208190526040808320805460ff1916909217909155905490516390b5561d60e01b8152600481018690526001600160a01b03909116906390b5561d906024016020604051808303816000875af115801561064f573d6000803e3d6000fd5b505050506040513d601f19601f820116820180604052508101906106739190610c61565b5061067e8888610938565b876001600160a01b03167f75e161b3e824b114fc1a33274bd7091918dd4e639cede50b78b15a4eea956a2188878760405161041893929190610c7a565b60008083116106dd5760405163fe9ba5cd60e01b815260040160405180910390fd5b604080518082018252848152602081018490529051632b0aac7f60e11b815273__$75f79a42d9bcbdbb69ad79ebd80f556f39$__9163561558fe916107259190600401610c90565b602060405180830381865af4158015610742573d6000803e3d6000fd5b505050506040513d601f19601f820116820180604052508101906107669190610c61565b6000546040516390b5561d60e01b8152600481018390529192506001600160a01b0316906390b5561d906024016020604051808303816000875af11580156107b2573d6000803e3d6000fd5b505050506040513d601f19601f820116820180604052508101906107d69190610c61565b506107e133846109b1565b336001600160a01b03167f91ede45f04a37a7c170f5c1207df3b6bc748dc1e04ad5e917a241d0f52feada384838560405161081e93929190610c7a565b60405180910390a292915050565b6000829050600060405180610100016040528084600001516001600160a01b0316815260200184602001516001600160a01b031681526020018460a0015162ffffff16815260200184604001516001600160a01b0316815260200142603c6108949190610cc1565b8152602001846060015181526020018460800151815260200160006001600160a01b03168152509050816001600160a01b031663414bf3898460600151836040518363ffffffff1660e01b81526004016108ee9190610ce2565b60206040518083038185885af115801561090c573d6000803e3d6000fd5b50505050506040513d601f19601f820116820180604052508101906109319190610c61565b5050505050565b6000826001600160a01b03168260405160006040518083038185875af1925050503d8060008114610985576040519150601f19603f3d011682016040523d82523d6000602084013e61098a565b606091505b50509050806109ac57604051633d2cec6f60e21b815260040160405180910390fd5b505050565b8034146109d1576040516355e97b0d60e01b815260040160405180910390fd5b5050565b6001600160a01b03811681146109ea57600080fd5b50565b80356109f8816109d5565b919050565b803562ffffff811681146109f857600080fd5b806103008101831015610a2257600080fd5b92915050565b600080600080600080868803610440811215610a4357600080fd5b60c0811215610a5157600080fd5b5060405160c081016001600160401b0381118282101715610a8257634e487b7160e01b600052604160045260246000fd5b604052610a8e886109ed565b8152610a9c602089016109ed565b6020820152610aad604089016109ed565b60408201526060888101359082015260808089013590820152610ad260a089016109fd565b60a08201529550610ae560c088016109ed565b945060e0870135935061010087013592506101208701359150610b0c886101408901610a10565b90509295509295509295565b6001600160a01b03169052565b60008060008060006103808688031215610b3e57600080fd5b85359450602086013593506040860135925060608601359150610b648760808801610a10565b90509295509295909350565b6000806000806000806103a08789031215610b8a57600080fd5b8635610b95816109d5565b955060208701359450604087013593506060870135925060808701359150610b0c8860a08901610a10565b600060208284031215610bd257600080fd5b5035919050565b60008060408385031215610bec57600080fd5b50508035926020909101359150565b610380810161030084833761030082018360005b6004811015610c2e578151835260209283019290910190600101610c0f565b5050509392505050565b600060208284031215610c4a57600080fd5b81518015158114610c5a57600080fd5b9392505050565b600060208284031215610c7357600080fd5b5051919050565b9283526020830191909152604082015260600190565b60408101818360005b6002811015610cb8578151835260209283019290910190600101610c99565b50505092915050565b80820180821115610a2257634e487b7160e01b600052601160045260246000fd5b81516001600160a01b0390811682526020808401519091169082015260408083015162ffffff1690820152606080830151610100830191610d2590840182610b18565b506080830151608083015260a083015160a083015260c083015160c083015260e0830151610d5660e0840182610b18565b509291505056fea26469706673582212208729529f01c9618d5bfb9a9f94bbf4ebd859ee149635ec8bdee4394ca097299b64736f6c634300081c00336080604052348015600f57600080fd5b506106bc8061001f6000396000f3fe608060405234801561001057600080fd5b50600436106100a45760003560e01c8063081dc681146100a9578063367506ef146100dc5780635ca1e165146100e357806376a5cef3146100eb57806390b5561d1461010e57806390eeb02b14610121578063949d225d14610146578063a27154ba1461014f578063cccf7a8e14610157578063cd87a3b41461016a578063d455a79d14610172578063de8fa43114610192575b600080fd5b6100c96100b7366004610510565b60026020526000908152604090205481565b6040519081526020015b60405180910390f35b60206100c9565b6100c961019a565b6100fe6100f936600461053d565b6101ac565b60405190151581526020016100d3565b6100c961011c36600461053d565b610221565b6003546101319063ffffffff1681565b60405163ffffffff90911681526020016100d3565b6100c960015481565b610131602081565b6100fe61016536600461053d565b610343565b610131606481565b6100c961018036600461053d565b60006020819052908152604090205481565b6001546100c9565b60006101a7600154610381565b905090565b6000816000036101be57506000919050565b60035463ffffffff1660005b606463ffffffff821610156102175763ffffffff8216600090815260026020526040902054849003610200575060019392505050565b60646063830163ffffffff160691506001016101ca565b5060009392505050565b600154600090600160201b1161024a57604051633977650160e01b815260040160405180910390fd5b6001805460009081526020819052604081208490558154919061026c83610582565b919050555061027c600154610381565b6003805491925063ffffffff9091169060006102978361059b565b91906101000a81548163ffffffff021916908363ffffffff1602179055505080600260006064600360009054906101000a900463ffffffff166102da91906105c0565b63ffffffff168152602081019190915260400160002055600180547fcb249c8292372bd11f567786635483fca9e635030baafca55ff1a8940141d22191610320916105e8565b6040805191825260208201859052810183905260600160405180910390a1919050565b6000805b600154811015610378576000818152602081905260409020548390036103705750600192915050565b600101610347565b50600092915050565b60008160000361039357506000919050565b60006103a06001846105e8565b6000818152602081905260408120549192505b602063ffffffff821610156105085760006103cf600285610601565b6000036103e8576103e1846001610615565b90506103f6565b6103f36001856105e8565b90505b6000868210610406576000610416565b6000828152602081905260409020545b9050600080610426600288610601565b60000361043757508490508161043d565b50819050845b604080518082018252838152602081018390529051632b0aac7f60e11b815273__$75f79a42d9bcbdbb69ad79ebd80f556f39$__9163561558fe916104859190600401610628565b602060405180830381865af41580156104a2573d6000803e3d6000fd5b505050506040513d601f19601f820116820180604052508101906104c69190610659565b95506104d3600288610672565b965060018911156104f85760026104eb8a6001610615565b6104f59190610672565b98505b5050600190920191506103b39050565b509392505050565b60006020828403121561052257600080fd5b813563ffffffff8116811461053657600080fd5b9392505050565b60006020828403121561054f57600080fd5b5035919050565b634e487b7160e01b600052601260045260246000fd5b634e487b7160e01b600052601160045260246000fd5b6000600182016105945761059461056c565b5060010190565b600063ffffffff821663ffffffff81036105b7576105b761056c565b60010192915050565b600063ffffffff8316806105d6576105d6610556565b8063ffffffff84160691505092915050565b818103818111156105fb576105fb61056c565b92915050565b60008261061057610610610556565b500690565b808201808211156105fb576105fb61056c565b60408101818360005b6002811015610650578151835260209283019290910190600101610631565b50505092915050565b60006020828403121561066b57600080fd5b5051919050565b60008261068157610681610556565b50049056fea26469706673582212203ed4f54b5c3ac97ec16932b851c3884fd4ebd0fd8ffb40f2214c8a681a48654064736f6c634300081c0033","opcodes":"PUSH1 0xC0 PUSH1 0x40 MSTORE CALLVALUE DUP1 ISZERO PUSH2 0x10 JUMPI PUSH1 0x0 DUP1 REVERT JUMPDEST POP PUSH1 0x40 MLOAD PUSH2 0x1594 CODESIZE SUB DUP1 PUSH2 0x1594 DUP4 CODECOPY DUP2 ADD PUSH1 0x40 DUP2 SWAP1 MSTORE PUSH2 0x2F SWAP2 PUSH2 0xBB JUMP JUMPDEST PUSH1 0x1 PUSH1 0x1 PUSH1 0xA0 SHL SUB DUP3 AND PUSH1 0x80 MSTORE PUSH1 0x40 MLOAD DUP3 SWAP1 DUP3 SWAP1 PUSH2 0x4C SWAP1 PUSH2 0x92 JUMP JUMPDEST PUSH1 0x40 MLOAD DUP1 SWAP2 SUB SWAP1 PUSH1 0x0 CREATE DUP1 ISZERO DUP1 ISZERO PUSH2 0x68 JUMPI RETURNDATASIZE PUSH1 0x0 DUP1 RETURNDATACOPY RETURNDATASIZE PUSH1 0x0 REVERT JUMPDEST POP PUSH1 0x0 DUP1 SLOAD PUSH1 0x1 PUSH1 0x1 PUSH1 0xA0 SHL SUB NOT AND PUSH1 0x1 PUSH1 0x1 PUSH1 0xA0 SHL SUB SWAP3 DUP4 AND OR SWAP1 SSTORE AND PUSH1 0xA0 MSTORE POP PUSH2 0xEE SWAP2 POP POP JUMP JUMPDEST PUSH2 0x6DB DUP1 PUSH2 0xEB9 DUP4 CODECOPY ADD SWAP1 JUMP JUMPDEST DUP1 MLOAD PUSH1 0x1 PUSH1 0x1 PUSH1 0xA0 SHL SUB DUP2 AND DUP2 EQ PUSH2 0xB6 JUMPI PUSH1 0x0 DUP1 REVERT JUMPDEST SWAP2 SWAP1 POP JUMP JUMPDEST PUSH1 0x0 DUP1 PUSH1 0x40 DUP4 DUP6 SUB SLT ISZERO PUSH2 0xCE JUMPI PUSH1 0x0 DUP1 REVERT JUMPDEST PUSH2 0xD7 DUP4 PUSH2 0x9F JUMP JUMPDEST SWAP2 POP PUSH2 0xE5 PUSH1 0x20 DUP5 ADD PUSH2 0x9F JUMP JUMPDEST SWAP1 POP SWAP3 POP SWAP3 SWAP1 POP JUMP JUMPDEST PUSH1 0x80 MLOAD PUSH1 0xA0 MLOAD PUSH2 0xD93 PUSH2 0x126 PUSH1 0x0 CODECOPY PUSH1 0x0 DUP2 DUP2 PUSH2 0x235 ADD MSTORE DUP2 DUP2 PUSH2 0x466 ADD MSTORE PUSH2 0x524 ADD MSTORE PUSH1 0x0 DUP2 DUP2 PUSH1 0xAF ADD MSTORE PUSH1 0xFD ADD MSTORE PUSH2 0xD93 PUSH1 0x0 RETURN INVALID PUSH1 0x80 PUSH1 0x40 MSTORE PUSH1 0x4 CALLDATASIZE LT PUSH2 0x76 JUMPI PUSH1 0x0 CALLDATALOAD PUSH1 0xE0 SHR DUP1 PUSH4 0x192A2792 EQ PUSH2 0x7B JUMPI DUP1 PUSH4 0x38D52E0F EQ PUSH2 0x9D JUMPI DUP1 PUSH4 0x5C222BAD EQ PUSH2 0xEE JUMPI DUP1 PUSH4 0x86EA0436 EQ PUSH2 0x121 JUMPI DUP1 PUSH4 0x89B97D09 EQ PUSH2 0x151 JUMPI DUP1 PUSH4 0xAFFED0E0 EQ PUSH2 0x171 JUMPI DUP1 PUSH4 0xBB7DF052 EQ PUSH2 0x195 JUMPI DUP1 PUSH4 0xD21E82AB EQ PUSH2 0x1B5 JUMPI DUP1 PUSH4 0xE2BBB158 EQ PUSH2 0x1E5 JUMPI JUMPDEST PUSH1 0x0 DUP1 REVERT JUMPDEST CALLVALUE DUP1 ISZERO PUSH2 0x87 JUMPI PUSH1 0x0 DUP1 REVERT JUMPDEST POP PUSH2 0x9B PUSH2 0x96 CALLDATASIZE PUSH1 0x4 PUSH2 0xA28 JUMP JUMPDEST PUSH2 0x1F8 JUMP JUMPDEST STOP JUMPDEST CALLVALUE DUP1 ISZERO PUSH2 0xA9 JUMPI PUSH1 0x0 DUP1 REVERT JUMPDEST POP PUSH2 0xD1 PUSH32 0x0 DUP2 JUMP JUMPDEST PUSH1 0x40 MLOAD PUSH1 0x1 PUSH1 0x1 PUSH1 0xA0 SHL SUB SWAP1 SWAP2 AND DUP2 MSTORE PUSH1 0x20 ADD JUMPDEST PUSH1 0x40 MLOAD DUP1 SWAP2 SUB SWAP1 RETURN JUMPDEST CALLVALUE DUP1 ISZERO PUSH2 0xFA JUMPI PUSH1 0x0 DUP1 REVERT JUMPDEST POP PUSH32 0x0 PUSH2 0xD1 JUMP JUMPDEST CALLVALUE DUP1 ISZERO PUSH2 0x12D JUMPI PUSH1 0x0 DUP1 REVERT JUMPDEST POP PUSH2 0x141 PUSH2 0x13C CALLDATASIZE PUSH1 0x4 PUSH2 0xB25 JUMP JUMPDEST PUSH2 0x42A JUMP JUMPDEST PUSH1 0x40 MLOAD SWAP1 ISZERO ISZERO DUP2 MSTORE PUSH1 0x20 ADD PUSH2 0xE5 JUMP JUMPDEST CALLVALUE DUP1 ISZERO PUSH2 0x15D JUMPI PUSH1 0x0 DUP1 REVERT JUMPDEST POP PUSH2 0x9B PUSH2 0x16C CALLDATASIZE PUSH1 0x4 PUSH2 0xB70 JUMP JUMPDEST PUSH2 0x4EA JUMP JUMPDEST CALLVALUE DUP1 ISZERO PUSH2 0x17D JUMPI PUSH1 0x0 DUP1 REVERT JUMPDEST POP PUSH2 0x187 PUSH1 0x2 SLOAD DUP2 JUMP JUMPDEST PUSH1 0x40 MLOAD SWAP1 DUP2 MSTORE PUSH1 0x20 ADD PUSH2 0xE5 JUMP JUMPDEST CALLVALUE DUP1 ISZERO PUSH2 0x1A1 JUMPI PUSH1 0x0 DUP1 REVERT JUMPDEST POP PUSH1 0x0 SLOAD PUSH2 0xD1 SWAP1 PUSH1 0x1 PUSH1 0x1 PUSH1 0xA0 SHL SUB AND DUP2 JUMP JUMPDEST CALLVALUE DUP1 ISZERO PUSH2 0x1C1 JUMPI PUSH1 0x0 DUP1 REVERT JUMPDEST POP PUSH2 0x141 PUSH2 0x1D0 CALLDATASIZE PUSH1 0x4 PUSH2 0xBC0 JUMP JUMPDEST PUSH1 0x1 PUSH1 0x20 MSTORE PUSH1 0x0 SWAP1 DUP2 MSTORE PUSH1 0x40 SWAP1 KECCAK256 SLOAD PUSH1 0xFF AND DUP2 JUMP JUMPDEST PUSH2 0x187 PUSH2 0x1F3 CALLDATASIZE PUSH1 0x4 PUSH2 0xBD9 JUMP JUMPDEST PUSH2 0x6BB JUMP JUMPDEST PUSH1 0x40 DUP1 MLOAD PUSH1 0x80 DUP2 ADD DUP3 MSTORE PUSH1 0x60 DUP1 DUP10 ADD MLOAD DUP3 MSTORE PUSH1 0x20 DUP3 ADD DUP8 SWAP1 MSTORE DUP2 DUP4 ADD DUP6 SWAP1 MSTORE DUP2 ADD DUP6 SWAP1 MSTORE SWAP1 MLOAD PUSH4 0x1860FDAD PUSH1 0xE2 SHL DUP2 MSTORE DUP6 SWAP2 SWAP1 PUSH1 0x1 PUSH1 0x1 PUSH1 0xA0 SHL SUB PUSH32 0x0 AND SWAP1 PUSH4 0x6183F6B4 SWAP1 PUSH2 0x26C SWAP1 DUP7 SWAP1 DUP6 SWAP1 PUSH1 0x4 ADD PUSH2 0xBFB JUMP JUMPDEST PUSH1 0x20 PUSH1 0x40 MLOAD DUP1 DUP4 SUB DUP2 DUP7 GAS STATICCALL ISZERO DUP1 ISZERO PUSH2 0x289 JUMPI RETURNDATASIZE PUSH1 0x0 DUP1 RETURNDATACOPY RETURNDATASIZE PUSH1 0x0 REVERT JUMPDEST POP POP POP POP PUSH1 0x40 MLOAD RETURNDATASIZE PUSH1 0x1F NOT PUSH1 0x1F DUP3 ADD AND DUP3 ADD DUP1 PUSH1 0x40 MSTORE POP DUP2 ADD SWAP1 PUSH2 0x2AD SWAP2 SWAP1 PUSH2 0xC38 JUMP JUMPDEST PUSH2 0x2CA JUMPI PUSH1 0x40 MLOAD PUSH4 0x3B2487B PUSH1 0xE1 SHL DUP2 MSTORE PUSH1 0x4 ADD PUSH1 0x40 MLOAD DUP1 SWAP2 SUB SWAP1 REVERT JUMPDEST PUSH1 0x0 DUP6 DUP2 MSTORE PUSH1 0x1 PUSH1 0x20 MSTORE PUSH1 0x40 SWAP1 KECCAK256 SLOAD PUSH1 0xFF AND ISZERO PUSH2 0x2FA JUMPI PUSH1 0x40 MLOAD PUSH4 0xB115D857 PUSH1 0xE0 SHL DUP2 MSTORE PUSH1 0x4 ADD PUSH1 0x40 MLOAD DUP1 SWAP2 SUB SWAP1 REVERT JUMPDEST PUSH1 0x0 DUP6 DUP2 MSTORE PUSH1 0x1 PUSH1 0x20 DUP2 SWAP1 MSTORE PUSH1 0x40 DUP1 DUP4 KECCAK256 DUP1 SLOAD PUSH1 0xFF NOT AND SWAP1 SWAP3 OR SWAP1 SWAP2 SSTORE SWAP1 SLOAD SWAP1 MLOAD PUSH4 0x90B5561D PUSH1 0xE0 SHL DUP2 MSTORE PUSH1 0x4 DUP2 ADD DUP7 SWAP1 MSTORE PUSH1 0x1 PUSH1 0x1 PUSH1 0xA0 SHL SUB SWAP1 SWAP2 AND SWAP1 PUSH4 0x90B5561D SWAP1 PUSH1 0x24 ADD PUSH1 0x20 PUSH1 0x40 MLOAD DUP1 DUP4 SUB DUP2 PUSH1 0x0 DUP8 GAS CALL ISZERO DUP1 ISZERO PUSH2 0x360 JUMPI RETURNDATASIZE PUSH1 0x0 DUP1 RETURNDATACOPY RETURNDATASIZE PUSH1 0x0 REVERT JUMPDEST POP POP POP POP PUSH1 0x40 MLOAD RETURNDATASIZE PUSH1 0x1F NOT PUSH1 0x1F DUP3 ADD AND DUP3 ADD DUP1 PUSH1 0x40 MSTORE POP DUP2 ADD SWAP1 PUSH2 0x384 SWAP2 SWAP1 PUSH2 0xC61 JUMP JUMPDEST POP PUSH2 0x38F DUP8 DUP10 PUSH2 0x82C JUMP JUMPDEST PUSH1 0x40 DUP1 DUP10 ADD DUP1 MLOAD DUP3 MLOAD DUP12 MLOAD PUSH1 0x1 PUSH1 0x1 PUSH1 0xA0 SHL SUB SWAP1 DUP2 AND DUP3 MSTORE PUSH1 0x20 DUP1 DUP15 ADD MLOAD DUP3 AND SWAP1 DUP4 ADD MSTORE SWAP3 MLOAD DUP4 AND SWAP4 DUP2 ADD SWAP4 SWAP1 SWAP4 MSTORE PUSH1 0x60 DUP1 DUP13 ADD MLOAD SWAP1 DUP5 ADD MSTORE PUSH1 0x80 DUP1 DUP13 ADD MLOAD SWAP1 DUP5 ADD MSTORE PUSH1 0xA0 DUP1 DUP13 ADD MLOAD PUSH3 0xFFFFFF AND SWAP1 DUP5 ADD MSTORE PUSH1 0xC0 DUP4 ADD DUP9 SWAP1 MSTORE PUSH1 0xE0 DUP4 ADD DUP8 SWAP1 MSTORE AND SWAP1 PUSH32 0x5F34B7B0CB0357F860B3C2CD2BBDE1CB9A514A52041D215E0A4EF3C398012A82 SWAP1 PUSH2 0x100 ADD JUMPDEST PUSH1 0x40 MLOAD DUP1 SWAP2 SUB SWAP1 LOG2 POP POP POP POP POP POP POP POP JUMP JUMPDEST PUSH1 0x40 DUP1 MLOAD PUSH1 0x80 DUP2 ADD DUP3 MSTORE DUP7 DUP2 MSTORE PUSH1 0x20 DUP2 ADD DUP7 SWAP1 MSTORE DUP1 DUP3 ADD DUP5 SWAP1 MSTORE PUSH1 0x60 DUP2 ADD DUP6 SWAP1 MSTORE SWAP1 MLOAD PUSH4 0x1860FDAD PUSH1 0xE2 SHL DUP2 MSTORE PUSH1 0x0 SWAP2 DUP7 SWAP2 PUSH1 0x1 PUSH1 0x1 PUSH1 0xA0 SHL SUB PUSH32 0x0 AND SWAP1 PUSH4 0x6183F6B4 SWAP1 PUSH2 0x49D SWAP1 DUP8 SWAP1 DUP6 SWAP1 PUSH1 0x4 ADD PUSH2 0xBFB JUMP JUMPDEST PUSH1 0x20 PUSH1 0x40 MLOAD DUP1 DUP4 SUB DUP2 DUP7 GAS STATICCALL ISZERO DUP1 ISZERO PUSH2 0x4BA JUMPI RETURNDATASIZE PUSH1 0x0 DUP1 RETURNDATACOPY RETURNDATASIZE PUSH1 0x0 REVERT JUMPDEST POP POP POP POP PUSH1 0x40 MLOAD RETURNDATASIZE PUSH1 0x1F NOT PUSH1 0x1F DUP3 ADD AND DUP3 ADD DUP1 PUSH1 0x40 MSTORE POP DUP2 ADD SWAP1 PUSH2 0x4DE SWAP2 SWAP1 PUSH2 0xC38 JUMP JUMPDEST SWAP9 SWAP8 POP POP POP POP POP POP POP POP JUMP JUMPDEST PUSH1 0x40 DUP1 MLOAD PUSH1 0x80 DUP2 ADD DUP3 MSTORE DUP7 DUP2 MSTORE PUSH1 0x20 DUP2 ADD DUP7 SWAP1 MSTORE DUP1 DUP3 ADD DUP5 SWAP1 MSTORE PUSH1 0x60 DUP2 ADD DUP6 SWAP1 MSTORE SWAP1 MLOAD PUSH4 0x1860FDAD PUSH1 0xE2 SHL DUP2 MSTORE DUP6 SWAP2 SWAP1 PUSH1 0x1 PUSH1 0x1 PUSH1 0xA0 SHL SUB PUSH32 0x0 AND SWAP1 PUSH4 0x6183F6B4 SWAP1 PUSH2 0x55B SWAP1 DUP7 SWAP1 DUP6 SWAP1 PUSH1 0x4 ADD PUSH2 0xBFB JUMP JUMPDEST PUSH1 0x20 PUSH1 0x40 MLOAD DUP1 DUP4 SUB DUP2 DUP7 GAS STATICCALL ISZERO DUP1 ISZERO PUSH2 0x578 JUMPI RETURNDATASIZE PUSH1 0x0 DUP1 RETURNDATACOPY RETURNDATASIZE PUSH1 0x0 REVERT JUMPDEST POP POP POP POP PUSH1 0x40 MLOAD RETURNDATASIZE PUSH1 0x1F NOT PUSH1 0x1F DUP3 ADD AND DUP3 ADD DUP1 PUSH1 0x40 MSTORE POP DUP2 ADD SWAP1 PUSH2 0x59C SWAP2 SWAP1 PUSH2 0xC38 JUMP JUMPDEST PUSH2 0x5B9 JUMPI PUSH1 0x40 MLOAD PUSH4 0x3B2487B PUSH1 0xE1 SHL DUP2 MSTORE PUSH1 0x4 ADD PUSH1 0x40 MLOAD DUP1 SWAP2 SUB SWAP1 REVERT JUMPDEST PUSH1 0x0 DUP6 DUP2 MSTORE PUSH1 0x1 PUSH1 0x20 MSTORE PUSH1 0x40 SWAP1 KECCAK256 SLOAD PUSH1 0xFF AND ISZERO PUSH2 0x5E9 JUMPI PUSH1 0x40 MLOAD PUSH4 0xB115D857 PUSH1 0xE0 SHL DUP2 MSTORE PUSH1 0x4 ADD PUSH1 0x40 MLOAD DUP1 SWAP2 SUB SWAP1 REVERT JUMPDEST PUSH1 0x0 DUP6 DUP2 MSTORE PUSH1 0x1 PUSH1 0x20 DUP2 SWAP1 MSTORE PUSH1 0x40 DUP1 DUP4 KECCAK256 DUP1 SLOAD PUSH1 0xFF NOT AND SWAP1 SWAP3 OR SWAP1 SWAP2 SSTORE SWAP1 SLOAD SWAP1 MLOAD PUSH4 0x90B5561D PUSH1 0xE0 SHL DUP2 MSTORE PUSH1 0x4 DUP2 ADD DUP7 SWAP1 MSTORE PUSH1 0x1 PUSH1 0x1 PUSH1 0xA0 SHL SUB SWAP1 SWAP2 AND SWAP1 PUSH4 0x90B5561D SWAP1 PUSH1 0x24 ADD PUSH1 0x20 PUSH1 0x40 MLOAD DUP1 DUP4 SUB DUP2 PUSH1 0x0 DUP8 GAS CALL ISZERO DUP1 ISZERO PUSH2 0x64F JUMPI RETURNDATASIZE PUSH1 0x0 DUP1 RETURNDATACOPY RETURNDATASIZE PUSH1 0x0 REVERT JUMPDEST POP POP POP POP PUSH1 0x40 MLOAD RETURNDATASIZE PUSH1 0x1F NOT PUSH1 0x1F DUP3 ADD AND DUP3 ADD DUP1 PUSH1 0x40 MSTORE POP DUP2 ADD SWAP1 PUSH2 0x673 SWAP2 SWAP1 PUSH2 0xC61 JUMP JUMPDEST POP PUSH2 0x67E DUP9 DUP9 PUSH2 0x938 JUMP JUMPDEST DUP8 PUSH1 0x1 PUSH1 0x1 PUSH1 0xA0 SHL SUB AND PUSH32 0x75E161B3E824B114FC1A33274BD7091918DD4E639CEDE50B78B15A4EEA956A21 DUP9 DUP8 DUP8 PUSH1 0x40 MLOAD PUSH2 0x418 SWAP4 SWAP3 SWAP2 SWAP1 PUSH2 0xC7A JUMP JUMPDEST PUSH1 0x0 DUP1 DUP4 GT PUSH2 0x6DD JUMPI PUSH1 0x40 MLOAD PUSH4 0xFE9BA5CD PUSH1 0xE0 SHL DUP2 MSTORE PUSH1 0x4 ADD PUSH1 0x40 MLOAD DUP1 SWAP2 SUB SWAP1 REVERT JUMPDEST PUSH1 0x40 DUP1 MLOAD DUP1 DUP3 ADD DUP3 MSTORE DUP5 DUP2 MSTORE PUSH1 0x20 DUP2 ADD DUP5 SWAP1 MSTORE SWAP1 MLOAD PUSH4 0x2B0AAC7F PUSH1 0xE1 SHL DUP2 MSTORE PUSH20 0x0 SWAP2 PUSH4 0x561558FE SWAP2 PUSH2 0x725 SWAP2 SWAP1 PUSH1 0x4 ADD PUSH2 0xC90 JUMP JUMPDEST PUSH1 0x20 PUSH1 0x40 MLOAD DUP1 DUP4 SUB DUP2 DUP7 GAS DELEGATECALL ISZERO DUP1 ISZERO PUSH2 0x742 JUMPI RETURNDATASIZE PUSH1 0x0 DUP1 RETURNDATACOPY RETURNDATASIZE PUSH1 0x0 REVERT JUMPDEST POP POP POP POP PUSH1 0x40 MLOAD RETURNDATASIZE PUSH1 0x1F NOT PUSH1 0x1F DUP3 ADD AND DUP3 ADD DUP1 PUSH1 0x40 MSTORE POP DUP2 ADD SWAP1 PUSH2 0x766 SWAP2 SWAP1 PUSH2 0xC61 JUMP JUMPDEST PUSH1 0x0 SLOAD PUSH1 0x40 MLOAD PUSH4 0x90B5561D PUSH1 0xE0 SHL DUP2 MSTORE PUSH1 0x4 DUP2 ADD DUP4 SWAP1 MSTORE SWAP2 SWAP3 POP PUSH1 0x1 PUSH1 0x1 PUSH1 0xA0 SHL SUB AND SWAP1 PUSH4 0x90B5561D SWAP1 PUSH1 0x24 ADD PUSH1 0x20 PUSH1 0x40 MLOAD DUP1 DUP4 SUB DUP2 PUSH1 0x0 DUP8 GAS CALL ISZERO DUP1 ISZERO PUSH2 0x7B2 JUMPI RETURNDATASIZE PUSH1 0x0 DUP1 RETURNDATACOPY RETURNDATASIZE PUSH1 0x0 REVERT JUMPDEST POP POP POP POP PUSH1 0x40 MLOAD RETURNDATASIZE PUSH1 0x1F NOT PUSH1 0x1F DUP3 ADD AND DUP3 ADD DUP1 PUSH1 0x40 MSTORE POP DUP2 ADD SWAP1 PUSH2 0x7D6 SWAP2 SWAP1 PUSH2 0xC61 JUMP JUMPDEST POP PUSH2 0x7E1 CALLER DUP5 PUSH2 0x9B1 JUMP JUMPDEST CALLER PUSH1 0x1 PUSH1 0x1 PUSH1 0xA0 SHL SUB AND PUSH32 0x91EDE45F04A37A7C170F5C1207DF3B6BC748DC1E04AD5E917A241D0F52FEADA3 DUP5 DUP4 DUP6 PUSH1 0x40 MLOAD PUSH2 0x81E SWAP4 SWAP3 SWAP2 SWAP1 PUSH2 0xC7A JUMP JUMPDEST PUSH1 0x40 MLOAD DUP1 SWAP2 SUB SWAP1 LOG2 SWAP3 SWAP2 POP POP JUMP JUMPDEST PUSH1 0x0 DUP3 SWAP1 POP PUSH1 0x0 PUSH1 0x40 MLOAD DUP1 PUSH2 0x100 ADD PUSH1 0x40 MSTORE DUP1 DUP5 PUSH1 0x0 ADD MLOAD PUSH1 0x1 PUSH1 0x1 PUSH1 0xA0 SHL SUB AND DUP2 MSTORE PUSH1 0x20 ADD DUP5 PUSH1 0x20 ADD MLOAD PUSH1 0x1 PUSH1 0x1 PUSH1 0xA0 SHL SUB AND DUP2 MSTORE PUSH1 0x20 ADD DUP5 PUSH1 0xA0 ADD MLOAD PUSH3 0xFFFFFF AND DUP2 MSTORE PUSH1 0x20 ADD DUP5 PUSH1 0x40 ADD MLOAD PUSH1 0x1 PUSH1 0x1 PUSH1 0xA0 SHL SUB AND DUP2 MSTORE PUSH1 0x20 ADD TIMESTAMP PUSH1 0x3C PUSH2 0x894 SWAP2 SWAP1 PUSH2 0xCC1 JUMP JUMPDEST DUP2 MSTORE PUSH1 0x20 ADD DUP5 PUSH1 0x60 ADD MLOAD DUP2 MSTORE PUSH1 0x20 ADD DUP5 PUSH1 0x80 ADD MLOAD DUP2 MSTORE PUSH1 0x20 ADD PUSH1 0x0 PUSH1 0x1 PUSH1 0x1 PUSH1 0xA0 SHL SUB AND DUP2 MSTORE POP SWAP1 POP DUP2 PUSH1 0x1 PUSH1 0x1 PUSH1 0xA0 SHL SUB AND PUSH4 0x414BF389 DUP5 PUSH1 0x60 ADD MLOAD DUP4 PUSH1 0x40 MLOAD DUP4 PUSH4 0xFFFFFFFF AND PUSH1 0xE0 SHL DUP2 MSTORE PUSH1 0x4 ADD PUSH2 0x8EE SWAP2 SWAP1 PUSH2 0xCE2 JUMP JUMPDEST PUSH1 0x20 PUSH1 0x40 MLOAD DUP1 DUP4 SUB DUP2 DUP6 DUP9 GAS CALL ISZERO DUP1 ISZERO PUSH2 0x90C JUMPI RETURNDATASIZE PUSH1 0x0 DUP1 RETURNDATACOPY RETURNDATASIZE PUSH1 0x0 REVERT JUMPDEST POP POP POP POP POP PUSH1 0x40 MLOAD RETURNDATASIZE PUSH1 0x1F NOT PUSH1 0x1F DUP3 ADD AND DUP3 ADD DUP1 PUSH1 0x40 MSTORE POP DUP2 ADD SWAP1 PUSH2 0x931 SWAP2 SWAP1 PUSH2 0xC61 JUMP JUMPDEST POP POP POP POP POP JUMP JUMPDEST PUSH1 0x0 DUP3 PUSH1 0x1 PUSH1 0x1 PUSH1 0xA0 SHL SUB AND DUP3 PUSH1 0x40 MLOAD PUSH1 0x0 PUSH1 0x40 MLOAD DUP1 DUP4 SUB DUP2 DUP6 DUP8 GAS CALL SWAP3 POP POP POP RETURNDATASIZE DUP1 PUSH1 0x0 DUP2 EQ PUSH2 0x985 JUMPI PUSH1 0x40 MLOAD SWAP2 POP PUSH1 0x1F NOT PUSH1 0x3F RETURNDATASIZE ADD AND DUP3 ADD PUSH1 0x40 MSTORE RETURNDATASIZE DUP3 MSTORE RETURNDATASIZE PUSH1 0x0 PUSH1 0x20 DUP5 ADD RETURNDATACOPY PUSH2 0x98A JUMP JUMPDEST PUSH1 0x60 SWAP2 POP JUMPDEST POP POP SWAP1 POP DUP1 PUSH2 0x9AC JUMPI PUSH1 0x40 MLOAD PUSH4 0x3D2CEC6F PUSH1 0xE2 SHL DUP2 MSTORE PUSH1 0x4 ADD PUSH1 0x40 MLOAD DUP1 SWAP2 SUB SWAP1 REVERT JUMPDEST POP POP POP JUMP JUMPDEST DUP1 CALLVALUE EQ PUSH2 0x9D1 JUMPI PUSH1 0x40 MLOAD PUSH4 0x55E97B0D PUSH1 0xE0 SHL DUP2 MSTORE PUSH1 0x4 ADD PUSH1 0x40 MLOAD DUP1 SWAP2 SUB SWAP1 REVERT JUMPDEST POP POP JUMP JUMPDEST PUSH1 0x1 PUSH1 0x1 PUSH1 0xA0 SHL SUB DUP2 AND DUP2 EQ PUSH2 0x9EA JUMPI PUSH1 0x0 DUP1 REVERT JUMPDEST POP JUMP JUMPDEST DUP1 CALLDATALOAD PUSH2 0x9F8 DUP2 PUSH2 0x9D5 JUMP JUMPDEST SWAP2 SWAP1 POP JUMP JUMPDEST DUP1 CALLDATALOAD PUSH3 0xFFFFFF DUP2 AND DUP2 EQ PUSH2 0x9F8 JUMPI PUSH1 0x0 DUP1 REVERT JUMPDEST DUP1 PUSH2 0x300 DUP2 ADD DUP4 LT ISZERO PUSH2 0xA22 JUMPI PUSH1 0x0 DUP1 REVERT JUMPDEST SWAP3 SWAP2 POP POP JUMP JUMPDEST PUSH1 0x0 DUP1 PUSH1 0x0 DUP1 PUSH1 0x0 DUP1 DUP7 DUP9 SUB PUSH2 0x440 DUP2 SLT ISZERO PUSH2 0xA43 JUMPI PUSH1 0x0 DUP1 REVERT JUMPDEST PUSH1 0xC0 DUP2 SLT ISZERO PUSH2 0xA51 JUMPI PUSH1 0x0 DUP1 REVERT JUMPDEST POP PUSH1 0x40 MLOAD PUSH1 0xC0 DUP2 ADD PUSH1 0x1 PUSH1 0x1 PUSH1 0x40 SHL SUB DUP2 GT DUP3 DUP3 LT OR ISZERO PUSH2 0xA82 JUMPI PUSH4 0x4E487B71 PUSH1 0xE0 SHL PUSH1 0x0 MSTORE PUSH1 0x41 PUSH1 0x4 MSTORE PUSH1 0x24 PUSH1 0x0 REVERT JUMPDEST PUSH1 0x40 MSTORE PUSH2 0xA8E DUP9 PUSH2 0x9ED JUMP JUMPDEST DUP2 MSTORE PUSH2 0xA9C PUSH1 0x20 DUP10 ADD PUSH2 0x9ED JUMP JUMPDEST PUSH1 0x20 DUP3 ADD MSTORE PUSH2 0xAAD PUSH1 0x40 DUP10 ADD PUSH2 0x9ED JUMP JUMPDEST PUSH1 0x40 DUP3 ADD MSTORE PUSH1 0x60 DUP9 DUP2 ADD CALLDATALOAD SWAP1 DUP3 ADD MSTORE PUSH1 0x80 DUP1 DUP10 ADD CALLDATALOAD SWAP1 DUP3 ADD MSTORE PUSH2 0xAD2 PUSH1 0xA0 DUP10 ADD PUSH2 0x9FD JUMP JUMPDEST PUSH1 0xA0 DUP3 ADD MSTORE SWAP6 POP PUSH2 0xAE5 PUSH1 0xC0 DUP9 ADD PUSH2 0x9ED JUMP JUMPDEST SWAP5 POP PUSH1 0xE0 DUP8 ADD CALLDATALOAD SWAP4 POP PUSH2 0x100 DUP8 ADD CALLDATALOAD SWAP3 POP PUSH2 0x120 DUP8 ADD CALLDATALOAD SWAP2 POP PUSH2 0xB0C DUP9 PUSH2 0x140 DUP10 ADD PUSH2 0xA10 JUMP JUMPDEST SWAP1 POP SWAP3 SWAP6 POP SWAP3 SWAP6 POP SWAP3 SWAP6 JUMP JUMPDEST PUSH1 0x1 PUSH1 0x1 PUSH1 0xA0 SHL SUB AND SWAP1 MSTORE JUMP JUMPDEST PUSH1 0x0 DUP1 PUSH1 0x0 DUP1 PUSH1 0x0 PUSH2 0x380 DUP7 DUP9 SUB SLT ISZERO PUSH2 0xB3E JUMPI PUSH1 0x0 DUP1 REVERT JUMPDEST DUP6 CALLDATALOAD SWAP5 POP PUSH1 0x20 DUP7 ADD CALLDATALOAD SWAP4 POP PUSH1 0x40 DUP7 ADD CALLDATALOAD SWAP3 POP PUSH1 0x60 DUP7 ADD CALLDATALOAD SWAP2 POP PUSH2 0xB64 DUP8 PUSH1 0x80 DUP9 ADD PUSH2 0xA10 JUMP JUMPDEST SWAP1 POP SWAP3 SWAP6 POP SWAP3 SWAP6 SWAP1 SWAP4 POP JUMP JUMPDEST PUSH1 0x0 DUP1 PUSH1 0x0 DUP1 PUSH1 0x0 DUP1 PUSH2 0x3A0 DUP8 DUP10 SUB SLT ISZERO PUSH2 0xB8A JUMPI PUSH1 0x0 DUP1 REVERT JUMPDEST DUP7 CALLDATALOAD PUSH2 0xB95 DUP2 PUSH2 0x9D5 JUMP JUMPDEST SWAP6 POP PUSH1 0x20 DUP8 ADD CALLDATALOAD SWAP5 POP PUSH1 0x40 DUP8 ADD CALLDATALOAD SWAP4 POP PUSH1 0x60 DUP8 ADD CALLDATALOAD SWAP3 POP PUSH1 0x80 DUP8 ADD CALLDATALOAD SWAP2 POP PUSH2 0xB0C DUP9 PUSH1 0xA0 DUP10 ADD PUSH2 0xA10 JUMP JUMPDEST PUSH1 0x0 PUSH1 0x20 DUP3 DUP5 SUB SLT ISZERO PUSH2 0xBD2 JUMPI PUSH1 0x0 DUP1 REVERT JUMPDEST POP CALLDATALOAD SWAP2 SWAP1 POP JUMP JUMPDEST PUSH1 0x0 DUP1 PUSH1 0x40 DUP4 DUP6 SUB SLT ISZERO PUSH2 0xBEC JUMPI PUSH1 0x0 DUP1 REVERT JUMPDEST POP POP DUP1 CALLDATALOAD SWAP3 PUSH1 0x20 SWAP1 SWAP2 ADD CALLDATALOAD SWAP2 POP JUMP JUMPDEST PUSH2 0x380 DUP2 ADD PUSH2 0x300 DUP5 DUP4 CALLDATACOPY PUSH2 0x300 DUP3 ADD DUP4 PUSH1 0x0 JUMPDEST PUSH1 0x4 DUP2 LT ISZERO PUSH2 0xC2E JUMPI DUP2 MLOAD DUP4 MSTORE PUSH1 0x20 SWAP3 DUP4 ADD SWAP3 SWAP1 SWAP2 ADD SWAP1 PUSH1 0x1 ADD PUSH2 0xC0F JUMP JUMPDEST POP POP POP SWAP4 SWAP3 POP POP POP JUMP JUMPDEST PUSH1 0x0 PUSH1 0x20 DUP3 DUP5 SUB SLT ISZERO PUSH2 0xC4A JUMPI PUSH1 0x0 DUP1 REVERT JUMPDEST DUP2 MLOAD DUP1 ISZERO ISZERO DUP2 EQ PUSH2 0xC5A JUMPI PUSH1 0x0 DUP1 REVERT JUMPDEST SWAP4 SWAP3 POP POP POP JUMP JUMPDEST PUSH1 0x0 PUSH1 0x20 DUP3 DUP5 SUB SLT ISZERO PUSH2 0xC73 JUMPI PUSH1 0x0 DUP1 REVERT JUMPDEST POP MLOAD SWAP2 SWAP1 POP JUMP JUMPDEST SWAP3 DUP4 MSTORE PUSH1 0x20 DUP4 ADD SWAP2 SWAP1 SWAP2 MSTORE PUSH1 0x40 DUP3 ADD MSTORE PUSH1 0x60 ADD SWAP1 JUMP JUMPDEST PUSH1 0x40 DUP2 ADD DUP2 DUP4 PUSH1 0x0 JUMPDEST PUSH1 0x2 DUP2 LT ISZERO PUSH2 0xCB8 JUMPI DUP2 MLOAD DUP4 MSTORE PUSH1 0x20 SWAP3 DUP4 ADD SWAP3 SWAP1 SWAP2 ADD SWAP1 PUSH1 0x1 ADD PUSH2 0xC99 JUMP JUMPDEST POP POP POP SWAP3 SWAP2 POP POP JUMP JUMPDEST DUP1 DUP3 ADD DUP1 DUP3 GT ISZERO PUSH2 0xA22 JUMPI PUSH4 0x4E487B71 PUSH1 0xE0 SHL PUSH1 0x0 MSTORE PUSH1 0x11 PUSH1 0x4 MSTORE PUSH1 0x24 PUSH1 0x0 REVERT JUMPDEST DUP2 MLOAD PUSH1 0x1 PUSH1 0x1 PUSH1 0xA0 SHL SUB SWAP1 DUP2 AND DUP3 MSTORE PUSH1 0x20 DUP1 DUP5 ADD MLOAD SWAP1 SWAP2 AND SWAP1 DUP3 ADD MSTORE PUSH1 0x40 DUP1 DUP4 ADD MLOAD PUSH3 0xFFFFFF AND SWAP1 DUP3 ADD MSTORE PUSH1 0x60 DUP1 DUP4 ADD MLOAD PUSH2 0x100 DUP4 ADD SWAP2 PUSH2 0xD25 SWAP1 DUP5 ADD DUP3 PUSH2 0xB18 JUMP JUMPDEST POP PUSH1 0x80 DUP4 ADD MLOAD PUSH1 0x80 DUP4 ADD MSTORE PUSH1 0xA0 DUP4 ADD MLOAD PUSH1 0xA0 DUP4 ADD MSTORE PUSH1 0xC0 DUP4 ADD MLOAD PUSH1 0xC0 DUP4 ADD MSTORE PUSH1 0xE0 DUP4 ADD MLOAD PUSH2 0xD56 PUSH1 0xE0 DUP5 ADD DUP3 PUSH2 0xB18 JUMP JUMPDEST POP SWAP3 SWAP2 POP POP JUMP INVALID LOG2 PUSH5 0x6970667358 0x22 SLT KECCAK256 DUP8 0x29 MSTORE SWAP16 ADD 0xC9 PUSH2 0x8D5B 0xFB SWAP11 SWAP16 SWAP5 0xBB DELEGATECALL 0xEB 0xD8 MSIZE 0xEE EQ SWAP7 CALLDATALOAD 0xEC DUP12 0xDE 0xE4 CODECOPY 0x4C LOG0 SWAP8 0x29 SWAP12 PUSH5 0x736F6C6343 STOP ADDMOD SHR STOP CALLER PUSH1 0x80 PUSH1 0x40 MSTORE CALLVALUE DUP1 ISZERO PUSH1 0xF JUMPI PUSH1 0x0 DUP1 REVERT JUMPDEST POP PUSH2 0x6BC DUP1 PUSH2 0x1F PUSH1 0x0 CODECOPY PUSH1 0x0 RETURN INVALID PUSH1 0x80 PUSH1 0x40 MSTORE CALLVALUE DUP1 ISZERO PUSH2 0x10 JUMPI PUSH1 0x0 DUP1 REVERT JUMPDEST POP PUSH1 0x4 CALLDATASIZE LT PUSH2 0xA4 JUMPI PUSH1 0x0 CALLDATALOAD PUSH1 0xE0 SHR DUP1 PUSH4 0x81DC681 EQ PUSH2 0xA9 JUMPI DUP1 PUSH4 0x367506EF EQ PUSH2 0xDC JUMPI DUP1 PUSH4 0x5CA1E165 EQ PUSH2 0xE3 JUMPI DUP1 PUSH4 0x76A5CEF3 EQ PUSH2 0xEB JUMPI DUP1 PUSH4 0x90B5561D EQ PUSH2 0x10E JUMPI DUP1 PUSH4 0x90EEB02B EQ PUSH2 0x121 JUMPI DUP1 PUSH4 0x949D225D EQ PUSH2 0x146 JUMPI DUP1 PUSH4 0xA27154BA EQ PUSH2 0x14F JUMPI DUP1 PUSH4 0xCCCF7A8E EQ PUSH2 0x157 JUMPI DUP1 PUSH4 0xCD87A3B4 EQ PUSH2 0x16A JUMPI DUP1 PUSH4 0xD455A79D EQ PUSH2 0x172 JUMPI DUP1 PUSH4 0xDE8FA431 EQ PUSH2 0x192 JUMPI JUMPDEST PUSH1 0x0 DUP1 REVERT JUMPDEST PUSH2 0xC9 PUSH2 0xB7 CALLDATASIZE PUSH1 0x4 PUSH2 0x510 JUMP JUMPDEST PUSH1 0x2 PUSH1 0x20 MSTORE PUSH1 0x0 SWAP1 DUP2 MSTORE PUSH1 0x40 SWAP1 KECCAK256 SLOAD DUP2 JUMP JUMPDEST PUSH1 0x40 MLOAD SWAP1 DUP2 MSTORE PUSH1 0x20 ADD JUMPDEST PUSH1 0x40 MLOAD DUP1 SWAP2 SUB SWAP1 RETURN JUMPDEST PUSH1 0x20 PUSH2 0xC9 JUMP JUMPDEST PUSH2 0xC9 PUSH2 0x19A JUMP JUMPDEST PUSH2 0xFE PUSH2 0xF9 CALLDATASIZE PUSH1 0x4 PUSH2 0x53D JUMP JUMPDEST PUSH2 0x1AC JUMP JUMPDEST PUSH1 0x40 MLOAD SWAP1 ISZERO ISZERO DUP2 MSTORE PUSH1 0x20 ADD PUSH2 0xD3 JUMP JUMPDEST PUSH2 0xC9 PUSH2 0x11C CALLDATASIZE PUSH1 0x4 PUSH2 0x53D JUMP JUMPDEST PUSH2 0x221 JUMP JUMPDEST PUSH1 0x3 SLOAD PUSH2 0x131 SWAP1 PUSH4 0xFFFFFFFF AND DUP2 JUMP JUMPDEST PUSH1 0x40 MLOAD PUSH4 0xFFFFFFFF SWAP1 SWAP2 AND DUP2 MSTORE PUSH1 0x20 ADD PUSH2 0xD3 JUMP JUMPDEST PUSH2 0xC9 PUSH1 0x1 SLOAD DUP2 JUMP JUMPDEST PUSH2 0x131 PUSH1 0x20 DUP2 JUMP JUMPDEST PUSH2 0xFE PUSH2 0x165 CALLDATASIZE PUSH1 0x4 PUSH2 0x53D JUMP JUMPDEST PUSH2 0x343 JUMP JUMPDEST PUSH2 0x131 PUSH1 0x64 DUP2 JUMP JUMPDEST PUSH2 0xC9 PUSH2 0x180 CALLDATASIZE PUSH1 0x4 PUSH2 0x53D JUMP JUMPDEST PUSH1 0x0 PUSH1 0x20 DUP2 SWAP1 MSTORE SWAP1 DUP2 MSTORE PUSH1 0x40 SWAP1 KECCAK256 SLOAD DUP2 JUMP JUMPDEST PUSH1 0x1 SLOAD PUSH2 0xC9 JUMP JUMPDEST PUSH1 0x0 PUSH2 0x1A7 PUSH1 0x1 SLOAD PUSH2 0x381 JUMP JUMPDEST SWAP1 POP SWAP1 JUMP JUMPDEST PUSH1 0x0 DUP2 PUSH1 0x0 SUB PUSH2 0x1BE JUMPI POP PUSH1 0x0 SWAP2 SWAP1 POP JUMP JUMPDEST PUSH1 0x3 SLOAD PUSH4 0xFFFFFFFF AND PUSH1 0x0 JUMPDEST PUSH1 0x64 PUSH4 0xFFFFFFFF DUP3 AND LT ISZERO PUSH2 0x217 JUMPI PUSH4 0xFFFFFFFF DUP3 AND PUSH1 0x0 SWAP1 DUP2 MSTORE PUSH1 0x2 PUSH1 0x20 MSTORE PUSH1 0x40 SWAP1 KECCAK256 SLOAD DUP5 SWAP1 SUB PUSH2 0x200 JUMPI POP PUSH1 0x1 SWAP4 SWAP3 POP POP POP JUMP JUMPDEST PUSH1 0x64 PUSH1 0x63 DUP4 ADD PUSH4 0xFFFFFFFF AND MOD SWAP2 POP PUSH1 0x1 ADD PUSH2 0x1CA JUMP JUMPDEST POP PUSH1 0x0 SWAP4 SWAP3 POP POP POP JUMP JUMPDEST PUSH1 0x1 SLOAD PUSH1 0x0 SWAP1 PUSH1 0x1 PUSH1 0x20 SHL GT PUSH2 0x24A JUMPI PUSH1 0x40 MLOAD PUSH4 0x39776501 PUSH1 0xE0 SHL DUP2 MSTORE PUSH1 0x4 ADD PUSH1 0x40 MLOAD DUP1 SWAP2 SUB SWAP1 REVERT JUMPDEST PUSH1 0x1 DUP1 SLOAD PUSH1 0x0 SWAP1 DUP2 MSTORE PUSH1 0x20 DUP2 SWAP1 MSTORE PUSH1 0x40 DUP2 KECCAK256 DUP5 SWAP1 SSTORE DUP2 SLOAD SWAP2 SWAP1 PUSH2 0x26C DUP4 PUSH2 0x582 JUMP JUMPDEST SWAP2 SWAP1 POP SSTORE POP PUSH2 0x27C PUSH1 0x1 SLOAD PUSH2 0x381 JUMP JUMPDEST PUSH1 0x3 DUP1 SLOAD SWAP2 SWAP3 POP PUSH4 0xFFFFFFFF SWAP1 SWAP2 AND SWAP1 PUSH1 0x0 PUSH2 0x297 DUP4 PUSH2 0x59B JUMP JUMPDEST SWAP2 SWAP1 PUSH2 0x100 EXP DUP2 SLOAD DUP2 PUSH4 0xFFFFFFFF MUL NOT AND SWAP1 DUP4 PUSH4 0xFFFFFFFF AND MUL OR SWAP1 SSTORE POP POP DUP1 PUSH1 0x2 PUSH1 0x0 PUSH1 0x64 PUSH1 0x3 PUSH1 0x0 SWAP1 SLOAD SWAP1 PUSH2 0x100 EXP SWAP1 DIV PUSH4 0xFFFFFFFF AND PUSH2 0x2DA SWAP2 SWAP1 PUSH2 0x5C0 JUMP JUMPDEST PUSH4 0xFFFFFFFF AND DUP2 MSTORE PUSH1 0x20 DUP2 ADD SWAP2 SWAP1 SWAP2 MSTORE PUSH1 0x40 ADD PUSH1 0x0 KECCAK256 SSTORE PUSH1 0x1 DUP1 SLOAD PUSH32 0xCB249C8292372BD11F567786635483FCA9E635030BAAFCA55FF1A8940141D221 SWAP2 PUSH2 0x320 SWAP2 PUSH2 0x5E8 JUMP JUMPDEST PUSH1 0x40 DUP1 MLOAD SWAP2 DUP3 MSTORE PUSH1 0x20 DUP3 ADD DUP6 SWAP1 MSTORE DUP2 ADD DUP4 SWAP1 MSTORE PUSH1 0x60 ADD PUSH1 0x40 MLOAD DUP1 SWAP2 SUB SWAP1 LOG1 SWAP2 SWAP1 POP JUMP JUMPDEST PUSH1 0x0 DUP1 JUMPDEST PUSH1 0x1 SLOAD DUP2 LT ISZERO PUSH2 0x378 JUMPI PUSH1 0x0 DUP2 DUP2 MSTORE PUSH1 0x20 DUP2 SWAP1 MSTORE PUSH1 0x40 SWAP1 KECCAK256 SLOAD DUP4 SWAP1 SUB PUSH2 0x370 JUMPI POP PUSH1 0x1 SWAP3 SWAP2 POP POP JUMP JUMPDEST PUSH1 0x1 ADD PUSH2 0x347 JUMP JUMPDEST POP PUSH1 0x0 SWAP3 SWAP2 POP POP JUMP JUMPDEST PUSH1 0x0 DUP2 PUSH1 0x0 SUB PUSH2 0x393 JUMPI POP PUSH1 0x0 SWAP2 SWAP1 POP JUMP JUMPDEST PUSH1 0x0 PUSH2 0x3A0 PUSH1 0x1 DUP5 PUSH2 0x5E8 JUMP JUMPDEST PUSH1 0x0 DUP2 DUP2 MSTORE PUSH1 0x20 DUP2 SWAP1 MSTORE PUSH1 0x40 DUP2 KECCAK256 SLOAD SWAP2 SWAP3 POP JUMPDEST PUSH1 0x20 PUSH4 0xFFFFFFFF DUP3 AND LT ISZERO PUSH2 0x508 JUMPI PUSH1 0x0 PUSH2 0x3CF PUSH1 0x2 DUP6 PUSH2 0x601 JUMP JUMPDEST PUSH1 0x0 SUB PUSH2 0x3E8 JUMPI PUSH2 0x3E1 DUP5 PUSH1 0x1 PUSH2 0x615 JUMP JUMPDEST SWAP1 POP PUSH2 0x3F6 JUMP JUMPDEST PUSH2 0x3F3 PUSH1 0x1 DUP6 PUSH2 0x5E8 JUMP JUMPDEST SWAP1 POP JUMPDEST PUSH1 0x0 DUP7 DUP3 LT PUSH2 0x406 JUMPI PUSH1 0x0 PUSH2 0x416 JUMP JUMPDEST PUSH1 0x0 DUP3 DUP2 MSTORE PUSH1 0x20 DUP2 SWAP1 MSTORE PUSH1 0x40 SWAP1 KECCAK256 SLOAD JUMPDEST SWAP1 POP PUSH1 0x0 DUP1 PUSH2 0x426 PUSH1 0x2 DUP9 PUSH2 0x601 JUMP JUMPDEST PUSH1 0x0 SUB PUSH2 0x437 JUMPI POP DUP5 SWAP1 POP DUP2 PUSH2 0x43D JUMP JUMPDEST POP DUP2 SWAP1 POP DUP5 JUMPDEST PUSH1 0x40 DUP1 MLOAD DUP1 DUP3 ADD DUP3 MSTORE DUP4 DUP2 MSTORE PUSH1 0x20 DUP2 ADD DUP4 SWAP1 MSTORE SWAP1 MLOAD PUSH4 0x2B0AAC7F PUSH1 0xE1 SHL DUP2 MSTORE PUSH20 0x0 SWAP2 PUSH4 0x561558FE SWAP2 PUSH2 0x485 SWAP2 SWAP1 PUSH1 0x4 ADD PUSH2 0x628 JUMP JUMPDEST PUSH1 0x20 PUSH1 0x40 MLOAD DUP1 DUP4 SUB DUP2 DUP7 GAS DELEGATECALL ISZERO DUP1 ISZERO PUSH2 0x4A2 JUMPI RETURNDATASIZE PUSH1 0x0 DUP1 RETURNDATACOPY RETURNDATASIZE PUSH1 0x0 REVERT JUMPDEST POP POP POP POP PUSH1 0x40 MLOAD RETURNDATASIZE PUSH1 0x1F NOT PUSH1 0x1F DUP3 ADD AND DUP3 ADD DUP1 PUSH1 0x40 MSTORE POP DUP2 ADD SWAP1 PUSH2 0x4C6 SWAP2 SWAP1 PUSH2 0x659 JUMP JUMPDEST SWAP6 POP PUSH2 0x4D3 PUSH1 0x2 DUP9 PUSH2 0x672 JUMP JUMPDEST SWAP7 POP PUSH1 0x1 DUP10 GT ISZERO PUSH2 0x4F8 JUMPI PUSH1 0x2 PUSH2 0x4EB DUP11 PUSH1 0x1 PUSH2 0x615 JUMP JUMPDEST PUSH2 0x4F5 SWAP2 SWAP1 PUSH2 0x672 JUMP JUMPDEST SWAP9 POP JUMPDEST POP POP PUSH1 0x1 SWAP1 SWAP3 ADD SWAP2 POP PUSH2 0x3B3 SWAP1 POP JUMP JUMPDEST POP SWAP4 SWAP3 POP POP POP JUMP JUMPDEST PUSH1 0x0 PUSH1 0x20 DUP3 DUP5 SUB SLT ISZERO PUSH2 0x522 JUMPI PUSH1 0x0 DUP1 REVERT JUMPDEST DUP2 CALLDATALOAD PUSH4 0xFFFFFFFF DUP2 AND DUP2 EQ PUSH2 0x536 JUMPI PUSH1 0x0 DUP1 REVERT JUMPDEST SWAP4 SWAP3 POP POP POP JUMP JUMPDEST PUSH1 0x0 PUSH1 0x20 DUP3 DUP5 SUB SLT ISZERO PUSH2 0x54F JUMPI PUSH1 0x0 DUP1 REVERT JUMPDEST POP CALLDATALOAD SWAP2 SWAP1 POP JUMP JUMPDEST PUSH4 0x4E487B71 PUSH1 0xE0 SHL PUSH1 0x0 MSTORE PUSH1 0x12 PUSH1 0x4 MSTORE PUSH1 0x24 PUSH1 0x0 REVERT JUMPDEST PUSH4 0x4E487B71 PUSH1 0xE0 SHL PUSH1 0x0 MSTORE PUSH1 0x11 PUSH1 0x4 MSTORE PUSH1 0x24 PUSH1 0x0 REVERT JUMPDEST PUSH1 0x0 PUSH1 0x1 DUP3 ADD PUSH2 0x594 JUMPI PUSH2 0x594 PUSH2 0x56C JUMP JUMPDEST POP PUSH1 0x1 ADD SWAP1 JUMP JUMPDEST PUSH1 0x0 PUSH4 0xFFFFFFFF DUP3 AND PUSH4 0xFFFFFFFF DUP2 SUB PUSH2 0x5B7 JUMPI PUSH2 0x5B7 PUSH2 0x56C JUMP JUMPDEST PUSH1 0x1 ADD SWAP3 SWAP2 POP POP JUMP JUMPDEST PUSH1 0x0 PUSH4 0xFFFFFFFF DUP4 AND DUP1 PUSH2 0x5D6 JUMPI PUSH2 0x5D6 PUSH2 0x556 JUMP JUMPDEST DUP1 PUSH4 0xFFFFFFFF DUP5 AND MOD SWAP2 POP POP SWAP3 SWAP2 POP POP JUMP JUMPDEST DUP2 DUP2 SUB DUP2 DUP2 GT ISZERO PUSH2 0x5FB JUMPI PUSH2 0x5FB PUSH2 0x56C JUMP JUMPDEST SWAP3 SWAP2 POP POP JUMP JUMPDEST PUSH1 0x0 DUP3 PUSH2 0x610 JUMPI PUSH2 0x610 PUSH2 0x556 JUMP JUMPDEST POP MOD SWAP1 JUMP JUMPDEST DUP1 DUP3 ADD DUP1 DUP3 GT ISZERO PUSH2 0x5FB JUMPI PUSH2 0x5FB PUSH2 0x56C JUMP JUMPDEST PUSH1 0x40 DUP2 ADD DUP2 DUP4 PUSH1 0x0 JUMPDEST PUSH1 0x2 DUP2 LT ISZERO PUSH2 0x650 JUMPI DUP2 MLOAD DUP4 MSTORE PUSH1 0x20 SWAP3 DUP4 ADD SWAP3 SWAP1 SWAP2 ADD SWAP1 PUSH1 0x1 ADD PUSH2 0x631 JUMP JUMPDEST POP POP POP SWAP3 SWAP2 POP POP JUMP JUMPDEST PUSH1 0x0 PUSH1 0x20 DUP3 DUP5 SUB SLT ISZERO PUSH2 0x66B JUMPI PUSH1 0x0 DUP1 REVERT JUMPDEST POP MLOAD SWAP2 SWAP1 POP JUMP JUMPDEST PUSH1 0x0 DUP3 PUSH2 0x681 JUMPI PUSH2 0x681 PUSH2 0x556 JUMP JUMPDEST POP DIV SWAP1 JUMP INVALID LOG2 PUSH5 0x6970667358 0x22 SLT KECCAK256 RETURNDATACOPY 0xD4 CREATE2 0x4B TLOAD GASPRICE 0xC9 PUSH31 0xC16932B851C3884FD4EBD0FD8FFB40F2214C8A681A48654064736F6C634300 ADDMOD SHR STOP CALLER "},"methodIdentifiers":{"asset()":"38d52e0f","deposit(uint256,uint256)":"e2bbb158","getAsset()":"5c222bad","merkleTree()":"bb7df052","nonce()":"affed0e0","nullifiers(uint256)":"d21e82ab","swap((address,address,address,uint256,uint256,uint24),address,uint256,uint256,uint256,uint256[24])":"192a2792","verify(uint256,uint256,uint256,uint256,uint256[24])":"86ea0436","withdraw(address,uint256,uint256,uint256,uint256,uint256[24])":"89b97d09"}}}}}